:020000041000EA
:1000000000B5324B212058609868022188439860DF
:10001000D860186158612E4B002199600421596104
:100020000121F02299502B49196001219960352056
:1000300000F044F80222904214D00621196600F024
:1000400034F8196E01211966002018661A6600F04E
:100050002CF8196E196E196E052000F02FF8012189
:100060000842F9D1002199601B49196000215960AB
:100070001A491B48016001219960EB211966A021F2
:10008000196600F012F800219960164914480160C1
:100090000121996001BC002800D000471248134993
:1000A000086003C880F30888084703B5996A0420EC
:1000B0000142FBD001200142F8D103BD02B5186610
:1000C0001866FFF7F2FF186E186E02BD00000240BE
:1000D000000000180000070000035F00212200005C
:1000E000F4000018222000A00001001008ED00E03C
:1000F000000000000000000000000000070B8FD58A
:10010000F0260020ED30001095650010D930001069
:1001100000000000000000000000000000000000DF
:10012000000000000000000000000000FD31001091
:100130000000000000000000B1310010F543001085
:1001400079330010793300107933001079330010BF
:1001500079330010793300107933001079330010AF
:10016000793300107933001079330010793300109F
:10017000793300107933001079330010793300108F
:10018000793300107933001079330010793300107F
:10019000793300107933001079330010793300106F
:0801A0007933001079330010DF
:1001A80002B4714649084900095649008E4402BC08
:1001B8007047C04602B4714649084900095C4900C5
:1001C8008E4402BC7047C046002934D00123002267
:1001D80010B488422CD301242407A14204D28142BE
:1001E80002D209011B01F8E7E400A14204D28142CE
:1001F80002D249005B00F8E7884201D3401A1A434B
:100208004C08A04202D3001B5C0822438C08A04281
:1002180002D3001B9C082243CC08A04202D3001B37
:10022800DC082243002803D01B0901D00909E3E7B1
:10023800100010BC704701B5002000F05FF802BD47
:100248000029F8D003B5FFF7C1FF0EBC4243891A55
:100258001847C046002941D010B404004C40A446B9
:1002680001230022002900D54942002800D5404238
:1002780088422CD301242407A14204D2814202D20D
:1002880009011B01F8E7E400A14204D2814202D22D
:1002980049005B00F8E7884201D3401A1A434C082A
:1002A800A04202D3001B5C0822438C08A04202D360
:1002B800001B9C082243CC08A04202D3001BDC0888
:1002C8002243002803D01B0901D00909E3E71000E5
:1002D8006446002C00D5404210BC704701B5002090
:1002E80000F00CF802BDC0460029F7D003B5FFF7AF
:1002F800B3FF0EBC4243891A1847C0467047C04630
:100308001C2101231B04984201D3000C10391B0A3D
:10031800984201D3000A08391B09984201D3000901
:10032800043902A2105C40187047C0460403020258
:1003380001010101000000000000000041420840E6
:100348001C2101231B04984201D3000C10391B0AFD
:10035800984201D3000A08391B09984201D30009C1
:10036800043902A2105C401A7047C0461B1C1D1DB0
:100378001E1E1E1E1F1F1F1F1F1F1F1F002B11D1F8
:10038800002A0FD1002900D1002802D00021C9433A
:10039800080007B4024802A14018029003BDC046F5
:1003A8005DFFFFFF03B4684601B5029800F0F2FB59
:1003B800019B9E4602B00CBC7047C0464A02F8B585
:1003C80043024400C50F500A84464800240E000E1C
:1003D8005F0AC90F9B099209261A8D4200D09EE038
:1003E800002E42DD8021C90400281ED1002A0AD02F
:1003F800661E012C05D19B1801340B4246D1013CE5
:1004080001E0FF2C14D15A0704D00F221A40042A05
:1004180000D004335A0100D42EE101340026FF2C09
:1004280019D09D4EDB081E4015E0FF2CEBD00A4387
:100438001B2E01DD0133E6E72020801B11008240DE
:10044800F140501E82410A439B185A01DBD5013402
:100458000026FF2C1AD1FF23E005DB057602760A79
:1004680018403043ED072843F8BD002E2ED08026D3
:10047800011BF604002C14D1002B00D1F3E04C1E14
:1004880001290AD19B1802243342B8D0012283499A
:100498001A405B080B401343B5E7FF2906D1130048
:1004A800AEE0FF2800D1E0E00C0033431B2C02DD56
:1004B800531C0400A7E719002026E140341BA34081
:1004C8005C1EA3410B4304009B18BEE7FE20611C81
:1004D80001421ED1002C0DD1002B00D1C7E0002A0B
:1004E80000D190E79B185A0100D48CE76C4A13405E
:1004F8000C0088E7002BD2D0FF24002A00D182E725
:100508008023DB039F4202D39C4500D26746FB0051
:1005180076E00C00FF299ED09B185B0873E7002E3D
:1005280025DD00281CD1002A00D16CE7661E012CAD
:1005380006D19B1A5A0100D465E79B019E0975E014
:10054800FF2C00D15FE701211B2E07DC2020801B38
:1005580011008240F140501E824111435B1AE9E7C5
:10056800FF2C00D14FE78021C9040A43EBE7002E96
:1005780025D0051B002C0DD1002B08D06E1E012D97
:1005880003D10D00D31A0134D4E7FF2D08D113008D
:100598002C0021E0FF286CD080242E00E4042343A3
:1005A80001241B2E07DC2025AD1B1C00AB40F440AA
:1005B8005D1EAB411C43131B0D000400BAE7FE2669
:1005C800601C30422DD1002C14D1002B06D12500FF
:1005D8002600131E00D13EE70D0014E7002A00D1C3
:1005E80011E79E1AD31A7001F6D4331E00D00AE719
:1005F800350030E7002B05D1002A49D013000D0043
:10060800FF2400E7FF24002A00D1FCE68023DB0357
:100618009F4200D27BE79C4500D378E767460D00F0
:1006280075E79E1A700115D50D00D61A3000FFF730
:1006380067FE330005388340844210DC2022001B0B
:100648000130121A19009340C1405A1E93410024E8
:100658000B43D8E6002EE9D135003400FBE6104AFA
:10066800241A1340CFE6130042E7130021E71300D2
:10067800C9E613000400AFE7DE08FF2C00D0EAE665
:10068800002E00D1E7E68023DB03FF241E43E2E6C9
:1006980080261500F603F6E7FFFF7F1FFFFFFF7DAB
:1006A800FFFFFFFBF0B5C30F85B0440245000F1CE8
:1006B800640A2D0E039302930AD0FF2D3BD08023AA
:1006C800E400DB041C4300237F3D019500930EE00A
:1006D800012301940093002C09D02000FFF710FE9D
:1006E800431F9C4076235B421B1A019300957D02B1
:1006F8007E006D0A360EFF0F002E23D0FF2E2ED05F
:100708008023ED00DB041D4333007F3B002201986A
:100718000399C31A009879408000104301380E28C5
:1007280023D8FFF747FD4D9973999299734D4D92D0
:10073800736161615300022301950093002CD6D0A8
:100748000133C3E72B000122002DE0D02800FFF77A
:10075800D7FD431F9D4076235B421B1AD6E7330023
:100768000222002DD3D00132D1E764016D01AC42E1
:1007780028D31A200122641B012627005200640096
:10078800002F01DBA54201D8641B32430138002841
:10079800F3D1601E8441144318007F30002838DDEF
:1007A800620704D00F222240042A00D00434220118
:1007B80003D5803318002B4A1440E508FE281DDDB8
:1007C80000250FE01B200022013BD5E78023DB0337
:1007D8001C4203D01D4201D12C00029780250299AA
:1007E800ED032543FF2009E00399009A022AE7D088
:1007F800032A2FD000252800012ACDD16D026D0AC9
:10080800C0052843C907084305B0F0BD2C003900CE
:10081800ECE701220025121A28001B2AEEDC9E3381
:1008280025009C40D540631E9C4125436B0704D09E
:100838000F232B40042B00D0043580232800DB0431
:1008480018401D420BD1ED08D8E780240023E403AB
:100858000293C3E70291C1E700252800CEE70025EF
:100868000120CBE7FFFFFFF7F0B5C30F85B04702C4
:10087800440002917F0A240E03930AD0FF2C71D002
:1008880080227F3C26000023FF00D20417430193F7
:100898000CE001233E1E019308D03800FFF730FD1D
:1008A8007626431F9F407642361A0194029B5C02CB
:1008B8005D00DB0F640A2D0E02935AD0FF2D64D021
:1008C80080232800E400DB041C437F3800230299BE
:1008D800039A4A40811901988C46850001311D43CD
:1008E8000A2D00DD78E0022D55DC013D012D63D98C
:1008F800250CA4B226003B0CB8B246435C436843BF
:100908006B4300191F00330C1B189C4202D980202E
:1009180040023F181804B6B28619B401601E84411B
:100928001B0CB60EDB1934439B011C431B0168D515
:10093800012360081C40044308007F30002862DD62
:10094800630704D00F232340042B00D00434230171
:1009580003D5803108003E4B1C40E508FE2833DDF6
:1009680000254CE0022326000193002F9ED001337E
:100978008DE720000123002CA9D0FFF7C1FC431FFD
:100988009C4076235B42181AA0E728000223002C1B
:100998009DD001339BE70120A840A6250600ED0065
:1009A8002E4028421DD19025AD00284247D1B93D9F
:1009B800FF3D28429CD0029A022BD1D0032B42D073
:1009C80000252800012BB7D16D026D0AC005284308
:1009D800D207104305B0F0BD039A0F2D04D00B2D9C
:1009E800E9D03C00019BE7E78023DB031F4203D0EB
:1009F8001C4201D12700029A8025ED033D43FF20C8
:100A0800E2E7614698E7012300251B1A28001B2B03
:100A1800DADC9E3125008C40DD40631E9C41254375
:100A28006B0704D00F232B40042B00D00435802300
:100A38002800DB0418401D4207D1ED08C4E78027D1
:100A48003200FF03D8E72700D6E700250120BBE7DF
:100A5800FFFFFFF741024300C20F490A00201B0EA7
:100A68007E2B03DD9D2B02DD084BD01870478020BC
:100A780000040843952B05DD963B9840002AF5D0E5
:100A88004042F3E79621CB1AD840F7E7FFFFFF7FF4
:100A9800002370B50400984209D0FFF731FC9E236B
:100AA8001B1A962B08DC082829D0083884406402D1
:100AB800D805640A204370BD992B1BDD0200210074
:100AC8001B3291400A00511E8A410521091ACC4067
:100AD800144322000B4D2A40610704D00F21214006
:100AE800042900D00432510102D59F232A401B1A41
:100AF800D408DCE7421F0528EBD09440E9E79623A9
:100B0800D5E7C046FFFFFFFBD0400B00D1409C4615
:100B1800203AD340184352426346934018437047E3
:100B28009140030090409C46203A9340194352421A
:100B38006346D3401943704710B5002903D1FFF726
:100B4800DFFB203002E00800FFF7DAFB10BDC046EB
:100B5800F7B5040C0D0091B20F0061438C460600F6
:100B6800019383B2100C5F43444358433B0C6044E9
:100B78001B18994202D980214902641801995543EA
:100B88007143180C04191B04BFB24919D819091963
:100B980003B0F0BDF0B506000F0015001C0085B0CD
:100BA8008B4263D801D1824260D821002800FFF728
:100BB800C3FF390000903000FFF7BEFF009B210003
:100BC8001B1A1A0028000393FFF7AAFF009001914F
:100BD800B94245D801D1B04242D8009B019C0120BE
:100BE8000021039AF61AA741FFF79AFF04000D00A7
:100BF800039B002B2BD0019B009ADB07500818435E
:100C0800019B5908039B9C46B9422CD801D1B0429C
:100C180029D832003B00121A8B41012692185B41F9
:100C28000027B6185F4101235B429C446346002BB2
:100C3800EAD130003900039AFFF766FF039AA41936
:100C48007D4106000F00FFF76BFF241A8D410A9BB8
:100C5800002B01D01E605F602000290005B0F0BDA8
:100C680000240025C4E7B6197F41DCE700240025ED
:100C7800EDE70023C25C0133002AFBD1581E704700
:100C880010B503000A00034881680C691900A047E1
:100C980010BDC04680730010F7B5002511279626B1
:100CA80001900B4C01223900200005F052F8300069
:100CB80005F062F800223900200005F04AF83000FB
:100CC80005F05AF8019B01359D42EAD1F7BDC046AF
:100CD8006C730010F0B500208DB001F0CDFD06005A
:100CE8000520002E0CD10021734804F057FD7348ED
:100CF80006F0B1F8002806D1714805F057F913201D
:100D080040420DB0F0BD6F4C200006F0A4F800285A
:100D180001D16D48F1E722696C481368A168034066
:100D28001360C0220B68D20211212000984768483E
:100D380005F03CF9674805F039F9674805F036F9D8
:100D4800664805F033F95D483C218368DB689847BD
:100D5800011E00D0A3E00D2002A9FFF791FF10208B
:100D680004A9FFF78DFF3D2006A9FFF789FF1A2088
:100D780008A9FFF785FF0AA93E20FFF781FF584819
:100D88000A9C05F013F903985649FFF763FA564B86
:100D980002000299180005F009F905985149FFF772
:100DA80059FA524B02000499180005F0FFF8504810
:100DB800069905F0FBF84F48089905F0F7F8FF2366
:100DC8002340E5B219004C48009305F0EFF8002DD8
:100DD80060D0AE425ED03E4E300005F0E7F83D4FA1
:100DE800380005F0E3F8454805F0E0F8380005F06C
:100DF800DDF8270001231F401C4202D0404805F0BF
:100E0800D5F8A30702D53F4805F0D0F8E30602D588
:100E18003D4805F0CBF8042322001A4001921C42F9
:100E280002D03A4805F0C2F8300005F0BFF838485B
:100E380005F0BCF803982B49FFF70CFA354B020074
:100E48000299180005F0B2F805982649FFF702FA4A
:100E5800314B02000499180005F0A8F82F480699AC
:100E680005F0A4F82E48089905F0A0F82D48009937
:100E780005F09CF8194805F099F80120002F07D1D2
:100E8800122302201C4203D1019B002B02D0032015
:100E9800FFF702FF642004F06FFF2E0053E7030002
:100EA8000B3304D1204805F081F83500F2E71F48DC
:100EB80005F07CF8F9E7C046204E0000807300106A
:100EC800107700106C73001036770010FFFFFDFFDD
:100ED800CD7700105877001082770010A4770010A3
:100EE800CF77001010270000D7770010EA7700109E
:100EF800027800100F780010227800103178001066
:100F08004C7800106078001083780010A3780010E7
:100F1800BF780010D7780010F07800100A79001018
:100F28001C7900103179001047790010747900108D
:100F380070B50B00150004691A2933D00BD80D2998
:100F480010D0102920D019480121194A05F0EEFACD
:100F58008620404217E03D2922D034343E29F2D180
:100F6800237820E02C23E05E6421FFF773F900B2B8
:100F780028602C23E05E6421FFF7B6F90BB20D4917
:100F880059430020696070BD6421E08DFFF71CF9AA
:100F980080B228606421E08DFFF752F98BB2EEE74A
:100FA8003034DDE7638E00212B60EAE78C74001093
:100FB800A17900101027000010B504692000002353
:100FC800144A1C3003F084FF002807DA1248022173
:100FD800124A05F0A4FA0B20404210BD637C227C23
:100FE8001B0213435BBAA385E37CA27C1B02134359
:100FF8005BBAE3852300227D30331A70A37D627DBE
:101008001B0213435BBA63862300E27D343300205E
:101018001A70E2E7204E00008C740010B9790010B5
:1010280073B505000C69AB685B6C002B33D1AB68FA
:101038005B6B002B34D1AB689B69002BF3D06A46FD
:10104800D61D31000122280098470128EBD1A17B49
:101058003378002904D1AA2BE5D12371A073E2E7E4
:101068004A1CD2B26118A2730B710A2ADBD1552B24
:101078000BD12000211D0F3006F005F920001C308F
:1010880003F004FF0023A373CDE70221074A0848B1
:1010980005F04CFAF6E7280098470028C7D173BD39
:1010A800280098470028C6D1F9E7C046DA79001029
:1010B8008C7400100021F8B5436805691B680600A8
:1010C80000AF2B60A973280001221C3005F007FF30
:1010D800286805F0C0FE194C002808D1012120001D
:1010E800174A05F01CFA13204042BD46F8BD28688F
:1010F8008368002B05D09B6C002B02D0320011496D
:101108009847286883689B6A002B00D098472B680B
:101118006D4688B06A461B68936180239B000A4924
:1011280093830A4B51611361E6212000002310329A
:10113800490100F0A3FE0020AD46D6E78C740010EC
:10114800FC79001029100010127A00100300000129
:10115800F0B597B0059304230B921A400B9B0A92A3
:10116800DA0807231A40013207001C9D03910D92EB
:10117800820700D0C6E1041D002804D0072909D839
:101188001C20404254E1039A1A401300141D0822FF
:10119800D31A0393059B0426013B06930023099366
:1011A8000C9304930293013B07930196002F01D0FF
:1011B800059B23600D9B002B00DDF1E09D4B059AFC
:1011C8009A4203D39C4B9A4200D2E9E00B99E21B66
:1011D8009308890700D50DE1049A0F2A00D9BBE0CE
:1011E800002F00D10EE104990EAA53540A00079962
:1011F80012AB99540C9B01330C93F4E0082601962A
:10120800069B01330693069B9878002800D105E1D8
:10121800029B002B08D12528F2D1079B01330793A5
:10122800012302930426EAE77A284AD84B280ED8E5
:10123800472846D829282CD825283FD041D8202807
:10124800DED0233843425841C3B20293D8E74C3822
:101258002E2836D8FEF7A4FFD43535353535353543
:1012680035353535373535353535353535613537F6
:1012780037616161D437D235D435183718353579A7
:10128800E63735353735E600002308930426029300
:1012980027E0012213002A38C0B2834067490B4275
:1012A800AED1E2211800890508400B4235D119005A
:1012B800114002911342A3D0089013E0079B013B11
:1012C80007930023C1E70022069B08925B780292ED
:1012D8006C2B07D10426069B01961B786C2B01D139
:1012E800B6190196013CA0193100FEF76DFF704355
:1012F8000400002F3BD0019B039ADB1B1B18934271
:1013080000D93DE7089B002B41D1019B042B20D13C
:1013180008CD03600423043415E0072107358D4305
:1013280064188C430CCD002F08D00131C91B0398D9
:101338000919814200D923E7226063600023082647
:1013480002933300083401935AE7029B0893002361
:101358009CE7019B082B01D0162012E707230735CD
:101368009D430CCD0260436008230834EBE7089BDB
:10137800002B0CD1019B042B01D10435CAE7019B3A
:10138800082BE9D10735013B9D430835ECE7069B5F
:10139800023306930D9B013B0D9308CD059305E79A
:1013A8000B9B9B0722D50121E21B9308802080001C
:1013B8008242D1D2049A0F2ACED8002F1CD004988A
:1013C800DBB20EAA13549C46079B12AA1354002999
:1013D80000D10FE780226346524213430EAA1354EA
:1013E800099B01330993049B01330493069B04343E
:1013F800013B07E70021D9E7002903D0039B01330C
:101408000393F0E7039B023303930A9B002BEAD173
:101418000598FFF72EFC039B1B18F1E78022E31BBE
:10142800D200934298D2002F0AD103980838C018E6
:1014380017B0F0BDD872001020830010DAFF00004A
:101448009B08302238603B706B469B180A9A1B78C1
:10145800002A0BD0FB70099BBB70002B1BD1002509
:101468000EAE049BAB421BD1E01BE1E77B70F2E7B9
:101478000EADED560EA9595C002D07DA039EA5188E
:101488000140B54200D97BE621700134013304994B
:101498009942EDD1E3E7012200237F20D21BF6E732
:1014A800099B002B02D033787F2B1BD80A9B002B7B
:1014B8001BD012ABEB5C2370002301340193012392
:1014C800019ADB1B9B18039AE318934200D957E64D
:1014D8003378019A237001342000059905F0D3FE72
:1014E800019BE41801350136BBE733789B00FB18F4
:1014F8001A6805920A9A05981A60FFF7BAFB431C06
:101508000193DCE70E203CE6F0B59BB000AF3B62F0
:101518008023FB181B6806001B07DB0F7B618378A1
:10152800F9623A63BB6300290AD10478BB6BA40053
:10153800E41845780419FB6A9D421BD8A31BFB627B
:10154800F378BB61BB6B002B04D08023FB181B68AE
:10155800DB0719D4BB69002B47D13B6B002B03D0A9
:1015680030003A6AF96A9847FB6AFB63BD46F86B34
:101578001BB0F0BD01342000FFF77BFBFB6A013094
:1015880001332418FB62D6E73378FB619B007B624A
:101598007368BB627B6AF5183B6B002B00D029E1AE
:1015A800FB6AFB63BB6BEC180023BB63A54232D01C
:1015B8002B789B009859FFF75CFB84217B181B68EC
:1015C8000130002B0CD08822BA18BB6B12689342EA
:1015D80006D27A1812685B009852BB6B0133BB6362
:1015E800FB6B01351B18FB63E0E78023FB181B68C6
:1015F8009B07B2D53378FB619B007B627368BB6243
:101608007B6AF5183B6B002B77D1FB6AFB63BB6BDE
:10161800EC183B6BBB6380220523BA1812682500BF
:1016280013405A4253410133FB62BB695B00E31824
:101638003B633B6BAB4299D02B787B636B789B0009
:101648009C59B44B9C4202D3B34B9C4223D37B6935
:10165800002B33D0796BB86A04F083FC00282DD0B6
:101668006C468AB06A46AD4B5361BB6A93617B6B2B
:10167800D36180239B001384A94B1361922100231B
:10168800A8481032890100F0F9FBA546FB6B023B24
:10169800FB630235CDE77B69002B05D0796BB86A0F
:1016A80004F05FFC0028DBD180230122FB181B68B3
:1016B800134209D1FB6BFA6A9B1AE9E780230222DD
:1016C800FB181B681342E4D02000FFF7D2FA8421EC
:1016D8007B181B68002B0DD08822BA18BB6B1268C8
:1016E800934207D2791809685B00421C5A52BB6BB7
:1016F8000133BB63FB6B1B18CAE7BB6B1C1E7B6308
:1017080015D0802104237A1812681A4014007A63CD
:101718007A1812681A420AD00023BC6B7B6318330C
:1017280040229B182900BA6BD81905F0ACFDBB6B99
:10173800EB18FB60FB63BB695B003B613A69FB68C4
:10174800944663447B60FB6B7A68934257D17B6B0A
:10175800757800215A198023FB181B68D2B29B07A1
:1017680000D461088020381800680023C00705D419
:101778008033FB181B685B07DB1723407270B3705C
:10178800F17030003A6A796A3B6B9847F863002831
:1017980000DAEBE6FB6940203370BB6B2100B370C5
:1017A800BB693A6AF37018231B18D81975703B6B1C
:1017B8009847041E00DAA9E0FB6ABA6BF868991A20
:1017C8007B6A3A6AC91A3B699C46C91A60443B6BF2
:1017D8009847002800DA9BE00025FB6B1C192318AA
:1017E800FB637B6B9D4261D300213A6A08003B6B27
:1017F8009847BBE6BB6B00247B63082390E7FB6B31
:10180800444A1B78BB60FB6B5D78AB009B599342E5
:1018180002D3414A93420CD37B69002B30D0B9687C
:10182800B86A04F09EFB00282AD0FB6B0233FB63E6
:1018380089E77B69002B05D0B968B86A04F091FB89
:101848000028F2D180230122FB181B6813420AD01A
:101858007B6B9B18073240215218796BD219DBB287
:1018680055547B63E1E78023FB181B685B07DCD5D5
:10187800182240215218631CD2191555DCB2D4E73E
:1018880080230222FB181B68134203D07B6B0632AD
:101898000133E0E7402118225218B968631CD219B5
:1018A8001155DBB20234E4B2D554BEE74022082316
:1018B8009B18DB19EB5C0732BA18137084229B0063
:1018C8009B59BB63BB181C68002C01D06B00E45A01
:1018D80047230121F8183A6A3B6B9847002817DB21
:1018E800FB6B1B18FB63002C04D1B86BFFF7C1F925
:1018F800013084B221003A6AB86B3B6B98470028E4
:1019080006DBFB6B01351B18FB636AE7F8632DE602
:10191800F8632BE6D872001020830010487A001074
:101928000400000164740010F7B504000D001E00E7
:10193800019203F051FF030005F0B6FC054F320099
:101948003B5001992800A04705F0AEFC385801F03B
:10195800DDFBC04608000000F7B505000600002DB5
:1019680001D13000FEBD2800FEF7E8FC01238340CA
:10197800DA430E4F04019D433B1901931B7B0092F0
:10198800002BECD0E3591B69002B09D1009B3C19B3
:101998001E40636804221968019800F023FADEE704
:1019A800381998470028DAD1F0E7C046BC7400100F
:1019B800F0B5002289B00F490F4805F011FC00244A
:1019C800002600270E20C0220C4D0390069607978C
:1019D80028000B4B0B490494029401940094920044
:1019E80003F034FC0849280005F0C5FA200009B0C6
:1019F800F0BDC046151A0010E8060020700200204D
:101A0800B51C0010F0120020FC7A001010B5024836
:101A180003F03CFA10BDC046FC010020F7B5009069
:101A28001E48019104F02CFD061E33D00025280025
:101A3800FEBD237B002B0FD02368DB68002B01D071
:101A48002000984723681B69002B1BD16368042278
:101A58002000196800F0C6F901361034104B9C427A
:101A6800E7D3009B002BE2D0002DDFD02800FFF742
:101A780073FF019B0500002BF6D00021642003F0C2
:101A88008DFEF1E7200098470028DFD03B00B340E7
:101A98001D43E1E705000127024CDFE7E8090020C4
:101AA800BC740010BC74001010B5054C2378002BD2
:101AB80002D1044803F0EAF90123237010BDC0469F
:101AC800D4120020FC01002010B50400044804F0E2
:101AD800D7FC002C03D00121024805F0B3FB10BD50
:101AE800E0090020E409002010B50021014805F0B4
:101AF800B6FB10BDE009002070B5FFF7F5FF050043
:101B0800084C094B9C4200D370BD63685B79002B7D
:101B180006D023685B68002B02D029002000984774
:101B28001034EEE7BC740010BC74001010B5044CFF
:101B38000449200004F03DFB034B1C6010BDC04667
:101B48008401002008750010D80900200023064AE7
:101B580010B51370054A1360054A1360054B064A11
:101B68001A60FFF7E3FF10BDD5120020E00900203E
:101B7800E4090020000000209364001010B5044C14
:101B8800010000220023200004F034FB10BDC046F1
:101B98008401002010B5024804F0C6FB10BDC04601
:101BA8008401002010B5034B0100186804F00DFCF7
:101BB80010BDC046D809002010B5024804F03EFC0C
:101BC80010BDC0468401002070B5204B187800284D
:101BD80030D0FFF7DFFF051E0AD001211C4805F0B1
:101BE80031FB1C4C1C4B9C4225D32800FFF7DAFF25
:101BF8001A4B1B4C1B68002B11DD05F0EDFA0A226D
:101C08000023FEF7BBFB22686368801A994100290C
:101C180003D1FA239B00984201D9FFF76DFF226890
:101C28006368FA200021800012184B41226063602B
:101C3800FFF7C2FF70BD63685B79002B04D023688F
:101C4800290020001B6898471034CBE7D4120020E5
:101C5800E4090020BC740010BC740010E0090020E6
:101C6800E006002070B50E4D297800290CD101201E
:101C7800FFF7D4FE0B4C0C4B9C4206D3FFF7A4FF96
:101C88000028FBD101232B7070BD63685B79002BA2
:101C980003D0236820009B6898471034EBE7C046C0
:101CA800D5120020BC740010BC740010F7B50021D8
:101CB8000800FFF7B3FE041E2DD0FA2700267F0088
:101CC80005F0F2FA1C4B1D4A1B581360002B06D076
:101CD8001B4B1B68092B02DD1A4803F0D7F80023B9
:101CE8000093002C07D02000FFF736FE041E02D117
:101CF80001277F423E00FFF767FF0190002808D1C7
:101D0800009B114D002B13D10E483A00330003F00D
:101D1800DFF8019BE4E701277F423E00D0E72B680C
:101D28009B69002B03D0002228001100984710352A
:101D3800064B9D42F3D3E7E708000000DC090020CA
:101D4800E4090020FC010020BC740010BC740010E1
:101D580013B5154804F094FB144B1B78002B0AD0DC
:101D6800EFF3108472B6FFF72FFF002C02D162B692
:101D7800BFF36F8F13BD0E4B1B68002BFAD00028E2
:101D880009D1002200230B480092019300230A4A3C
:101D980003F08CFFEEE70928ECD1064805F02CFA91
:101DA800064803F073F8E5E7E4090020D51200209F
:101DB800DC090020E806002010270000FC010020B4
:101DC80010B5064B04001B6898472100A060044822
:101DD80004F08EFAFFF7BCFF10BDC04600000020DB
:101DE80084010020084B10B5C31A44681B11013345
:101DF800237143689A7101224368196043685A71D4
:101E0800FFF752FE10BDC046BC740010F0B55E1C52
:101E180085B0B50000902800072317309843033099
:101E280080080F000192FFF7A9FE02AB040003220D
:101E3800581D002105F030FA03AB1E70002C0BD0A2
:101E4800039B21002361002314312A1F0198C058E5
:101E5800C85004339A42F9D1E023BA015B001A4012
:101E68006D02054B2A431A4020000023009904F014
:101E78003DFB05B0F0BDC046C0FF0F00F0B591B006
:101E880004AF3B600B035B0D0D0078607A613B612A
:101E98000C0D002B00D173E0BB60002604237E628A
:101EA800BE62FE6202931833FB1801930A231822BC
:101EB800009302339B18DB193200B9687869FFF781
:101EC80023FB8023F8601B01984224D37B696C466E
:101ED8001A795B798AB01B0213437A6992791204E2
:101EE8001A437B69DB791B06134304AA9361294BC8
:101EF8002949D36180239B001384284B51611361C6
:101F080092213300264810328901FFF7B7FFA54612
:101F1800BD460DB0F0BDFB6817345B055A0D3A613C
:101F2800204A1B0B15401D43FB68E0180723984304
:101F380003308008FFF722FE041E15D0030010337B
:101F48007B62FB68FE62BB62042302931833FB18B2
:101F580001930A231821009302335B18124AB968C7
:101F68007869DB19FFF7D0FA3B690E4A5B02154026
:101F78001D432A0020003B68796804F0B7FAC7E7D8
:101F8800200007231730984303308008FFF7F6FD39
:101F98000400E9E7FF070000117B001004000001BE
:101FA8006C740010FF01F0FFC7640010F0B587B033
:101FB8000E9F0400150002910393002F15D00F9B6C
:101FC80010210593009300203B000D9AFFF7C0F8FD
:101FD800802306001B01984208D30221174A18489B
:101FE800184B04F0A3FA07B0F0BD3E000723220007
:101FF8000C9C1D401A40D2001734AD011543A0199E
:102008007202154398430C9A033012058008154351
:10201800FFF7B4FD041E09D0002F07D00F9B310035
:1020280000930D9A3B001030FFF792F82A00200029
:10203800039B029904F05AFAD5E7C046507B00107A
:102048006C740010FF070000F7B5FF270D4B0E4C0E
:102058005E6A0E4B0194019CA34202D38620404243
:102068000CE05D68B5420AD31C69002C07D0AD7836
:10207800AC4685883D40AC4501D1A047FEBD243320
:10208800E9E7C046EC0900206D0200206D0200203F
:10209800F8B505000E001700114C124B9C4202D3F4
:1020A8008620404212E0104B62685B6A9A4215D360
:1020B800A369002B12D09178FF208C46A988014093
:1020C8008C4504D13A00310028009847F8BD527970
:1020D800012A03D13A003100280098472434DCE76C
:1020E8006D0200206D020020EC090020F8B5050003
:1020F8000E001700094C0A4B9C4202D3862040422E
:102108000AE06369002B01D12434F4E73A00310076
:10211800280098470028F7D1F8BDC0466D02002076
:102128006D02002010B508220021024805F0B4F81D
:1021380010BDC046A70A002030B50A4B0A4CA3427E
:1021480001D3002030BD1A7F196AD200521891427B
:1021580001D12433F3E708310D1F2D788542F6D1DC
:102168000120EFE76D0200206D02002010B5044C3D
:10217800030020000121034A04F0EBF9002010BD00
:10218800AC740010887B001070B5050004F06BFA81
:102198000300040078330ED12B0002210B4A0C48AF
:1021A80004F0D7F9280004F0D8F90A4A0024136883
:1021B8008343136007E00028F4D02B000121064A6E
:1021C800034804F0C6F9200070BDC046A37B001088
:1021D800AC740010B00A0020C47B001010B5084C85
:1021E80023785B069B0F0A339B001B59181E05D0EA
:1021F8002000044A04499847C043C00F10BDC04698
:10220800EC090020F4090020FC090020F0B585B095
:1022180004000191042813D0012828D1204B1B78F1
:10222800002B24D000F0F2FD1E4E1F4B9E421BD205
:102238000025336A0293337FAB4204D82436F4E78F
:10224800FFF770FFEAE7029BEF00DF19387904F027
:102258000AFA0390387904F080F9144A1368834322
:102268001360039B002B0FDA00220D4B1A700D4DE3
:102278000D4B9D420BD30E4B1B6A002B02D0200046
:102288000199984705B0F0BD0135EDB2D3E7EB6889
:10229800002B03D021002800019A98472435E7E74E
:1022A800A50A00206D0200206D020020B00A00205F
:1022B800EC090020F7B56B46C4B2DD1D0E002C708A
:1022C800630609D02000FFF737FF002817D0002049
:1022D800124B1B78834212D0114F1248002E0FD098
:1022E80023000321104A04F034F9287801F076FB22
:1022F800FB69002B02D02900082098470120FEBD69
:1023080023000321094A04F024F9287804F087F906
:10231800FB69002BF2D029000920EEE7A60A00206D
:10232800EC090020AC740010E67B0010F97B00106B
:1023380073B56B46040080781870637922791B02A4
:1023480013436A4653800322E37813406A461371A5
:1023580004F003F9234B06001B68234D03420DD0FC
:10236800A478200000F038FD2000FFF70DFF04F0EE
:10237800FCFD002802D1963004F0C8FE684604F03F
:102388003EF96B4602001B7878321BD10221174AAE
:10239800174804F0DEF86B46187801F047FB030095
:1023A800783318D16B4602211B78124A104804F082
:1023B800D0F82B000120B933C43518702B6833438B
:1023C8002B6007E00C4A0028E5D00948012104F0F9
:1023D800C0F8002076BD0028EBD06B46074A1B7872
:1023E800F3E7C046B00A0020EC0900200E7C00107C
:1023F800AC740010557C0010317C0010757C001006
:10240800F0B5AB4F0600BB690C00150085B0002B7A
:1024180018D13178C806C00E012800D178E002280A
:1024280000D1E6E0002820D12A6873787F2931D9C5
:10243800062B0CD0082B28D0002B16D11370537004
:10244800023311E198470028E3D100200FE071889A
:102458000A0A131FD6B2012B07D9072A05D8CBB20F
:1024680001937B6A1F78002F03D11620404205B0E4
:10247800F0BD5978B14204D10199814200D1EBE015
:102488000130DB19EEE71B78EEE0BA373B781370C2
:102498000123E9E0052B11D0092BE6D173887C6A6A
:1024A800002B32D1FFF73EFE39007388BA310B702A
:1024B800FB69002BC9D003209847C6E7B07801F024
:1024C80063FA0028C1D0D0E76378042B09D0052B24
:1024D80011D0022B07D165797388AB4203D1012053
:1024E80001E0E37801932378E4182378002BEBD1FB
:1024F8000028BAD0D6E77388AB42F4D1019B002BF1
:10250800F1D12000FFF714FFEDE7FF250195ECE777
:102518002B6802933B00BA331B78002BA5D0B388F5
:10252800DAB294467A6A01921578002D9DD05078D7
:102538000390022803D11079604500D996E052191A
:10254800F2E7029B1A705A70039B8DE001998A1872
:10255800019295E00B2A00D087E70024FF25039419
:1025680002950AE0019B5B78042B14D0052B28D038
:10257800019B019A1B78D3180193019B1B78002BB0
:10258800F0D1FB69002B02D0072003999847002C53
:1025980000D05AE769E7019BDB780293019B9D789D
:1025A800B3889D42E4D17388029A9A42E0D1019B94
:1025B80000240393072DDBD87B19BB331A70013431
:1025C800D6E7B388AB42D3D1B378029A93420BD003
:1025D800019B9C78200000F0FFFB2000FFF7D4FD52
:1025E80043425841C4B2C3E70198FFF7A1FE040073
:1025F800BEE773787F2918D9002B00D035E73679E4
:102608002D6873060AD03000FFF796FD002800D128
:102618002BE7BA373B78002B00D126E7290030009A
:1026280004F012F800236B700AE7012B09D0032B82
:1026380000D01AE77388002B00D016E70121B08874
:1026480004E07188002900D00FE7B088FFF732FE58
:10265800002800D0F9E608E72B60022A00D012E72C
:102668009A78DB781B0213432360EEE672787F29A1
:1026780000D86FE7002A00D163E70A2A00D0F4E601
:10268800019A1278002A00D1EFE6019949780429C5
:1026980000D05BE7019989788B4200D056E7002289
:1026A800072B02D8FB18BB331A78029B1A70EFE687
:1026B800EC090020F7B505001F00042600910192DF
:1026C8003B002800019A009901F0D8F903000400A2
:1026D8000B330AD12B000221054A064803F039FFC3
:1026E800013E02F0D9FF002EEAD12000FEBDC0460F
:1026F800967C0010AC74001013B5154C237D002B8C
:102708001ED1E26801AB8020A1680192FFF7D2FFD9
:10271800019AA3689B18A360E3689B1AE3600ED133
:10272800002A0CD02069E388834208DD2300C833DF
:102738001978FDF7D9FD002901D10123237513BDAF
:10274800002180200B000A00217501F097F9F6E7B7
:10275800EC090020002330B585B004000D0001937A
:10276800984261D199423BD10B000822280002A966
:1027780003F096FF002804DA802001F02FF905B055
:1027880030BD6B462D4C029ADB892260039A257571
:1027980062602B4A2561A2606A46127AE56052B2ED
:1027A800002A10DB802B09D90121264A264803F08C
:1027B800B6FE802001F012F92800DEE7002B02D0D7
:1027C8002361E360DBE7FFF709FD0028D4D0226925
:1027D800E388934200DD1300E360FFF78DFFCEE747
:1027E800164D01ABEA68A968002A05DC020003F06F
:1027F80057FF0028C3DABFE703F052FF002804DAC6
:10280800802001F0EBF82000B7E7019AAB689B182D
:10281800AB60EB689B1AEB60B1D1094BAB60FFF77B
:10282800DDFC0028D9D1A7E78028A8D1034BDA68B6
:10283800002AD2D11B7D002BCFD1A0E7EC090020C4
:10284800240A0020BD7C0010AC740010054B064A19
:1028580058629A62054A0020DA62054A1A63054AF4
:102868009A617047EC0900200924001051200010DB
:10287800F520001099200010F0B5040085B04E4BEB
:102888000093009801225242D31702F04DFA4B4BA5
:102898004B4D1B78002B0CD002214A4A4A4803F0C2
:1028A8003EFE78246442009802F0B6FA200005B093
:1028B800F0BD6B6A002B0DD100F0CEF8FFF7C6FF14
:1028C8006B6A002B06D10121404A3F4803F027FEDE
:1028D8000124E7E73E482C62E8616E6A01F04EF891
:1028E80000F0E2FF041EDEDB00F0B0FA041EDADBC3
:1028F8007378012B02D1F379002B06D10121354AD7
:10290800314803F00CFE1624CCE72A000026C83212
:10291800137002AA100053801671167003F06FFE30
:102928000400B042BFDB802702AB18001F7003F021
:1029380066FE0400B042B6DB274B30001900019355
:1029480003F042FE0400B042ADDB3800019903F009
:102958003BFE0400B042A6DB204E214B9E4219D319
:10296800002001F063F8041E9DDB2E000127C43609
:10297800336880203B43336001F058F8041E00DAC6
:1029880091E7802332685B021343B8350024336033
:102998002F7088E70024376A337FA34201D8243692
:1029A800DBE7E300FB181879196803F00DFE00282F
:1029B8008ED10134E4B2EFE7C0010020A40A002060
:1029C800EC090020D67C0010AC740010F97C0010D3
:1029D800152200101E7D00105D2700106D020020DA
:1029E8006D020020F0B58BB01122194905A804F03A
:1029F8004AFC1022002101A804F04EFC154C1222BA
:102A08000021200004F048FC102101A804F00FF870
:102A180000281ADD082800DA0820083801AB1B183E
:102A28000F2021000022844614276D46985CED197A
:102A38000609AE5D654628406D46ED19285C0132F1
:102A48000E7048700231082AEED120000BB0F0BD9C
:102A5800587D0010D7120020F0B58B4B8BB01B7837
:102A680000AF7B61002B03D08848BD460BB0F0BD9A
:102A7800864C874BBB6100231D00FB603B61FB61FB
:102A88002378002B07D1834B02349C42F1D10122D9
:102A98007D4B1A70E8E7607805281FD8FDF78AFB98
:102AA800AF03F1AF215320227B69B9180B70402383
:102AB80024217B847B6979180B70B81800F072FFA9
:102AC800002809D008237B841833F81800F06AFF1F
:102AD800002801D07B697B847B8CE3712378E41820
:102AE800CEE7E378002BF9D1A378002B21D03B69FE
:102AF8000133DBB23B61F1E76A6894421CD02435AC
:102B08009D42F9D36D4688B06A46634B9461536120
:102B180003231361C2210023604810324901FFF7E3
:102B2800ADF9AD465D4801215D4A03F0F8FC00208F
:102B38009BE75C4D5C4BE3E7AB68002BD7D02000EC
:102B480039699847D3E7002D57D1584A012153488E
:102B580003F0E5FCE6E7BB682A6ADB00D3187B6074
:102B6800A2781B799A423FD101260322F3B23B6037
:102B7800E37813402132BA181370637922791B0263
:102B880013437B84A3787F2B24D93300012210338D
:102B98009A401300BA691A4223D180233A68134332
:102BA8002022B91808000B7000F0FCFE002818D18C
:102BB8002023FB181B787A68A37013715BB2002B73
:102BC80002DA3E681036F6B20123B340BA691A43F6
:102BD800BA6183E70123B340BA691A4201D1F3B25B
:102BE800DEE70136102EC0D1BB680133BB602B7FF6
:102BF800BA689A42AFD32E4AA8E70023F6E7FB68E3
:102C0800032B24D1FFF7EEFEB860002812D0FEF7A0
:102C180030F8061E0ED0102804D00221254A1F487D
:102C280003F07DFC3200A01C102E00DD1022B968D4
:102C380004F029FB2378E2185B08E318911E121BA5
:102C4800032A0CD5FB680133DBB2FB6046E7FB685F
:102C5800002BEFD1FB69002B08D1174A76E77A6978
:102C6800013B4A705A780A700A00E7E7FB69FA697B
:102C7800E31A93709BB21B0AD37013003A691A7156
:102C8800E0E7FC612AE7C046D61200200C020020CB
:102C9800010001006D020020697D0010A47400107D
:102CA8004F7E00106D0200206D020020897D00100B
:102CB800CA7D0010E77D0010327E0010094A00230B
:102CC800110010B51478844205D15468002C02D044
:102CD8009B01C81810BD01334032042BF2D10020EB
:102CE800F8E7C046B80A0020F0B504002C3C636839
:102CF8000600257887B0103327D1E16BE2688B078F
:102D080035D5002A07D10423194202D00023636075
:102D18001BE00B43E36305AB2800A168FFF7CAFC7F
:102D2800031E08D00121294A2948009503F006FC12
:102D380016235B42EBE7059AA3689B18A360E36838
:102D48009B1AE36023699B182361636810330CD0D6
:102D5800236967690393A369029304F006F90028BD
:102D680028D031001B4804F0F4F807B0F0BD05ABDB
:102D78002800A16800F0E4FE031ED3D1059FA368D4
:102D8800DB19A360E368DB1BE3602369DB192361BC
:102D9800002FBBD0280003F096FC01003800FDF797
:102DA8004FFA0029B2D1E368002BAFD0280000F019
:102DB8003DFFCAE760613000103802F067F8002F65
:102DC800D3D02800029A0399B847CEE77D7E001039
:102DD800B47400108008002010B5EFF3108472B6A8
:102DE800FFF76CFF011E09D04368103306D18C230E
:102DF8005B4243602C31044804F0ABF8002C02D14C
:102E080062B6BFF36F8F10BD8008002070B5002533
:102E18000C4CEFF3108672B66368103307D18C231D
:102E280021005B42084863602C3104F092F8002EC0
:102E380002D162B6BFF36F8F01354034042DE8D15B
:102E480070BDC046B80A00208008002070B5002573
:102E58000126084C2000084904F063F820003200DD
:102E680031001038013504F03AF84034042DF1D11E
:102E7800002070BDE40A0020F12C0010F0B585B0E8
:102E880000AF0C1EB86036D06E468AB06D46096831
:102E98006268A3682B6205232048A9616861EA611A
:102EA8002B61A1212A001E481032002389017A6073
:102EB800F860FEF7E3FFB546E168AD46226963694D
:102EC8002B6205231748A9616861EA612B61A1217A
:102ED80000237A68F8688901FEF7D0FFB546E369F0
:102EE8000121114AF86803F021FBA36901210F4A67
:102EF800F86803F01BFBBB68012B07D1EFF30583D0
:102F08000B4A0748B968103B03F010FB2100B8686A
:102F180001F0E2FCBD4605B0F0BDC046A77E00103A
:102F280084740010D67E0010057F0010147F0010F6
:102F3800427F001030BFFDE7F7B50A4B0A4D060087
:102F4800EF18CC1B2A0020000849019304F09BF9D4
:102F580060190021019A04F09FF93800083C746652
:102F68000830FEBD0400000000000000BC74001022
:102F7800074A9368997B7F2908D85269934205D0FC
:102F88008023044A5B0551680B4353607047C04671
:102F98009C12002000ED00E0F0B53E4B8BB05B6862
:102FA80000AF7B60DB05DB0D04003B6062B6BFF35E
:102FB8006F8F394E130EFF2B08D1F33B1340082BAC
:102FC8003DD101213000354A03F0A9FA00252C0033
:102FD8003B68032B39D1324A0121300003F09FFAB4
:102FE800A369304A934202D32F4A934205D32F4A0A
:102FF800934249D32E4A934246D2023B1A882D4B1C
:103008009A4241D12368012130002B4A03F08EFAFD
:10301800266808232022F818210004F034F97B6A76
:10302800002D33D0DA0502D1244A13437B620823EA
:103038003000F918FFF722FFBD460BB0F0BD01259F
:103048001207C5D50C000025C2E7F822796852009E
:103058001B4B114200D01B4B6A468AB07A606A4605
:1030680093613B681849103BD36180239B0013840C
:10307800164B5161136191210023300010328901F0
:10308800FEF7FCFE7B689D460026C2E75B0A5B02F2
:10309800CCE7C04600ED00E084740010837F001088
:1030A800AE7F0010A8010010D072001000000020B0
:1030B8000000002002DF0000C57F0010FF010000B3
:1030C800557F00106A7F0010E17F001004000001A6
:1030D800EFF30880EFF3098101B57246FFF75CFF53
:1030E80001BDC04672B607480749401880F30988F1
:1030F800EFF314800221084380F31488BFF36F8F25
:1031080000F0D0F8F01900200008000010B50A4BB4
:103118009B6883420DD1EFF30583002B09D08022F1
:10312800064B520559680A435A605A6A04490A40CC
:103138005A6203F0FCFF10BD9C12002000ED00E075
:10314800FF7FFFFF0B21084A49429368D9669866BA
:10315800802306495B05486803434B6062B6BFF3AA
:103168006F8F9368D86E70479C12002000ED00E0C6
:10317800EFF3108372B68021084A090553699360FA
:10318800074A5160596E074A116000219A6E996684
:103198008A4202D162B6BFF36F8F70479C1200203B
:1031A80000ED00E0B80B002010498A681048104470
:1031B800EFF3098CF0C043464C4655465E466746D9
:1031C800F8C074467046FFF7D3FFA64607498A68D9
:1031D800074C10191030F8C89846A146AA46B346BD
:1031E800BC462438F0C88CF3098870479C1200202C
:1031F8003000000004207146014202D0EFF309803C
:1032080001D1EFF308808169023909780229FFD0DA
:1032180001B503F0B5F901BD43B2000605D41F227C
:103228001A4001239340014A1360704700E100E00F
:1032380043B2000609D41F221A4001239340034ACF
:10324800D367BFF34F8FBFF36F8F704704E100E080
:1032580030B5FF2503220B00290040B20240D200FE
:1032680091409B012B40C943934000280ADBC024AE
:103278000A4A800880008018A40002590A401343B3
:10328800035130BD0F2210400838054A80088000DD
:103298008018C26911401943C161F2E700E100E0FA
:1032A80000ED00E0FF22084B10B59343074A9360F6
:1032B800BFF34F8FBFF36F8F01F0F6FB02F026FBD1
:1032C80000F03EF801F030FC0001001000ED00E0D5
:1032D80010B5203A1360029B01245360039B0649F2
:1032E8009360049BA143D36080235B04D3610023D4
:1032F80091610265836610BD3119001070B5094BE4
:103308000E009860416E084B150019602C1C86F35E
:1033180009880020054B9847201C00210022002323
:10332800034C20479C120020B80B0020AF6500100A
:10333800311900101022014B1A61704700ED00E0AE
:10334800F0B5C02400220326FF25A40010002F009A
:103358003040C0008740054993089B005B18195905
:103368000132B94319511A2AF0D1F0BD00E100E049
:1033780010B5EFF30583054A103BDB00D118496807
:1033880098588847FFF7F4FD10BDC04694730010A5
:10339800072310B50449054A99430548521A02F013
:1033A8008AFD002010BDC0466F2B0020002004209D
:1033B800BC0B00200200802103008A4300200F2A52
:1033C80008DC5AB20448002A00DA04482C228B434D
:1033D8005343C0187047C046CC0B00208C0E002009
:1033E800F8B506000F001500FFF7E4FF036A0400B4
:1033F8001B685B0505D502213300184A184803F0FD
:1034080095F876B2002E23DA402D24D8002F19D152
:1034180080231B021D4321002831087803005A1E0F
:103428009341012242400A70226A5B032B431360D6
:10343800C046C046C04680220020216AD2001343FD
:103448000B60F8BD2A003900606A03F01CFFDFE753
:103458000023A360DFE70C204042F2E7F87F00106A
:103468009C74001070B50400FFF7A4FF036A050000
:103478001B685B0526D566B201F07AF9012816D9D2
:10348800114B64001C40F343DB0F1C430123A34092
:103498000E4A0F4913664A6E1A409A42FBD1296AAE
:1034A8000C480A6802400A600B4A136604E02A6A5C
:1034B800084913680B401360002E03DA28000C300B
:1034C80001F0E4FC70BDC046FEFEFFFF0020115075
:1034D80000001150FFFBFFFF00301150F0B589B01C
:1034E8000E22524200240392002600278022114D0A
:1034F800069607972800104B1049049402940194EB
:103508000094D20001F0A2FE0D49280003F033FD1B
:103518000C48072183681B689847A04208DB2200F3
:1035280003210520FFF794FE0520FFF775FE200014
:1035380009B0F0BD2007002091350010F0150020DB
:10354800148000103073001010B50100024C2000E8
:1035580001F046FB10BDC046D40100201FB5002471
:103568006B461C71062302936B4600221C7301A84C
:103578000023FFF7E9FF024B024A9C541FBDC046D7
:10358800C80B00208B050000F0B580250126764287
:10359800F71785B06D0011483B0001A9320001F012
:1035A8006DFB6B461979002910D01C7B2000FFF7B2
:1035B80001FF0299002902D1094B0A4A9D5243682A
:1035C800002BE8D02000C9B29847E4E7044B1B68F9
:1035D800002BE0D00298C0B29847DCE7D401002065
:1035E800C80B00208405000010B50300044C01211D
:1035F8002000044A02F09AFF1620404210BDC0463F
:103608009C7400101C800010F0B5944B89B01F68A2
:10361800934B1F4206D0934B934A9B5C002B01D0DF
:10362800FFF79CFF10233C001C401F420BD00025D5
:1036380001268E4B9B6D0193019B002B02D0202D00
:1036480000D0D9E0102480235B021F4226D08022BC
:103658001C43874B92021A658020FFF703FF814DB8
:103668006B6A1B685B0507D50020FFF7FBFE02218C
:10367800804A814802F0A4FF0123804A02A9AB5482
:10368800BB229200AB5400222C350A752B7006928F
:1036980005A80B7300220023FFF756FF80239B0128
:1036A8001F4214D080221C43714B52021A6500231A
:1036B80002A90B720B706D4B196D0223114200D0D9
:1036C800DB1803930022002302A8FFF73DFF8025A3
:1036D8006D012F4223D06A4A0221674802F070FF29
:1036E80080222C430025B026614B12031A655F4BDC
:1036F800B6001D60634B0193019B58192C3501F0EE
:10370800C5FBB542F8D1002302AA13720122039225
:1037180002AA137002A800220023FFF715FF8023D6
:10372800DB011F420FD010221C43514B05A81A651C
:10373800002302AA13730522069202AA1375002217
:103748000023FFF701FF80231B021F4206D08022BF
:103758001C43474B12011A65FFF700FF20252F4233
:1037680009D0494A0221444802F02AFF8022404BEE
:1037780012061A652C4340252F4209D0434A0221DC
:103788003D4802F01DFF8022394B12051A652C4373
:1037980080252F4209D03E4A0221374802F010FF07
:1037A8008022334BD2041A652C4380256D002F42AA
:1037B80009D0384A0221304802F002FF80222C4BFF
:1037C80092041A652C438025AD002F4209D0324A55
:1037D8000121294802F0F4FE8022254B52041A6583
:1037E8002C43A74206D03B0001212C4A22486340C3
:1037F80002F09CFE09B0F0BD019B33422AD01C4B5D
:103808006C109E650123E4B21D4216D1002D09D12A
:10381800144B234A995C002904D09D54214A9B5C8F
:10382800124A136080235B421C43E4B22000FFF776
:10383800C1FD0C3001F02AFB0223012102AA1475F4
:10384800117305A8069300220023FFF77DFE019B54
:10385800B343019376000135EEE6C0469800115057
:1038680010000100C80B00208B050000000011505B
:10387800003011502E8000109C7400108405000048
:103888005B800010980E0020658000106E8000108C
:103898007980001085800010958000109F800010AE
:1038A800860500008A050000F8B58023264A5B04D7
:1038B8001360264A264913601C008A689443FBD18A
:1038C800244D9C222100280003F0E6FC80222100E0
:1038D8005201214803F0E0FC09236B670333AB670F
:1038E8000B3B2B6480239B05EB641C4A1C4B1D4E31
:1038F8001D4D1E4F1A603B1F77626B61002C1BD059
:103908007C3B33621A4A043B2B61E3019A18B2628A
:10391800184A9B18AB61012228001100013403F0FA
:10392800DEFA08372C362C35102CE4D18022124BC5
:1039380052020020DA64F8BDBA210E4B094A890008
:1039480093625350E7E7C04600E0004000F00040B3
:1039580000C000400000115000001050F0F30100BA
:1039680090001150C80B0020980E002084001050C1
:10397800400110500001105000201150014B1860F8
:103988007047C046C80B00200121034B034A9954D5
:10399800034A985400207047C80B00208605000091
:1039A8008A05000010B502790378002A09D15A0661
:1039B80007D0074A0748012102F002FE01204042D1
:1039C80010BD702200201342FAD0034AF2E7C04625
:1039D800B38000109C740010D280001070B50400F1
:1039E800FFF7E8FC051E1CD080231B01620613D1DB
:1039F80064B20D4A002C07DB02219166026A13604B
:103A080001230020EB7070BD01219166026A1360EA
:103A18000020FFF727FDF3E7026A1360802CEFD13F
:103A2800F6E716204042EEE70020115010B50400DA
:103A3800FFF7C0FC00281BD00023026A13600200B5
:103A480028321370C169994209D0426A0A4B53401F
:103A5800827892061343A022120613430B600020BB
:103A680063B2834203DD4021200002F0B9FD10BD9E
:103A780016204042FBE7C04600001050F7B505008D
:103A880014001E000191FFF795FC002802D06BB2CC
:103A9800002B08DB01212B00254A264802F046FDB1
:103AA80016256D420AE0802D0DD1234B234A9B5CDD
:103AB800002B05D0002E00D0346000252800FEBD64
:103AC8004027BC4203D80788A74200D927000C30FA
:103AD80004000022002301F0FBF9002825D103F09F
:103AE80044FA002802D10530FFF7A2FB28003A006B
:103AF8000199FFF775FC051E0ADB03F036FA00286A
:103B080002D10530FFF788FB002ED7D03760D5E704
:103B1800200001F0BBF903F028FA002801D00525A0
:103B2800BFE70520FFF778FBF9E70B25B9E7C046A3
:103B38001C8000109C740010C80B00208405000035
:103B4800F0B585B00500140002910393FFF732FC2D
:103B5800061E09D12D4A2E482B00012102F0E6FC51
:103B68001620404205B0F0BD6BB2002B01DA294A9D
:103B7800F1E7002D2BD1284B284A9B5C002B26D03F
:103B8800082C16D1029B2700002B35D0224B234A44
:103B98009B5C002B28D0220021492700029803F0C3
:103BA80072FBB3681B19B360039B002B2AD100205A
:103BB800D8E7082302211B4A1548009402F0BEFCEE
:103BC800029B002B15D0082CE0D90824DEE728003A
:103BD80002F05EFDB768029BC71B002B0AD0BC42EF
:103BE80000D93C00002DD1D0716AB3682200C918F1
:103BF800D3E70827002CD7D001210B4A044802F04C
:103C0800DFFCD1E7039B1F60D1E7C046F6800010B8
:103C18009C7400100A810010C80B00208505000064
:103C2800000010502B8100107A810010F8B50400B4
:103C3800FFF7C0FB061E02D063B2002B08DA1C484F
:103C4800230001211B4A02F071FC16204042F8BDF6
:103C5800002C26D1184D194B194FEA5C002A0ED0BA
:103C6800FA88002A08D0B122D200AC52EC54402184
:103C7800200002F0B5FCEAE7EA540020E7E720005C
:103C880002F006FD3B787F2BF7D8B122D200B1684D
:103C9800AB5AFE885B18B342EFD28842EDD1AB52E3
:103CA800E5E7200002F0F4FCB3688342E5D1DEE7E3
:103CB8009C7400108A810010C80B00208505000044
:103CC80000001050802310B5084A5B041360084AAE
:103CD80094691C4202D01620404210BD01609269CE
:103CE800100018401A42F8D0F5E7C04618300640D0
:103CF80000000640CBB210B5032B08D80C234B4369
:103D080002689B58194ADB051B0FD0560AE0081FAA
:103D1800072805D8FCF74EFA07151D212121282868
:103D28000120404210BD124A0E2013681168032278
:103D38000C0014401142F5D00E4A0238022CE2D190
:103D4800F0E70D4A0420136812689207EAD00B4A7C
:103D5800D9E70B4B0B4A1B68D5E70C234B430A4AA0
:103D68009B181B68094ACEE70C20DBE7C1810010CD
:103D780030800040BE8100103C800040B8810010B7
:103D880048800040B181001000800040AB810010E5
:103D9800F8B505000C006E68210030002F6902F0AC
:103DA800C2FC002800D16EE00E2C00D96BE0200088
:103DB800FCF700FA0808080808082A08080831313A
:103DC8006B636700210030003768FFF793FF01003D
:103DD8002800FFF7DDFF0C236343FB185E68051C12
:103DE8005868C0B2FCF754FE2949FCF75BFC041C78
:103DF800300AFCF74DFE011C201CFCF7DFFA011C01
:103E0800281CFCF74FFCF8BD224B234A1B68DB0536
:103E18001B0FD456BFE70A2C2DD1B76821003000FC
:103E2800FFF768FF01002800FFF7B2FF061CB8681B
:103E3800FCF72EFE311CFCF717FD061C3F203D68E1
:103E4800FC682840FCF724FE011C301CFCF72AFC07
:103E58000725061C200C2840FCF71AFE011C301C04
:103E6800FCF720FCFF68041C380B2840FCF710FE08
:103E7800011C201CC5E7F768D0E73868FCF708FE86
:103E8800C1E77868FAE70020BDE70448BBE7C04609
:103E980000007F4348800040B1810010001B374B71
:103EA800F0B544688FB0A36822220393E3685F49A2
:103EB80005A804932568276903F0E5F95C4B5D4A7A
:103EC8001A605D4B5D4A13601E005D4A9268964316
:103ED800FAD183225B4B9200DA62AE6700F034FCC1
:103EE8000321594BDA6B8A43DA635A6C012AFCD1F5
:103EF80003211A6B8A431A639A6B012AFCD1E2697F
:103F0800524B03985A43636A0093236AA16900F0ED
:103F1800B5FBE26A4D4B04985A43636B0093A16A60
:103F2800236B00F0ABFB112105A802F046FC7300DF
:103F380005AA9956C8B2092868D90136112EF6D1B2
:103F4800C0239B0119008022294312010A6029001D
:103F58000C3119430A6029002435183119432B43C1
:103F68000A601A602300AA253800D83319682D0181
:103F780029431430FFF7A6FE002853DB2300DC3367
:103F88001B68334938001943FFF79CFE002849DBBA
:103F98002300E0331B68002B46D029001F2B00D8D4
:103FA800591938001030FFF78DFE00283ADB26003B
:103FB800E4363168274D89B22943381DFFF782FE60
:103FC80000282FDB380031680830090C2943FFF737
:103FD80079FE002826DB204B184A1360184B9B6893
:103FE800DB43DB01DD09002BF8D12900606902AA57
:103FF80002F035FD002805DB029B2A0019791868B4
:1040080002F040FD00280DDD00200BE009016118D9
:104018000B6C00934B6CCA6B896B00F0BBFA0028E1
:104028008BD116380FB0F0BD0C49BAE7C474001034
:1040380000E00040BFCDFBFEFE3F3C0000F000402A
:1040480000C000400080054000800040001BB70011
:1040580000B0FA0000009696FFFFFF01A10A0000D9
:10406800F7B50600002403690193E308144A0833EE
:104078009B009B58072222409200D3400F221342F4
:1040880003D101341E2CF0D1F7BD0F21200000F020
:10409800D7FB019B59680029F3D00127A7400D6879
:1040A8000029EED08B681A003A403B4202D030001B
:1040B8004B6898472B1E00D02B6829001D00EFE79E
:1040C80000410140436803491A68936B0B409363AE
:1040D8007047C0467FF8FFFFF0B5036987B00191CC
:1040E800059204931B7A0500002B00D09BE0002A60
:1040F8000BD0012143681A68136B8B431363436821
:104108000F311A68D36A8B43D362EE226B681B683F
:10411800DC6A9443019A1279012A06D0022A16D041
:10412800002A04D0862040426AE002221443019A01
:104138005279012A03D0032AF4D105321443019A93
:1041480090790328EED8FCF735F80604181A0622E9
:10415800ECE720221443019AD279002A11D0012ACF
:10416800E0D18022196BD2010A431A636B681A687E
:104178008023116B1B020B430CE04022EAE760220C
:10418800E8E71A6B29490A401A636B6828491A68D4
:10419800136B0B401363049B40267642F717D868CD
:1041A800019B810E1A68800100231201FCF7E6F8D2
:1041B80002900391029A039BB6185F41002F30D1F9
:1041C8001C498E422DD8039B69689806029B096892
:1041D8009B0903434B623F216B68029A1B680A40A4
:1041E8009A62BFF35F8F6B6801991B680498DA6A5B
:1041F800DA626B6808221B68DC6203F044F8380056
:10420800059B002B0BD06B681A681023D16A0B43EF
:10421800D3626B681A680123116B0B43136307B0F1
:10422800F0BD16207FE786204042F8E7FFBFFFFF7A
:10423800FF7FFFFF80FF3F00F7B545680400066970
:10424800A86800285ED12869002864D1377A002F31
:104258002FD13900686801AA02F001FC002859DB57
:10426800019B3A001979186802F00CFC002851D11A
:104278002B6A002B00D09847012163681A68136BDA
:104288008B43136363680F311A68D36A8B43D36215
:10429800EB69002B4ED1002231002000FFF71CFFF4
:1042A80063681A681023536362681268D16A0B4303
:1042B800D362002263681B689A636368254A1B6897
:1042C8005A64337A002B13D1626812689364BFF37F
:1042D8006F8F022163681A68136B8B4313636368DB
:1042E8001A68C023116B9B000B431363BFF36F8FD6
:1042F800AB69200098470123327A3374002A1FD013
:10430800002007E0E9688368DB68002B1ED0984727
:10431800002898D0FEBD836869691B6898473200F9
:104328002869696983680C32DB68002B00D18DE746
:1043380098478BE72000F16898470028ABD0E9E759
:1043480062681268116B0B431363D9E75820404227
:10435800E0E7C046FF07000070B580251049114B03
:104368008C681B680E6810488A686D02002C08D19A
:10437800002A11D11A002E4209D100681818801A93
:1043880070BD002A0AD02E4201D1A242F5D9046894
:10439800E41804600968F0E71C00F4E71A00F2E783
:1043A80010E000E0701100206C1100200020094A84
:1043B800136A1B021B0A1362074B084A1A60084B50
:1043C800084A1860084B5A600722986019680A431F
:1043D8001A60704700ED00E070110020D430000032
:1043E8006C110020D330000010E000E0F8B5002484
:1043F800FFF7B2FF0F4E230031680F4D0A002868FF
:10440800696880185941286069600C4D34600C490E
:104418002E686F68801BFBF7D7FE094923004143CC
:104428000A0092197B412A606B6001F047FBFEF796
:104438009FFDF8BD6C110020980700209007002010
:10444800D4300000F0B53B4B3B4D87B000295FD01E
:10445800421C08D101212A688A432A60FF221206D9
:104468001A6007B0F0BD1B6803930023029301286C
:1044780053DCEFF31083059372B6FFF76DFF00224C
:104488001100AB6804932D4B1E685F6836184F41C6
:104498003000390018605960294B009601971A605E
:1044A800284B1C68009B1B1B93423DDB264F029840
:1044B800264A78438018C0183900FBF785FE009B10
:1044C8007843E41A80232018DB00984200D21800B1
:1044D8001F4B984200D91800164B1849186001382C
:1044E800AB6868600020A860049AD41A9A421ED269
:1044F800039D621903000C684D6812196B410A602C
:104508004B60059B002BACD162B6BFF36F8FA8E759
:104518001B680393431CA8D10E480F4B984200DD3B
:104528001800431E0293A4E78020C000D4E72200AD
:10453800E0E7C0467011002010E000E09807002076
:104548006C11002090070020D4300000D330000008
:1045580084C6FF003D0500003E05000070B5EFF37E
:10456800108572B6084A094B14681B68E41AFFF7ED
:10457800F3FE0019002D02D162B6BFF36F8F044914
:10458800FBF722FE70BDC046980700209007002068
:10459800D4300000F0B585B001920A9A05000F00EA
:1045A800934201D202F00CF80C241A0E1B0203925B
:1045B80002930A9A002302980399FBF7DFFE6C43E3
:1045C8002C4B0600E4186368834200D260602B1FFE
:1045D800DBB20093C023009A9B012343012A1BD816
:1045E800012F19D103221A60A3683B42FCD0019A1B
:1045F800236852015A40E0231A4080235B01234379
:104608001A60032122687A400A401A600123BB40DD
:10461800A2681342FCD01AE0802212011A60164BDD
:10462800AA00D158002905D05869FBF7CDFD013003
:104638000138FDD1019A236852015A40E0231A40FB
:1046480080235B0123431A60009A012AD9D9802369
:1046580080229B01234312011A600298666032008F
:1046680000230399FBF78AFE034CAD00605101203B
:1046780005B0F0BD0080004074110020F8B51700A7
:1046880004000C201E000D00FBF79EFD274BFA18B6
:10469800274B9A4201D901F093FF2649414338003C
:1046A800FBF792FD02009823103A5B009A42F2D879
:1046B800731E062BEFD8069B013B062BEBD8069BF7
:1046C80032041E0323681643002B0FDA3F222368A7
:1046D8001340AB420AD1A3681B051B0D834205D1C9
:1046E800EE22E368D2021340B3421BD0124B9C4225
:1046F80019D080235B01114A11491360114A1360D4
:104708001F008A689743FBD1C023221D9B011343D6
:1047180021222560A0601A602268002AFCDA08229B
:10472800E6601A60F8BD80239B01E4E780E84BD37C
:1047380080F8A93240420F0000C0024000E000406B
:1047480000C0004000F00040AA22064B12011A6087
:104758002F220549DA60054A11605A68002AFCDAF6
:104768007047C0460040024000B0FA0000600240B6
:10477800802310B5DB0518680649030B02059BB2B8
:10478800120D8A4201D001F01BFF022BFBD1000F52
:1047980010BDC04627090000084B8200D2184023EC
:1047A80010B51468C0006340C0242340802464010D
:1047B80022431360024BC018416010BD04C0014081
:1047C80000400140074B8000C0180368C9009200F0
:1047D8000A435A400C231A4080235B0103431A60A2
:1047E8007047C04604C00140054B8000C018022233
:1047F8008023002900D1C0239B0103431A6070471E
:1048080004C00140054B8000C018036859400123CB
:10481800194080235B0103431960704704C00140BD
:10482800064B8000C018036809015940302319401D
:1048380080235B01034319607047C04604C00140F0
:104848000722C308104080008140024A3C339B0085
:104858009950704700400140F8B5D0231B061C68EA
:10486800050063425C412F2364429C430A4B0F00BE
:10487800E4181600FFF7E4FF07232B40ED089B0020
:10488800AD009F4064198023002E00D1C0239B01F6
:1048980023431F60F8BDC04630410140054B8000EE
:1048A800C01840228023002900D1C0239B01034364
:1048B8001A60704704C0014010B50400FDF7D2F932
:1048C80003480121034A01F02AFE200002F0D0FA31
:1048D800847400101C820010F0B585B005000C002F
:1048E80000AFEFF310837B6072B62D4A9368FB60CC
:1048F8002C4B042802D82C4B8100CB586E468AB02A
:10490800117C6A46D361294B29489384294B50610D
:10491800956111621361B121274B1032BB60B868F1
:1049280000238901FDF7AAFAB546002C07D0E369F0
:10493800DB0504D00121214AB86801F0F0FDFB68CD
:10494800002B07D0180002F019FB002802D00378CA
:10495800002B00D11A486E468AB06A46194BD061BE
:104968005361FB689361114B1384174B13619121B9
:104978000023114810328901FDF780FA2100B5465D
:104988002800FFF799FF7B68002B02D162B6BFF3BE
:104998006F8FF868FEF7BAFBBD4605B0F0BDC0469C
:1049A8009C1200202B820010E47600100103000006
:1049B8004182001005000001847400106982001013
:1049C800398200108A8200100400000170B50A4E76
:1049D80083009D59013084003359AB4200D870BD23
:1049E8006B68002B04D0280002F046FA0835F3E77C
:1049F8002B689847FAE7C046F8760010012270B590
:104A0800244B032086B01A70FFF7E0FF01F086F907
:104A180002F052FA0420FFF7D9FF1F4C26001F4D61
:104A2800AC420ED300F004FEAE4220D300F010FEDC
:104A3800FCF750F901211A4A137B8B43137306B014
:104A480070BD636A0593236A0493E3690393A369BA
:104A580002936369019323690093E368A26861681C
:104A6800206800F0B9FB23685C653034D7E7B26A88
:104A7800F36A511C01D1591C05D011003068194343
:104A880003D102F07DFA3036CEE70649183000F03F
:104A9800A1FFF8E7EA1200206474001064740010A3
:104AA80010080020AD70001010B5034A034800211B
:104AB800121A02F0F9F910BDEC1200207002002061
:104AC80070B5702601250400464301021148802272
:104AD8000918002086B004950E3503950535654301
:104AE8000D4B0590029001900C48F6182D180C4BB0
:104AF80030000095520000F06FFB0422737B2C7489
:104B0800934373730134074BE402E418EE606C605E
:104B180006B070BDF0210020A00700209C120020E4
:104B2800C36E0010F0190020F0B5002087B0FFF721
:104B38004DFF224B83F308882149224B0A6A00253E
:104B48001A40C0231B0413430B6201F025FDFEF736
:104B5800F1FBFCF7FBFF02221B4B1C4EFF329A8134
:104B6800B3601D6602F076F90120FFF72FFF0220DF
:104B7800FFF72CFF00F086FD154C164B7461802260
:104B880005930123144E15490493D20033002000E5
:104B9800039502950195009500F01EFB042207007D
:104BA800637B20009343637302F02AFA2800FFF71F
:104BB80087FF320039002000FEF7A0FBF02100201B
:104BC80000ED00E0FFFF00FF100900209C1200200C
:104BD800100800209C790010054A0010F0220020DF
:104BE800F0B50F00010085B0083104000391EFF320
:104BF800108672B6006AE16888422CD2200002F062
:104C08006CFAA268051E0FD000243900406902F032
:104C18003AFB2800EC6602F0F3F90398310000F043
:104C2800C1FC200005B0F0BD3900E06902F02BFBA3
:104C3800E369A2689B186269E361934201D1236921
:104C4800E3610020236A01332362002EEAD162B6B1
:104C5800BFF36F8FE6E7110019430AD0064903989E
:104C680089684F61009231002200019300F02CFC0A
:104C7800D8E723204042E8E79C120020F7B504005B
:104C8800270008000837EFF3108672B6216A00295A
:104C980032D0A268A16902F0F6FAA369A2689B184B
:104CA8006269A361934201D12369A361236A200049
:104CB800013B236202F011FA0500002085422BD047
:104CC800A268E069696902F0DEFAE369A2689B18E4
:104CD8006269E361934201D12369E361236A280091
:104CE800013323620024EC6602F08AF938003100AF
:104CF80000F058FC2000FEBD110019430AD00949F4
:104D0800896848610092310022003800019300F060
:104D1800DBFBF0E723204042002EECD162B6BFF364
:104D28006F8FE8E79C120020F0B585B004001F00E3
:104D38000392EFF3108672B6C368354A002B0ED083
:104D480080689168884217D0039B3B431AD1002E94
:104D580002D162B6BFF36F8F102040420AE091681B
:104D6800897B49B20133E36093682161A360002E17
:104D780004D0002005B0F0BD2169F3E762B6BFF3A7
:104D88006F8FF6E70E23897BC35649B2994200DD3F
:104D980019000A007F3201DA7F21494200258B423F
:104DA80002DD02F091F805001A4B22000293039BE2
:104DB800310002980093019700F086FB0028D8D0B4
:104DC800EFF3108672B6A068002819D0236821690D
:104DD8009C420BD0002B09D09B7B5BB2994200DD33
:104DE80019000B007F3301DA7F21494202F06CF889
:104DF800002805D03100029800F0D4FB0B20ACE766
:104E0800002DF7D1002EF9D162B6BFF36F8FF5E709
:104E18009C120020EB12002070B583680400002B60
:104E28002AD0184A9268934229D1C368012B03D922
:104E3800013BC360002070BDEFF3108572B60169B5
:104E4800806802F041F8200002F047F9A0600028CD
:104E58000BD00E23C35623610023C36602F0D0F89B
:104E68002900094800F09EFBE4E7E060002DE1D14D
:104E780062B6BFF36F8FDDE716204042DBE7012003
:104E8800FBE7C0469C120020EB12002070B504001E
:104E9800EFF3108572B602F020F9002808D000233D
:104EA800C36602F0ADF82900084800F07BFB70BD2E
:104EB800A268E3689B1A591E8B419B18A360002DBA
:104EC800F5D162B6BFF36F8FF1E7C046EB12002051
:104ED80013B50400EFF3108172B68068002808D07B
:104EE8000138A060002902D162B6BFF36F8F00209D
:104EF80016BD1000184307D1002902D162B6BFF3CE
:104F08006F8F10204042F3E700920193220002487D
:104F180000F0DAFAECE7C046EB1200201FB502AC4D
:104F28002200074B03CB03C2012380220549064810
:104F380000945B42D20000F009F9002004B010BDD3
:104F4800BC740010F026002080080020F0B5050091
:104F580087B0EFF3108772B62E002C6F8836002CBE
:104F680013D10221300001F0C7FF00285DD10023D2
:104F78002A00029301235B42DC1739000093019455
:104F880078323C4800F02EFCE3E723686A6F2B6711
:104F9800944200D16B6702223368134333600423C1
:104FA800E2689A43033B1343E3606368002F46D0EB
:104FB80020009847EFF31083059372B6E368012148
:104FC8001A008A43100908423DD1E260E3689A0753
:104FD8001AD502229343E360274B1868002813D0A0
:104FE8000021026800280FD04768BC4239D1026806
:104FF800002930D159681A60814200D15A600023D3
:1050080003600830FFF742FF022233689343059A92
:105018003360DB05DB0F002A02D162B6BFF36F8F66
:10502800002B96D100F038FB93E72C008034002247
:105038000121200002F09BF80028F8D197E762B61A
:10504800BFF36F8FB4E711229343E3602000103061
:10505800FFF71CFFBAE70A605A688242CFD159604D
:10506800CDE79446002A01D011688C460100100053
:105078006246B7E7EB120020BC120020F7B5C36800
:105088000D00590801220F000400174011424BD1AE
:105098009B0813421DD12B68002B01D183682B601C
:1050A8000127E3683B4202D0A368FF192B602E68F2
:1050B800002E47D03200244B88329B680192B342BD
:1050C80022D00121126893080B400A4204D1132709
:1050D8007F4200232B6015E0002B25D1D3080B401D
:1050E800002B21D100232360736F002B27D1746715
:1050F8003467300001F00CFF0423E2681343E360D7
:105108002B68A3603800FEBD01F02FFF019B012230
:105118001B6800280AD1D90811401342D7D00029AA
:10512800E0D09B081342DDD11027D1E79908114040
:105138001342CCD00029F7D1DB081340D0E71C601C
:105148007467D6E71627C3E79C120020F0B5040061
:1051580000202067606720002600783089B0A067AB
:10516800E0678036201D0E9DC6670430C6670120A3
:10517800002D07D0287946427041FF264042B043AF
:105188000230FF3026008836306001267642F71755
:105198000696079700260F48039304960300029685
:1051A80020000196009400F051F8B5420CD029680F
:1051B800B14202D0200001F0DEFE6B79002B03D053
:1051C8000123227B13432373200001F0D9FE09B089
:1051D800F0BDC046554F0010F0B587B005930300E9
:1051E80058338365C365109B072703730423002581
:1051F8000732BA434373D2190F9BBA4383738B1890
:105208000E0085601900C5738561C56104000493AB
:10521800FDF792FE049BC019B8431F1A0E9B3A0073
:1052280002930D9B310001930C9B20000093059B7A
:10523800FEF74EF8044B65659B68AB4200D01B6EC9
:105248003800236607B0F0BD9C12002070B504003A
:10525800002086B005900E98119D04900D98109E20
:1052680003900C9802900B9801900A9800902000E7
:10527800FFF7B2FF2B00721C01D1013305D02B00C0
:10528800334305D1200000F0A3F9200006B070BD1B
:10529800200032002B000249183000F09BFBF4E795
:1052A800AD70001070B50E4D0E4BAC699C4201D02C
:1052B800002C00D1EC68AB68002808D15A7BD206D4
:1052C80005D1A269002A02D1DA897F2A05D89C4231
:1052D80002D0200000F0C8FA23006B6170BDC04600
:1052E8009C120020B41200200D2210B58256040032
:1052F800437B002A04DA7F221340437301F044FE03
:10530800034B9868001B43425841FFF7CBFF10BD81
:105318009C1200200D2370B5C356417B002B26DB61
:10532800CB0624D18369002B21D1802252420A4323
:105338004273114A114C9169A14200D00B00D16906
:10534800002B04D1046041600860D0610CE00E2598
:105358000E2645579E57B5420AD0AE4208DD5A6818
:1053680003604260106058600020FFF79BFF70BD2B
:105378009942E7D01B68E3E79C120020B412002092
:10538800F8B504000E001025002A00D0083D637B04
:105398002B420FD12B435AB2002A17DB6373082D17
:1053A8001BD00120FFF77EFFBFF35F8F6022637B76
:1053B80093436373244B9B68A3423FD1EFF3058368
:1053C800002B3BD13000FDF7BDFEF8BD7F22134016
:1053D8002000637301F0D8FDE1E7A368002B02D039
:1053E800200001F0D9FD20002700183001F0DDFE73
:1053F8005837A56DAF4201D0002D12D1124DAB68C0
:105408009C42CED1EFF30583002BCAD00120FFF7D1
:1054180049FF02220D4BFF329A810022AB601A66C7
:10542800C2E7280001F0B8FD2800183001F0BDFEE1
:1054380000232800EB66FFF76DFFDAE7002EC4D1E2
:1054480062B6BFF36F8FC0E79C12002010090020DE
:105458000D2270B582560400437B002A04DA7F22AD
:105468001340437301F090FD8023627B5B4213433A
:10547800134A637393691348834200D10023D169A7
:10548800002B04D1206061600C60D4610CE00E2513
:105498000E2665579E57B5420DD0AE420BDD5968B2
:1054A800236061600C605C609068001B4342584157
:1054B800FFF7F8FE70BD9942E4D01B68E0E7C046EC
:1054C8009C120020B4120020F7B5009111000F4A79
:1054D8000F4B9068089E099D1860EFF3108372B611
:1054E800370094680195200001F061FD013702D171
:1054F8002B00013306D0200032002B00054918305C
:1055080000F068FA0098FDF71DFEFEBD9C12002011
:10551800C4120020AD700010F8B50400EFF3108736
:1055280072B6437B4EB2DA061BD18569002D18D1BD
:105538007F221340437301F027FD8023627B5B4287
:1055480013436373154BA6739A6915498A4200D0B1
:105558001500DA69002D0CD1216062601460DC61ED
:1055680012E00020A673002F02D162B6BFF36F8F3E
:10557800F8BD0E20285686420BD0B04209DD6B6874
:10558800256063601C606C600120FFF78BFE0120C2
:10559800E9E7AA42E0D02D68DCE7C0469C1200206B
:1055A800B412002010B500290AD1EFF305800028B5
:1055B80007D1064B9A685B699A4202D0FDF7C2FD93
:1055C80010BD62B6BFF36F8FFAE7C0469C12002089
:1055D80010B5EFF3108472B60422437B134205D151
:1055E800002C02D162B6BFF36F8F10BD9343437393
:1055F800FFF790FE21000248FFF7D4FFF5E7C04609
:10560800EB12002010B500280AD1EFF3058000281E
:1056180007D1064B5A699B689A4202D0FDF792FD62
:1056280010BD62B6BFF36F8FFAE7C0469C12002028
:10563800EFF3108172B6054B9A68D37B013BD373A5
:10564800002902D162B6BFF36F8F70479C12002009
:1056580010B5EFF3108472B6094B00209A68D37B1B
:105668000133D373FFF71EFE002C02D162B6BFF3DD
:105678006F8FEFF3108072B6FFF7C4FF10BDC046FE
:105688009C120020024B034A9A61DA617047C046B7
:105698009C120020B4120020F8B5EFF3108572B602
:1056A8007F22194CA068437B1340437301F06CFCC4
:1056B8008022A3685242597B14480A435A73A2694C
:1056C800824200D10022E169002A04D118605960A1
:1056D8000B60E3610CE00E260E279E57D757BE429B
:1056E8000DD0B7420BDD51681A6059600B605360EA
:1056F8000120FFF7D7FD2800FDF724FDF8BD8A42F9
:10570800E4D01268E0E7C0469C120020B4120020E2
:105718000300F7B50B4304000D00002B03D1FFF77E
:10572800BBFF0020FEBD4B1C2EDB4B1C01D1831C94
:105738002AD301F04DFD2718EFF31083019372B6B9
:10574800134E144BB0681860FFF7CEFDB068220006
:105758002B001149183000F03DF91023B268019868
:10576800517B0B435373FDF7EDFC01F031FD002332
:105778003A0004001D00121BAB41AB4202DCD0D141
:10578800AA42CED01000CDE702277F423F1BD3E7C5
:105798009C120020C4120020AD70001010B50B0040
:1057A8000C00421C07D1013305D10A4B986801F05F
:1057B80033FC200010BD2100FFF7AAFF00210200E2
:1057C800C3170920801859410A220023FAF7D6FD89
:1057D800F0E7C0469C120020014B98687047C0460D
:1057E8009C12002073B5069D079E089C00950196A3
:1057F800FFF76AFE002C03D0024B9B685B692360AD
:1058080076BDC0469C1200200121044B044AC01AF0
:10581800044BC0104343D1547047C0468009002050
:10582800EB120020ABAAAAAAC289030000207F2A93
:1058380011D80A4A106800280DD00E21084A595676
:1058480012680020914206DB5A7BD20603D1054834
:10585800181A431E9841012318407047CC120020A3
:10586800C8120020A007002070B518240C4B0500B2
:105878001E7C0C4B7443E418200001F096FC0022B7
:10588800094B28009A55FFF7CFFF002807D0074B90
:1058980020001A680649013AD31700F09BF870BD3A
:1058A8009C12002080090020EB120020CC1200205E
:1058B8001158001070B5EFF3108572B6104A114BED
:1058C80094681868A04207D1FFF7CEFF002D02D1D7
:1058D80062B6BFF36F8F70BD00211960127C0A4B4E
:1058E8009B5C8B42F2D02000FFF79EFF0028EDD092
:1058F800637BDB0602D12000FFF7AAFD2000E3E767
:105908009C120020C4120020EB12002010B506489B
:10591800064A0749121A01F0CBFA064A064907480F
:1059280001F0C6FA10BDC046000000206D0200203C
:1059380020830010000000002083001000000020D9
:10594800002010B5034B1B68834201D1FEF706FE09
:1059580010BDC046D012002030B500280ED00B4B29
:105968005B6898420AD00168002907D00A694B6928
:105978000469456912196B410A614B610368426801
:1059880013605A6000230360436030BD4C00002060
:1059980070B50E4B1E689E4203D1FFF7D1FF0C482D
:1059A80070BDFFF7CDFF002EF9D03269736904008E
:1059B800C517121BAB41002BF1DC03D1802109066E
:1059C8008A42ECD2D843C0171040E9E74C000020C7
:1059D800FFFFFF7FF7B5040016001F00531C01D11D
:1059E8007B1C5BD0A160EFF31083019372B6002F8C
:1059F80023DA7B1C01D1B31C1FD82D4B18685968BA
:105A080002225242D317121A8B41921BBB41002B20
:105A180004DC01D1002A01D101220023254F226193
:105A280063613D68BD4200D100257E68002D0FD11D
:105A38002760666034607C601CE0FFF781FF01220C
:105A4800002392197B410600C71792197B41E5E7AD
:105A58002869696922696369994202DC1FD1904209
:105A68001DD9801A99416B68286169616360256056
:105A78001C606C603B68BB420AD09C4208D10E4B4C
:105A88001C68002C04D1FFF783FF2100FEF7DAFC25
:105A9800019B002B02D162B6BFF36F8FF7BD121ABC
:105AA8008B4122616361B542C2D02D68BEE7C04612
:105AB800980900204C000020D0120020F0B585B0D5
:105AC800EFF3108372B60293304B1860304B1C68AA
