:020000041000EA
:10000000D3DEFFFF420121100302000000020010B6
:0C001000FF03000000000000793512AB77
:1001000000000000000000000000000000000000EF
:1001100000000000000000000000000000000000DF
:1001200000000000000000000000000000000000CF
:1001300000000000000000000000000000000000BF
:1001400000000000000000000000000000000000AF
:10015000000000000000000000000000000000009F
:10016000000000000000000000000000000000008F
:10017000000000000000000000000000000000007F
:10018000000000000000000000000000000000006F
:10019000000000000000000000000000000000005F
:1001A000000000000000000000000000000000004F
:1001B000000000000000000000000000000000003F
:1001C000000000000000000000000000000000002F
:1001D000000000000000000000000000000000001F
:1001E000000000000000000000000000000000000F
:1001F00000000000000000000000000000000000FF
:10020000481800200528001087550010F12700101D
:10021000F1270010F1270010F1270010F12700103E
:10022000000000000000000000000000BD280010D9
:10023000F1270010000000006928001009320010AA
:10024000112A0010112A0010112A0010112A001082
:10025000112A0010112A0010112A0010112A001072
:10026000112A0010112A0010112A0010112A001062
:10027000112A0010112A0010112A0010112A001052
:10028000112A0010112A0010112A0010112A001042
:10029000112A0010112A0010112A0010112A001032
:1002A000112A0010112A0010112A0010112A001022
:1002B000112A0010112A0010112A0010112A001012
:1002C000112A0010112A0010112A0010112A001002
:1002D000112A0010112A0010112A0010112A0010F2
:1002E000112A0010112A0010112A0010112A0010E2
:1002F000112A0010112A0010112A0010112A0010D2
:10030000112A0010112A0010112A0010112A0010C1
:1003100080F0004002E000BF81F0004142001FBFBA
:100320005FEA410392EA030F7FEA226C7FEA236CC3
:100330006AD04FEA1262D2EB1363C1BFD2184140B8
:1003400048404140B8BF5B42192B88BF704710F04E
:10035000004F40F4000020F07F4018BF404211F0F1
:10036000004F41F4000121F07F4118BF494292EA59
:10037000030F3FD0A2F1010241FA03FC10EB0C0085
:10038000C3F1200301FA03F100F0004302D5494212
:1003900060EB4000B0F5000F13D3B0F1807F06D3BF
:1003A00040084FEA310102F10102FE2A51D2B1F1B7
:1003B000004F40EBC25008BF20F0010040EA0300AC
:1003C0007047490040EB0000013A28BFB0F5000F2C
:1003D000EDD2B0FA80FCACF1080CB2EB0C0200FAE2
:1003E0000CF0AABF00EBC25052421843BCBFD04031
:1003F0001843704792F0000F81F4000106BF80F4AB
:1004000000000132013BB5E74FEA41037FEA226C6D
:1004100018BF7FEA236C21D092EA030F04D092F038
:10042000000F08BF0846704790EA010F1CBF00206C
:10043000704712F07F4F04D1400028BF40F00040C9
:10044000704712F100723CBF00F50000704700F0E9
:10045000004343F0FE4040F4000070477FEA226210
:1004600016BF08467FEA23630146420206BF5FEAE1
:10047000412390EA010F40F4800070474FF00003E1
:1004800004E000BF10F0004348BF40425FEA000CA8
:1004900008BF704743F0964301464FF000001CE050
:1004A00050EA010208BF70474FF000030AE000BFA6
:1004B00050EA010208BF704711F0004302D54042E4
:1004C00061EB41015FEA010C02BF84460146002056
:1004D00043F0B64308BFA3F18053A3F50003BCFA71
:1004E0008CF2083AA3EBC25310DB01FA02FC63441E
:1004F00000FA02FCC2F12002BCF1004F20FA02F225
:1005000043EB020008BF20F00100704702F1200217
:1005100001FA02FCC2F1200250EA4C0021FA02F278
:1005200043EB020008BF20EADC7070474FF0FF0C7D
:100530001CEAD0521EBF1CEAD15392EA0C0F93EA78
:100540000C0F6FD01A4480EA010C400218BF5FEA1A
:1005500041211ED04FF0006343EA501043EA51118D
:10056000A0FB01310CF00040B1F5000F3EBF490087
:1005700041EAD3715B0040EA010062F17F02FD2A8B
:100580001DD8B3F1004F40EBC25008BF20F001006E
:10059000704790F0000F0CF0004C08BF49024CEA85
:1005A000502040EA51207F3AC2BFD2F1FF0340EA17
:1005B000C250704740F400004FF00003013A5DDC88
:1005C00012F1190FDCBF00F000407047C2F10002C9
:1005D000410021FA02F1C2F1200200FA02FC5FEAB6
:1005E000310040F1000053EA4C0308BF20EADC7000
:1005F000704792F0000F00F0004C02BF400010F472
:10060000000F013AF9D040EA0C0093F0000F01F01E
:10061000004C02BF490011F4000F013BF9D041EA40
:100620000C018FE70CEAD15392EA0C0F18BF93EA42
:100630000C0F0AD030F0004C18BF31F0004CD8D16C
:1006400080EA010000F00040704790F0000F17BFF3
:1006500090F0004F084691F0000F91F0004F14D039
:1006600092EA0C0F01D142020FD193EA0C0F03D191
:100670004B0218BF084608D180EA010000F0004094
:1006800040F0FE4040F40000704740F0FE4040F46F
:10069000400070474FF0FF0C1CEAD0521EBF1CEA0E
:1006A000D15392EA0C0F93EA0C0F69D0A2EB03022C
:1006B00080EA010C49024FEA402037D04FF08053C6
:1006C00043EA111143EA10130CF000408B4238BF8B
:1006D0005B0042F17D024FF4000C8B4224BF5B1A99
:1006E00040EA0C00B3EB510F24BFA3EB510340EAE7
:1006F0005C00B3EB910F24BFA3EB910340EA9C0095
:10070000B3EBD10F24BFA3EBD10340EADC001B0104
:1007100018BF5FEA1C1CE0D1FD2A3FF650AF8B42A8
:1007200040EBC25008BF20F0010070470CF0004CB5
:100730004CEA50207F32C2BFD2F1FF0340EAC250E0
:10074000704740F400004FF00003013A37E792F0A1
:10075000000F00F0004C02BF400010F4000F013AFF
:10076000F9D040EA0C0093F0000F01F0004C02BFFA
:10077000490011F4000F013BF9D041EA0C0195E763
:100780000CEAD15392EA0C0F08D142027FF47DAFFC
:1007900093EA0C0F7FF470AF084676E793EA0C0FEC
:1007A00004D14B023FF44CAF08466EE730F0004CEA
:1007B00018BF31F0004CCAD130F000427FF45CAF7A
:1007C00031F000437FF43CAF5FE700BF4FEA4002E7
:1007D000B2F1FE4F0FD34FF09E03B3EB12620DD96F
:1007E0004FEA002343F0004310F0004F23FA02F0D9
:1007F00018BF404270474FF00000704712F1610F80
:1008000001D1420205D110F0004008BF6FF0004056
:1008100070474FF00000704753B94AB9002908BF2C
:1008200000281CBF4FF0FF314FF0FF3000F00CB834
:10083000ADF1080C6DE904CE00F010F8DDF804E02D
:10084000DDE9022304B07047704700BF034613F888
:10085000012B002AFBD1181A013870472DE9F04707
:1008600086468C460846089E154674461946002B57
:1008700040F0C1808542B2FA82F245D94AB1C2F154
:10088000200300FA02FC954094402EFA03F343EA59
:100890000C0C4FEA154EA8B2230CBCFBFEF80EFB65
:1008A00018CC08FB00F943EA0C43994528D9EB180A
:1008B00008F1FF3704D2994502D9A8F102072B4469
:1008C000A3EB0903A4B2B3FBFEFC0EFB1C330CFB31
:1008D00000F044EA0344A04214D92C190CF1FF3370
:1008E00004D2A04202D9ACF102032C44241A43EAF8
:1008F00007401EB1D440002334607360BDE8F08728
:100900004746DDE76346F1E792BB431B01214FEA0F
:10091000154EAFB2200CB3FBFEFC0EFB1C330CFBE0
:1009200007F840EA0343984561D9EB180CF1FF3012
:1009300004D2984502D9ACF102002B44A3EB080382
:10094000A4B2B3FBFEFC0EFB1C330CFB07F744EA1E
:100950000344A7424DD92C190CF1FF3304D2A7420E
:1009600002D9ACF102032C44E41B43EA0040C0E787
:10097000C2F120039540944020FA03F12EFA03F3CC
:100980004FEA154E9040AFB20343B1FBFEFC0EFBA5
:100990001C10190C0CFB07F841EA0041884522D9CC
:1009A00069180CF1FF3004D2884502D9ACF102007D
:1009B0002944A1EB08019BB2B1FBFEFC0EFB1C110C
:1009C0000CFB07F743EA01439F420ED9EB180CF1E9
:1009D000FF3104D29F4202D9ACF102012B44DB1B50
:1009E00041EA004193E76046E3E76146F7E7604686
:1009F000A4E76346B8E7834206D916B90021084642
:100A00007CE7C6E900E0F9E7B3FA83F78FB98342E0
:100A100001D3724508D8BEEB020460EB030301204A
:100A20009C461EB9002169E73846FAE7C6E9004C42
:100A3000F8E7C7F1200CBB400EFA07F522FA0CF4D8
:100A40002EFA0CF1BA401C4320FA0CF3B8404FEADE
:100A5000144901431FFA84FEB3FBF9F809FB18306F
:100A60000B0C08FB0EFA43EA00439A4540D9E31801
:100A700008F1FF3004D29A4502D9A8F102002344BC
:100A8000A3EB0A0389B2B3FBF9F809FB183308FB9F
:100A90000EFE41EA03418E452CD9611808F1FF335F
:100AA00004D28E4502D9A8F10203214443EA004052
:100AB000A1EB0E01A0FB02984145CE46434602D36E
:100AC00006D14D4504D20138B9EB020E68EB0403A0
:100AD000002EA7D0B5EB0E0261EB030101FA0CFC6E
:100AE00022FA07F3F9404CEA0303C6E9003199E71B
:100AF0004046C5E74346D9E710B403460A460348D3
:100B000081680C691946234610BC18478C63001095
:100B100070B5044600250A4E01221921304603F023
:100B2000E0FF962003F0EDFF00221921304603F08C
:100B3000D8FF0135962003F0E4FFA542ECD170BD4B
:100B40006C6300102DE9F04F8DB0002144F6206059
:100B500005F099FA854804F031F9854804F02EF93A
:100B6000844804F02BF9844804F028F9834804F001
:100B700025F9834E304605F0A5F978B9814804F08F
:100B80001DF933680193304605F09CF9019902463E
:100B90007D4804F013F96FF0120022E031687B48C1
:100BA00004F00CF97A4804F009F97A4C204605F073
:100BB00089F918B9784804F001F9ECE72269A168CD
:100BC0001368204623F0007313600B684FF4C022B3
:100BD00019219847002807DA704804F0EFF86FF001
:100BE00004000DB0BDE8F08F19216D4804F0E6F85F
:100BF0005E4804F0E3F85E4804F0E0F8694804F069
:100C0000DDF85D4804F0DAF80027DFF89C81DFF8B2
:100C10009C91B36840213046DB6898470146002824
:100C200040F0988042F2107A0D2002A9FFF764FF8D
:100C3000102004A9FFF760FF412006A9FFF75CFF21
:100C40001A2008A9FFF758FF0AA94220FFF754FF0E
:100C500057480A9C04F0B2F8039A029992FBFAF200
:100C6000544804F0ABF8059A049992FBFAF2524802
:100C700004F0A4F80699514804F0A0F8E5B20899E8
:100C80004F4804F09BF829464E4804F097F8002D91
:100C900051D0AF424FD0354804F090F8344804F0BA
:100CA0008DF8494804F08AF8314804F087F847483D
:100CB00004F084F814F0010B02D0454804F07EF8EB
:100CC000A20702D5434804F079F8E30602D542486A
:100CD00004F074F814F0040A02D0404804F06EF8EE
:100CE00042F21077214804F069F83D4804F066F8B4
:100CF000039A029992FBF7F23A4804F05FF8059ADA
:100D0000049992FBF7F2384804F058F806993748EE
:100D100004F054F80899364804F050F8354829464C
:100D200004F04CF8144804F049F8BBF1000F07D068
:100D30000120FFF7EDFE642003F0E3FE2F4668E795
:100D400014F0120F01D00220F3E7BAF1000FF2D035
:100D50000320EEE710F10B0F04D1484604F02EF803
:100D60003D46E8E7404604F029F8F9E7BB68001083
:100D70004C6800107668001092680010BD68001082
:100D80008C630010E36800100A69001029690010E4
:100D90004E6900106C6300106F69001092690010BA
:100DA000BD690010E4690010B16B0010846B001085
:100DB000066A00100E6A0010216A0010396A0010DD
:100DC000466A0010596A0010686A0010826A0010B2
:100DD000896A00109D6A0010C06A0010E06A001065
:100DE000FC6A0010146B00102D6B0010476B001094
:100DF000596B00106E6B001008B50B461A2B016979
:100E000037D00BD80D2B10D0102B21D01A48012130
:100E10001A4A04F0FCFA6FF0850018E0412B23D049
:100E2000422BF3D191F8343020E06420B1F92C301A
:100E300093FBF0F31360B1F92C3093FBF0F100FB5E
:100E400011331BB242F210714B430020536008BDB6
:100E50006420CB8DB3FBF0F31360CB8DB3FBF0F1CB
:100E600000FB11339BB2EDE791F8303013600023A3
:100E7000EBE74B8EFAE700BF18660010DE6B001040
:100E800037B505460C69AB685B6C002B36D1AB6897
:100E90005B6B002B38D1AB689B69002BF3D0012230
:100EA00028460DF1070198470128ECD1A27B9DF857
:100EB000073022B9AA2BE6D12371A073E3E7511CB6
:100EC000C9B222440A29A1731371DCD1552B0FD169
:100ED0006368C4F80F30A368C4F81330A389A4F87A
:100EE000173004F11C0002F059FD0023A373CAE778
:100EF0000221084A084804F08AFAF6E7284698478B
:100F00000028C4D103B030BD284698470028C2D17C
:100F1000F8E700BFF66B0010186600102DE9F047E7
:100F200081460469456800AF4FF0000A0321394A41
:100F3000394804F063FA2B6884F80EA023604BB99B
:100F40000121364A344804F059FA6FF01200BD46C8
:100F5000BDE8F0876D4688B06A461B684FF400789C
:100F60002F49304EC2E90513A2F81C8042F8106FD9
:100F70004FF4E6515346284800F0CAFEAD46012220
:100F8000514604F11C0004F0D6FF206804F09AFFDB
:100F9000034688B9226888B011686A462248A2F8D8
:100FA0001C80C2E9050142F8106F4FF4E2511A4863
:100FB00000F0AEFEAD46C8E7174803211B4A04F017
:100FC0001DFA2068836823B19B6C13B14A46184907
:100FD0009847206883689B6A03B198470321154AA4
:100FE0000D4804F00BFA23686C4688B06A461B680B
:100FF0001149C2E905134FF400739383094B42F87A
:10100000103F054800234FF4E65100F081FE002018
:10101000A5469CE7186C001018660010366C00108E
:10102000616C001003000001886C0010B06C0010AF
:10103000810E0010D06C0010016D00102DE9F04FF2
:1010400091B0009302F004030293C2F3C203013390
:10105000840705460E46DDF868800392059340F04C
:10106000BB81041D30B1072909D86FF01B0011B0F6
:10107000BDE8F08F01F007063444C6F10806009B76
:101080004FF000094FF0040A591E4FF0FF334F464E
:101090000193CB465346CDF810900DB1009A2260D3
:1010A0000598002800F3E8809848009A824203D30C
:1010B00097488242C0F0E080039AA4EB050E9207A5
:1010C0004FEA9E0000F103810F2F00F2B180002D46
:1010D00000F0058107F140020DEB020C019A0CF8BB
:1010E000200C0CF8102C049801300490E7E07A28CA
:1010F0005DD84B280ED8472859D829282DD825281F
:1011000052D054D820287AD02338D0F1000B4BEBA2
:10111000000B74E04C382E2849D8DFE800F0704806
:10112000484848484848484848484B48484848483C
:1011300048484859484B4B595959704B6D4870486D
:10114000184B184848827F4B48484B487F00002086
:101150004FF0000B4FF0040A38E001222A38C0B2E9
:1011600002FA00F010EA0E0F49D110F0625C2FD1A4
:1011700010EA020B43D06046013C5444B4FBFAF43D
:101180000AFB04F4002D61D0A3EB050CA444B44584
:101190003FF66BAF002868D1042B47D158F8043BC9
:1011A0002360042304342AE0019A013A01924FF0AB
:1011B000000B24E011F8010C6C2834D1002011F848
:1011C000023C83466C2BC5D14FF0080A5346D3E747
:1011D00008F1070828F00708073424F00704F8E8A6
:1011E00002AB35B106982044B0423FF63EAFC4E9A9
:1011F00000AB4FF0000B08344FF0080A534611F8CB
:10120000010F002878D0BBF1000F7FF470AF2528C4
:10121000F5D14FF0010B019B013301934FF0040A0C
:10122000ECE7584694E700208346A5E7082B02D058
:101230006FF015001BE708F1070828F00708F8E829
:101240000223C4E9002308230834D8E768B9042B33
:1012500002D108F10408A4E7082BE9D108F1070836
:1012600028F0070808F10808EDE7059A013A059209
:1012700058F8042B009210E7039A900720D54FF0FE
:10128000010CA4EB050E4FEA9E00BEF5007FCFD205
:101290000F2FCDD8F5B107F140020DEB020E019AE8
:1012A000C0B20EF8200C0EF8102CBCF1000F3FF469
:1012B0001AAF60F07F000EF8200C09F10109013728
:1012C000C5F108024FF6DA7E0434069297E74FF034
:1012D000000CDAE7BCF1000F01D00136EFE702980D
:1012E00002360028EBD10098CDE90631FFF7AEFABF
:1012F000DDE906310644E2E7631BB3F5806F97D260
:1013000045B9A6F10804E018B1E600BFC4620010B8
:10131000C8740010029A9B0828602B709DF810304A
:10132000C2B1EB7085F80290B9F1000F05D0002230
:1013300008A8C5F1010C97420ED14FF0000AC5F183
:1013400001030DF1200801930DF1300B574512D127
:10135000601B8CE66B70E5E710F8013B190608D5B9
:101360000CEB040EB64503F07F033FF67EAE04F8A7
:10137000013B0132DFE7B9F1000F03D098F90020FB
:10138000002A17DB029BD3B11AF80B2004F8012BBB
:101390000022019B18191044B0423FF666AE98F83F
:1013A0000000009904F8010B2046039204F000FFAE
:1013B000039A14440AF1010A08F10108C6E798F8F3
:1013C000002055F822300093029B009845F8223007
:1013D000FFF73CFA421CDCE76FF00D0047E600BF68
:1013E0002DE9F04F97B000AFD7F880B07B62CBF318
:1013F000C0030446894690F802A0FA62BB6141B975
:10140000457800780AEB800020444D4517D8A0EBC2
:101410000409E378FB61BAF1000F02D01BF0010F61
:1014200016D1FB6953BBFB6A1BB1494620467A6A59
:1014300098474D4628465C37BD46BDE8F08F461CB0
:101440003046FFF703FA0130304409F10109DCE7C7
:1014500062682378BA62FA6A9900796104EB8301C1
:10146000002A40F001810E464FF000084D4601EB86
:101470000A094E454CD101EB0A0610E01BF0020FA1
:10148000D1D023789A007A61626804EB8301BA6252
:10149000FA6A002A77D14D46904601EB0A061BF006
:1014A000050F0CBF02230123FB62FB6906EB430A15
:1014B0000BF002037B625645BCD016F8021B16F8EF
:1014C000013C54F823909A4B994502D3994B994586
:1014D00036D3BB69002B40D0B86A03F048FC002823
:1014E0003BD0E9468AB06A46934B5361BB6AC2E976
:1014F00006314FF400731384904B42F8103F0023E1
:101500004FF412518E4800F003FC023DCD46D2E765
:1015100016F8013BF96254F82300FFF797F9D7F862
:101520008430F96A01304BB1D7F8883098453EBF16
:10153000D7F8843023F8180008F10108054498E72B
:10154000BB6923B1B86A03F012FC0028C9D11BF0B3
:10155000010F05D1FB6AED1AADE77B6A002BAAD01B
:101560004846FFF773F9D7F8843053B1D7F888307D
:1015700098453FBFD7F88420431C22F8183008F163
:101580000108054497E7BAF1000F73D01BF0040679
:1015900073D0D046002607F1480052463B613962BD
:1015A00004F006FE396A3B6901EB0A023A62FA6905
:1015B0005200FA60D7E9071202EB41023A610BF0E0
:1015C0000202BA603A69396A8A4258D162781BF0DD
:1015D000020F18BF0021BA6208BF4FEA5801B218C3
:1015E0001BF0010FD2B240F0A1801BF0040F14BF1A
:1015F00040460020BB616270A070E17020467A6AAC
:101600007969FB6A9847051EFFF614AFBB6941462E
:101610002370BB6A7A6A6370FB6984F802A0E37086
:1016200007F14800FB6A9847B0F10008C0F2BC809F
:101630007B69A9EB0A01C91AFB687A6AC91A386A78
:10164000FB6A98470028C0F2B1804FF0000BA84415
:1016500008EB000507F1380AB34573D300217A6A15
:101660000846FB6A9847E5E656464FF0000807F142
:10167000380092E75646D04696E7B04694E73A6A75
:1016800012F8021B12F8015C3A6254F82500284A4D
:10169000904202D3274A904220D3BA6932B1B86A45
:1016A0007B6003F064FB7B6800288BD1BA6812BBB7
:1016B00008F1280208F1010007F1300CC0B294448F
:1016C0000CF8101C00F1280207F1300108F10208A3
:1016D00050185FFA88F800F8105C73E7BA693AB1FD
:1016E000B86A7B6003F043FB7B6800287FF46AAF35
:1016F0001BF0010F09D006F1280207F13000711C20
:10170000161806F8205CCEB25CE71BF0040F3FF41D
:1017100059AF08F1280207F1300008F1010102EB8E
:10172000000808F8105C5FFA81F84BE7002061E7D9
:10173000C4620010C8740010396D0010040000016C
:10174000E86500101BF80A3054F8239087F837300A
:10175000D7F884302BB3D7F888309B4521D2D7F8FF
:10176000843033F81B8001217A6AFB6A07F1370065
:10177000984700281ADB0544B8F1000F06D1484607
:10178000FFF764F800F101081FFA88F8414648465F
:101790007A6AFB6A9847002808DB05440BF1010BC5
:1017A0005AE74FF00008DEE7454643E6054641E6C6
:1017B000014B1860704700BF0000002080B505464F
:1017C0000E461746984602F0C7FB034604F070FD2C
:1017D0000446DFF81890424649F800303946304652
:1017E000A84754F8090001F029F800BF08000000DC
:1017F0002DE9F047044607464FF00109DFF8508015
:1018000014B93846BDE8F08794FAA4F5B5FA85F521
:1018100009FA05F32E0108EB05156FEA030A24EA1D
:1018200003042B7B002BEBD058F806301B694BB917
:101830004644736804222846196807EA0A0703F039
:101840006DFDDDE7284698470028D9D1F0E700BFB5
:101850002866001030B5002289B00F490F4804F007
:101860007FFC002200230024CDE906230E230C4D2B
:10187000CDE903344FF440722846CDE90144094BC9
:101880000949009402F01CF90849284604F065FB58
:10189000204609B030BD00BFB11800104805002037
:1018A000D0000020B51B001008080020F16D0010CA
:1018B000014802F073B800BFC00000202DE9F047D6
:1018C000804620480F4603F005FD0646002832D02A
:1018D00000252846BDE8F087237B83B12368DB68B9
:1018E0000BB120469847636883F8069023681B690C
:1018F000CBB9636804222046196803F00FFD013656
:1019000010345445E8D3B8F1000FE2D0002DDFD0F9
:101910002846FFF76DFF0546002FF7D00021642011
:1019200004F0B1FBF2E7204698470028E1D009FA1D
:1019300006F31D43E3E705464FF00109024CDFF8CB
:101940000CA0DEE74807002028660010386600106B
:10195000014B53F8200070479066001008B503460D
:1019600008462BB1044A136000F068FC002008BD53
:101970006FF01500FBE700BF0400002010B5044C19
:10198000237813B9034802F009F80123237010BD2E
:10199000FC070020C000002010B50446094803F0F1
:1019A00099FC3CB1084BD3E8EF1F0139C3E8E21FB3
:1019B000002AF8D1054804F0DFFBBDE810400448D8
:1019C00001F0ECBF4007002044070020480500203C
:1019D000C000002000200146034BD3E8EF0FC3E80E
:1019E000E21F002AF9D170474007002070B5FFF7C9
:1019F000F1FF0546074C084EB44200D370BD636842
:101A00005B792BB123685B6813B129462046984760
:101A10001034F1E7286600103866001010B5044C49
:101A20000449204603F0DCFA034B1C6010BD00BFE4
:101A3000840000207C6600103807002000230D4A37
:101A400010B513700C4A4FF47A7113600B4A0C48AE
:101A50001360FFF783FFFFF7E1FF0A4B0A491846BF
:101A60008B4200D310BD1A1A5C6812110132227128
:101A70001033F5E7FD070020400700204407002051
:101A8000E752001028660010386600100146002258
:101A90000023014803F0C5BA84000020014803F088
:101AA0005EBB00BF84000020024B0146186803F0B3
:101AB000AABB00BF38070020014803F0DFBB00BF0E
:101AC0008400002070B5244B1878002842D0FFF71E
:101AD000E5FF054600283AD1204B214C1B68002B1E
:101AE00012DD04F03BFB0A220023FEF795FED4E949
:101AF0000032C01A40F2E93361EB0201984271F101
:101B0000000101D3FFF772FFD4E9003213F57A73B5
:101B100042F10002C4E90032BDE87040FFF7CCBFDB
:101B200063685B7923B12368294620461B68984780
:101B30001034B442F4D32846FFF7B6FF094BD3E87C
:101B4000EF1F0139C3E8E21F002AC5D0F7E7064CB2
:101B5000064EEEE770BD00BFFC07002040070020E6
:101B60004005002044070020286600103866001059
:101B700070B50D4D297861B90120FFF79FFE0B4C20
:101B80000B4EB44206D3FFF79DFF0028FBD1012383
:101B90002B7070BD63685B791BB1236820469B681E
:101BA00098471034EDE700BFFD07002028660010BD
:101BB0003866001000212DE9F0470846FFF77EFE49
:101BC000044658B34FF4FA784FF0000904F070FB64
:101BD0001B4B1C4A1B58136033B11B4B1B68092B52
:101BE00002DD1A4801F0DAFE0025194FDFF85CA08B
:101BF00044B12046FFF7FCFD044618B94FF0FF380A
:101C00004FF0FF39FFF75EFF064628B9B5B94246E7
:101C10004B46504601F0F6FE3546E9E74FF0FF38F7
:101C20004FF0FF39D2E72B689B691BB10022284691
:101C3000114698471035BD42F5D3E8E7054DFAE760
:101C4000080000003C07002044070020C0000020DE
:101C5000386600102866001013B5184803F03AFBE8
:101C6000174B1B7873B1EFF31184102383F31288A1
:101C7000BFF36F8FFFF726FF84F31188BFF36F8FD9
:101C800002B010BD0F4B1B68002BF9D050B90022D9
:101C900000230D48CDE9002342F21072002302F028
:101CA0005BFCEDE70928EBD1074804F065FA07482B
:101CB00002B0BDE8104001F071BE00BF4407002033
:101CC000FD0700203C07002048050020C000002040
:101CD00010B5064B04461B6898472146A06004488F
:101CE00003F01EFABDE81040FFF7B6BF0400002065
:101CF00084000020044A054B9B1AB1EBD30F34BF7C
:101D000052F8310000207047E86500102866001086
:101D10002DE9F04F8FB0C1F34A2804AF0D4691462C
:101D2000B8607B600C0DB8F1000F63D000264FF057
:101D3000040B4FF00A0A07F11403C7F80C80C7E937
:101D400007667E620193CDF808B0CDF800A007F1D8
:101D50001C0332464846F968FFF742FBB0F5006FB6
:101D600003461CD36C468AB0D9F8041004AB26484D
:101D70001A46C3E9050140F2FF71D9614FF40071C1
:101D80001984224B42F8103F4FF412513346204839
:101D9000FFF7BEFFA5462C37BD46BDE8F08FC0F368
:101DA0000A0804F11700184420F0070080083B607F
:101DB000FFF76CFE68F35325044690B13B6800F1D1
:101DC0001001C7E9083607F11403F961CDE900A352
:101DD000CDF808B048460F4AF96807F11C03FFF731
:101DE000FFFA68F353252A4620467B68B96803F05A
:101DF000B5FAD0E704F1170020F007008008FFF7DC
:101E000045FE0446EDE700BF066E00100400000129
:101E1000F06500102F5300102DE9F04F87B00446F5
:101E2000DDE9105ADDE91279934698460391BFB176
:101E30003B46524610210020CDF80090CDF814907A
:101E4000FFF7FCF8B0F5006F06460AD340F2FF73C7
:101E50000221174A174807B0BDE8F04F03F0D7BA80
:101E60003E4605F11700304420F007008008FFF7D8
:101E70000DFE04F007040BF0070BE40044EA8B149A
:101E800044EA462444EA0554054640B13FB13B4686
:101E900052463146CDF800901030FFF7CFF8434658
:101EA00022462846039907B0BDE8F04F03F056BA22
:101EB000456E0010F0650010406820B1034BC01A59
:101EC00040F3CF0070474FF0FF307047E8650010D7
:101ED0000EB403B503AB53F8042B01460448019339
:101EE00000F0A8FD02B05DF804EB03B0704700BF3E
:101EF00059540010CA0605D48B064CBF0249034949
:101F0000FFF7E6BF704700BFBB6800107D6E001092
:101F10002DE9F04F89B09B46149B9DF84CA0069389
:101F2000159B04460593169B0D469046179E0493F9
:101F3000BAF1000F00F09D8006F48073079303F060
:101F4000EBF906F00209024600283ED020469149EE
:101F5000FFF7BEFF0746B9F1000F08D016F0440F97
:101F600035D12A4620468C49FFF7B2FF074406F0D8
:101F7000010353B1894B204653F82A20884B8949E5
:101F8000002A08BF1A46FFF7A3FF06F48073002B50
:101F900049D006F00803002B63D1B8F1000F66D0DA
:101FA000424620468049FFF793FF0546069B3D4485
:101FB000002B6DD1049B002B73D1F30700F1E4805B
:101FC00031462046FFF796FFD8E00746C3E7774B38
:101FD00018680028CAD0764B4FF47A791B684FF006
:101FE0003C0CB5FBF3F5B5FBF0F14FF4616300FB7E
:101FF000115509FB05F5B1FBF3F2B5FBF0FE03FB50
:10200000121100FB1E55B1FBFCF309FB05F5B5FBF6
:10201000F0F50CFB131120460091CDE901E565496F
:10202000FFF756FFA2E706F00803EBB1624B20462C
:1020300053F82A206149FFF74BFF0546B8F1000F1E
:1020400005D0424620465849FFF742FF0544BBF100
:10205000000FABD05A4620465949FFF739FF0544D7
:10206000A4E74FF0000BE1E706F00805E6E7454678
:102070009CE7BBF1010F069B06D1002B64D1049BAA
:10208000002B7BD000250CE0002BF8D04D485CE005
:102090004D48069B22464D4902F038FE049B002B1A
:1020A00068D0DFF82C81DFF82C91049F3146102F87
:1020B000204628BF10274FF0000BFFF71BFF5D45A0
:1020C00045DC059B494620461A78FFF701FF4FF093
:1020D000010B1BF0070F03D141462046FFF7F8FE26
:1020E0005F453BD9059B4946204613F80B20FFF777
:1020F000EFFE0BF1010BBBF1100FEAD14FF0000B1B
:1021000020463549FFF7E4FE5A46059B20469A5C77
:10211000A2F120015F2928BF2E223049FFF7D8FE07
:102120000BF1010BBBF1100F1DD01BF0070F03D1FA
:1021300041462046FFF7CCFE5F455A46E5D841466A
:102140002046FFF7C5FEEBE71F485546A1E741468D
:102150002046FFF7BDFE0BF1010BB0E720462049FA
:10216000FFF7B6FEC5E7059B3B440593049BDB1BCD
:1021700004939AD1BAF1000F7FF41FAF204609B043
:10218000BDE8F04F03F05BB92046054A0549FFF76B
:102190009FFE15E7856E0010896E0010A066001086
:1021A000806E0010856C0010AE6E0010500700208D
:1021B0004C070020926E0010B4660010B26E001042
:1021C000B86E00108754001059540010352A0010C2
:1021D000C56E0010BD6E0010C76E0010C96E0010F5
:1021E000C36E001042F20F7373B58B4228BF0B46CB
:1021F00005680446052168460D4A02F0EBF90646DB
:10220000636828460B225B680A4903F00AF9636891
:102210003246694628465B6803F003F963681B226F
:1022200028465B68044903F0FCF802B070BD00BFAB
:10223000F36B0010E86E0010CC6E0010002101233B
:10224000064A904206D8064A01B901231360054B9D
:1022500018607047012140085B00F2E740420F0020
:102260004C07002050070020F8B50D460446064FE5
:102270004618B44201D12846F8BD14F8011BBB68CA
:1022800001485B689847F4E74C6300102DE9F0477C
:1022900006460C4600AF002936D0D1E90012E946C7
:1022A0008AB06D46A3684FF0050AA8461F48C5E9E5
:1022B0000723C5E9050148F810AF002342464FF453
:1022C00021511B48FFF724FDD4E90312CD46636971
:1022D000AD461848C5E90723C5E90501C5F810A0B2
:1022E000002342464FF421511148FFF711FDCD461E
:1022F000E3690121104A0E4803F089F8A36901211E
:102300000E4A0B4803F083F8012E07D1EFF3058343
:102310000B4A31460648103B03F079F82146304617
:1023200001F0B2F9BD46BDE8F08700BF2E6F001086
:10233000106600105D6F00108C6F00109B6F001016
:10234000C96F001030BFFFF7FDBF00BF2DE9F0419E
:1023500005460B4EDFF82C80324606EB0807CC1BF7
:102360002046094903F024FFA01942460021083CF9
:1023700003F02BFF6C6607F10800BDE8F08100BF99
:10238000000000000400000038660010054B5A6988
:102390009B689A421FBF044A536843F080535360BE
:1023A000704700BFD007002000ED00E070B52A4C58
:1023B00006460D4629482A4903F0ECF8A36ADB06D5
:1023C00047D52648274903F0E5F81120A36A1C07E2
:1023D00004D52248244903F0DDF812201E4CA36ADC
:1023E000990712D521491D4803F0D4F8636BA26AFE
:1023F000120609D501211E4A184803F008F81EB13B
:10240000A36A23F08003A3621320134CA36ADE07A0
:1024100004D51248174903F0BDF81420A36A9C069E
:1024200004D50E48144903F0B5F815200A4B9A6AF2
:10243000D10658BF9A6A9A6A920642BF5A6A22F433
:1024400000525A629A6A42F0FF029A6200232B708D
:1024500070BD1020BAE700BF00ED00E0106600106C
:10246000DC6F0010F26F0010257000103870001043
:1024700050700010667000108570001010B5244C6C
:102480002449254803F086F8A36A99013ED52248DD
:10249000224903F07FF81E20A36ADA0104D51E4802
:1024A0001F4903F077F81F20194CA36ADB0204D5FB
:1024B00019481C4903F06EF82020A36A1C0304D5B8
:1024C0001548194903F066F82120114CA36A5903F5
:1024D00004D51148154903F05DF82220A36A9A0338
:1024E00004D50D48124903F055F82320084CA36A7F
:1024F000DB0304D508480F4903F04CF82420A36AF5
:102500006FEA03436FEA1343A36210BD1D20C3E7C4
:1025100000ED00E0B470001010660010CC700010E8
:10252000DF700010F970001023710010417100106D
:10253000667100108071001070B5294C06460D467A
:102540002848294903F026F8A36AD9043CD5254830
:10255000264903F01FF81720A36A1A0504D521485D
:10256000234903F017F818201D4CA36A9B0512D5C8
:102570001C48204903F00EF8A36BA26A100409D589
:1025800001211D4A174802F042FF1EB1A36A23F43D
:102590000043A3621920124CA36A590504D51148BF
:1025A000164902F0F7FF1A20A36ADA050ED50D4886
:1025B000134902F0EFFF1B20094A936A43F47F435B
:1025C000936200232B7070BD1620C5E7A36A9B049D
:1025D000F2D504480B4902F0DDFF1C20ECE700BFF8
:1025E00000ED00E010660010AB710010C17100102A
:1025F00025700010D2710010EB71001000720010F5
:102600001B720010857000102DE9F0418AB0654BF7
:102610000446D3F80480002600AFC8F3080586F30B
:102620001188BFF36F8F02F07F43B3F17F4F07D163
:1026300002F00C03082B12D15B495C4802F0AAFFA0
:10264000002634460023FB71EB1E092B00F2898023
:10265000DFE803F00A7F827B8787878787851007FB
:102660004CBF0C460126EDE75149504802F092FF5D
:1026700000234C4DFB71EB6A9A0705D54D494B4839
:1026800002F088FF002331E0EB6A002B01DA4A49AF
:10269000F5E7EB6A5B00F5D54849444802F07AFF5C
:1026A0006B69A26943F480736B61BFF34F8FBFF313
:1026B0006F8F6B6932F8022C23F480736B61BFF368
:1026C0004F8FBFF36F8F4DF602739A4207D0AB6AFC
:1026D000DBB26BB30120F91DFFF768FE37E023681A
:1026E0000121374A314802F092FE2368FA79DAB9BB
:1026F00007F1080504F1200C2A46206861680834B7
:1027000003C264451546F7D17A6A002E45D0C2F35C
:10271000080121B96FEA52226FEA42227A62184612
:1027200007F10801FFF7B2FD2837BD46BDE8F0818B
:10273000AB6A13F47F4F04D00120F91DFFF7FCFEB4
:1027400005E0AB6AB3F5803F9CD3FFF797FE0346E5
:10275000CCE70020F91DBFE70020F91DEEE719497D
:102760008DE7194A18F4F87FE8468AB0174B18BF6E
:1027700013466A461649103DC2E905134FF400732B
:102780001384144BD56142F8103F00234FF41151CC
:102790000648FFF7BDFAC54674E722F4FF7222F03F
:1027A0000102BBE700ED00E061720010106600104E
:1027B0008C720010A3720010C4720010D27200104C
:1027C000F17200100D730010487200103372001087
:1027D0003173001004000001044B5A6942F01002EA
:1027E0005A615A6922F008025A61704700ED00E010
:1027F000EFF30880EFF3098101B57246FFF704FF9C
:1028000001BD00BF0B4880F3088802F0EDFE1020E8
:1028100080F3118808484FF40061401880F309885C
:10282000EFF314800221084380F31488BFF36F8F05
:1028300000F088F848180020080B0020084B9B681F
:1028400083420BD1EFF3058343B1064B5A6842F044
:1028500080525A605A6A22F400425A6201F082BBE6
:10286000D007002000ED00E011498A684FF03000E9
:102870001044EFF3098C80E8F01F102080F31288D9
:10288000BFF36F8F0B4F4FF000664A698A603E605E
:10289000506E094C2060906E0023936680F311887F
:1028A00002F1300090E8F01F8CF3098870470000B7
:1028B000D007002004ED00E0780700201EF0040F90
:1028C0000CBFEFF30880EFF30980816911F8021C57
:1028D0000229FFD001B5724602F051FE01BD00BFD2
:1028E00040B2002807DB01234109034A00F01F0022
:1028F000834042F82130704700E100E040B20028F8
:1029000001F10101ACBF00F16040064B4FEA01113B
:10291000C9B2ABBF00F5614000F00F0080F80013B2
:102920001954704714ED00E0044B054A23F07F036F
:102930009360BFF34F8FBFF36F8F7047000200109B
:1029400000ED00E008B5FFF7EFFF0B4AD2F8883042
:1029500023F47003C2F88830EFF3148323F00403E8
:1029600083F31488BFF36F8F00F07AFF01F01CFC33
:1029700000F042F800F0B4FF00ED00E042F8203C27
:10298000009B0B4942F81C3C019B21F0010142F8DD
:10299000183C029B42F8081C42F8143C4FF080732C
:1029A00042F8043C0023203A02658366704700BF6A
:1029B000BD17001000B50B4B15469860426E0A4BD0
:1029C0000E461A602C4686F309880020034B984770
:1029D0002046002100220023014C2047A55500106D
:1029E000BD170010D0070020780700201022014BEF
:1029F0001A61704700ED00E0002310210348C2185F
:102A00000133342B82F80013F9D1704700E100E064
:102A100008B5EFF30583064A103B02EBC30152F8F9
:102A2000330049688847BDE80840FFF7AFBC00BFE6
:102A3000AC630010F0B587B007460E46144600217F
:102A4000102268461D4603F0C0FB02238DF80230B9
:102A5000054B2A4621466846CDE90476019301F0EC
:102A6000E5FD07B0F0BD00BFD355001008B5024B1F
:102A70001B689847002008BD7C070020034B044AD0
:102A80001860937843F00203937070477C0700202E
:102A90001000002008B5054802F090F9002383F3E8
:102AA0001188BFF36F8F0423184602DF44730010B0
:102AB00008B50649064821F00701C1F1202202F5B8
:102AC000002202F0CBF8002008BD00BF4F18002004
:102AD000800700204FF08072074BDA61A3F5405366
:102AE000DA69D20102D56FF0150070470160D8692C
:102AF00010F08070F7D1704700B00E400B2907D856
:102B0000DFE801F009090909121E27062D2D3A3ABE
:102B10004FF0FF3070470C2251430368184A5B584E
:102B2000C3F34313D0567047164B1A6B1B6B13F04D
:102B300003031FD0022B1FD0C2F34313124AF1E745
:102B4000104AD36BD26B920718D0104AC3F34313C9
:102B5000E8E70C4B0E4A9B6CC3F34313E2E70C23EC
:102B6000594301F1804101F580310B68094AC3F3F3
:102B70004313D7E70E2070470C207047042070479E
:102B80006373001000000140607300105A7300105E
:102B9000537300104D7300102DE9F04107460C46A9
:102BA0007D68214628463E6902F05CFD00286CD015
:102BB0000E2C6AD8DFE804F00808080808082B691A
:102BC000080831316B636700214628462E68FFF7FD
:102BD00095FF01463846FFF7DFFF0C2303FB046334
:102BE00005465E68586880B2FDF748FC2949FDF744
:102BF00051FD0446300CFDF741FC01462046FDF72F
:102C00008DFB01462846FDF745FDBDE8F081062114
:102C10002846FFF773FF0446C2E72146D5E902368E
:102C200028460A2C08BF1E46FFF768FF01463846B3
:102C3000FFF7B2FF0446B068FDF720FC2146FDF720
:102C400075FCD6F80080044608F03F00FDF716FC3E
:102C500001462046FDF71EFDF7680446C7F3024013
:102C6000FDF70CFC01462046FDF714FDF56804460F
:102C7000C5F30230FDF702FC01462046C3E7306889
:102C8000FDF7FCFBC1E77068FAE70020BDE70248EA
:102C9000BBE700BF00FF7F47001B374B2DE9F04328
:102CA0008FB005AA90464468A36825680393E3683B
:102CB00026690493674B03F1200C1746186859687E
:102CC000083303C763453A46F7D11B88624A3B8005
:102CD000624B1A60624A634B1360A2F540529768D8
:102CE00033EA0707FBD10C21042003F09BF80C21E9
:102CF000022003F097F80C21032003F093F8C5F8A5
:102D0000847000F0F9FB584BDA6B22F00302DA63AF
:102D10005A6C012AFCD11A6B22F003021A639A6BD7
:102D2000012AFCD1636AE269DFF84091009309FB54
:102D300002F2236AA169039800F084FB636BE26AE4
:102D40000093A16A049809FB02F2236B00F07AFB5E
:102D50001121404602F0D9FC18F8170018F9171095
:102D6000092861D90137112FF6D14FF4006305F519
:102D700040521360D36005F5405205F5405593610C
:102D80006B62D4F8D81006F1180041F42A61FFF7FD
:102D9000A1FE002855DBD4F8DC10304641F47A015E
:102DA00041F43041FFF796FE00284ADBD4F8E010EA
:102DB000002949D01F294AD801F52A4106F11400FB
:102DC000FFF788FE00283CDBB4F8E410284D301DE6
:102DD0002943FFF77FFE002833DBB4F8E61006F145
:102DE00008002943FFF776FE00282ADB6FF06042D7
:102DF0001B4B1A60A3F540539D68ED4335F06045C9
:102E0000FAD12946606902AA02F055FD002807DBC5
:102E1000029B2A461979186802F060FD002801DA41
:102E2000831C0ED100200CE004EB01110B6C00930D
:102E30004B6CD1E90E1202F0D1FF002892D16FF055
:102E400015000FB0BDE8F0834AF60121B6E74FF454
:102E50002A41B3E7386600107F3BEFEF00200240C5
:102E600000300240F6FFF30300000140001BB700F2
:102E70000000969608B5074803F024F838B10648D4
:102E8000FFF7FCFD0448FEF793FC002008BD6FF03F
:102E90001200FBE74C6300109D2E00100A2838B585
:102EA0000446074D04D1AB680D2128465B6898475E
:102EB000AB6803485B68E1B29847204638BD00BF65
:102EC0004C6300104FF05043084A1968084B002922
:102ED00018BF134630331A46106820B90432D11A8D
:102EE0001429F9D970470120704700BF9082024031
:102EF0004882024070B50D4614460669B2B91146C3
:102F0000284600F029FB2C4B03EB850253F82530B3
:102F100002F5805183F0800303F0C0030B604FF48F
:102F2000807302F500521360002070BD2846C2F382
:102F30004012C4F3001100F00FFB0521284600F0F9
:102F4000EFFA14F480311BD04FF0000343EC4450EF
:102F5000A303E9D50123A007F26803FA05F11BD505
:102F60000A436007F26032690ED50A4332614FF0BE
:102F7000000343EC4050C4F3804444EC4450D3E796
:102F8000284600F055FBE3E722EA0102326143ECF8
:102F90004050C4F3C044F0E722EA0102F26014F4A6
:102FA000002204D043EC405043EC4450BCE76103A2
:102FB000FAD542EC4050F7E7048003402DE9F8438E
:102FC0004FF05043194A1968194B064600290CBFA7
:102FD000904698460024D0F81090E3080C3358F837
:102FE000233004F007029200D3401B0704D10134C0
:102FF000302CF2D1BDE8F8830F21204600F0EAFA28
:10300000D9F804100029F2D001270D68A740002943
:10301000EDD08A683A4002D030464B6898471DB1DF
:103020002B6829461D46F2E72B46FAE74882024004
:10303000908202402DE9F047D0F810A005469AF89A
:1030400008300F469046D0F80490002B40F0948052
:103050005AB1D9F80020136B23F0010313634368BE
:103060001A68D36A23F01003D3626B683A791B683D
:10307000012ADC6A24F0EE0405D0022A13D022B122
:103080006FF0850061E044F002047A79012A03D0F0
:10309000032AF5D144F00804BA79032AF0D8DFE80E
:1030A00002F00705151844F00604EEE744F020048A
:1030B000FA798AB1012AE3D11A6B42F480421A6389
:1030C0006B681A68136B43F400430EE044F040044D
:1030D000EEE744F06004EBE71A6B22F480421A63D7
:1030E0006B681A68136B23F4004300261363DAF845
:1030F0000C103A68334612018801890EFDF78CFBEB
:103100000346DFF87CC0403B61F100029C4576EB52
:1031100002022ED36B681A68830943EA8163536203
:103120006B6800F03F001B689862BFF35F8F30460A
:103130006B681B68DA6ADA626B681B68DC623B6882
:10314000CAF800307B68CAF80430B8F1000F0ED01E
:1031500099F81C302BB96B681A68D36A43F01003D6
:10316000D3626B681A68136B43F001031363BDE805
:10317000F0876FF01500E8E76FF08500F7E700BF14
:1031800080FF3F004FF0E02310B50F499C691A699A
:1031900008689B690D4902F4803234B993B903463B
:1031A0004AB90A681044C01A10BD002B08BF034674
:1031B0000AB9A342F5D90A6802440A604FF0E02236
:1031C0001269EEE70446F3E7A4070020A0070020F9
:1031D00010220A4B002083F8232043F69822084B44
:1031E0001A60084B43F6972218604FF0E0235A61AB
:1031F00098611A6942F007021A61704700ED00E019
:10320000A4070020A0070020684620F007018D4693
:1032100019B5FFF7B7FF1149114B0868D3E9004210
:10322000001942F10002C3E9000200230B6043F6DB
:1032300098230C4AD2E90041001BB0FBF3F0434352
:103240001B1941F10001C2E9003101F087F8FFF7D5
:103250009DF8BDE819408546704700BFA0070020D3
:1032600088050020800500202DE9F041DFF8E0808E
:1032700099B1421C0BD14FF0E022136923F00103F6
:1032800013614FF07F43C8F80030BDE8F081D8F8F3
:103290000060012807DC00270BE0431CD8F8006021
:1032A000F7D140F25D4040F25E439842A8BF184615
:1032B000471EEFF31185102383F31288BFF36F8F3E
:1032C000FFF760FF4FF0E023224C9969D4E9002317
:1032D00080184FF0000243F10003C4E900031E4BC5
:1032E0001A601E4B1A68831A2ED443F6982C0CFBD6
:1032F000073303F56A531733B3FBFCF7131A0CFBC0
:103300000733B3F5806F38BF4FF48063144A93429C
:1033100028BF13464FF0E022C8F80030013B906907
:103320005361002381429361A1EB000338BF9B19D5
:10333000D4E900125B1842F10002C4E9003285F3BF
:103340001188BFF36F8FA0E74FF48063E2E700BFFF
:10335000A407002088050020A00700208005002089
:1033600038A9FF0038B5EFF31185102383F31288D5
:10337000BFF36F8F084B1C68084B1B68E41AFFF7FC
:1033800001FF85F31188BFF36F8F43F69823204424
:10339000B0FBF3F038BD00BF880500208005002099
:1033A000F0B50C24444304F1804404F58034059EB8
:1033B00094466268071FB242FFB238BF6660012FB1
:1033C00004F5405219D8012917D103251560A268C8
:1033D000D207FCD5226804F5805582EA4C1202F02F
:1033E000E0022A6022684A4002F003022A600122B9
:1033F0008A40A1681142FCD018E04FF400651560C6
:103400000F4D55F820203AB16D69B5FBF2F5013545
:1034100005EB4505033DFDD2226804F5805582EA9F
:103420004C1202F0E002012F2A60DBD94FF4006158
:1034300004F500521160024A666042F82030F0BD87
:10344000A8070020F8B5264E264F274D1644BE4249
:10345000B5FBF1F5069C01D902F0B8F8B2FBF5F224
:10346000A2F11005B5F5987FF6D85D1E062DF3D8AC
:10347000651E062DF0D8240344EA03430468002C9B
:103480000EDA046804F03F048C4209D18468C4F366
:103490000B04944204D1C46804F4EE249C421DD071
:1034A000124D0124A8420CBF0F250E25AC40104D33
:1034B000104E2C6005F580552C60B56834EA050582
:1034C000FBD101602121826000F54052043211607D
:1034D00001680029FCDAC36008231360F8BD00BF4F
:1034E00080E84BD380F8A932001BB700008005406C
:1034F00000200240000002404FF42A62054B0649BA
:103500001A602F22DA60054A11605A68002AFCDA34
:10351000704700BF0080044000B0FA0000A00440E3
:1035200010B50C4B03EB800253F8203002F58054A9
:1035300083F0400303F0C00323604FF48073C000A6
:1035400000F1804000F5203002F5405241601360E8
:1035500010BD00BF0480034010B5074CC90004EB48
:10356000800354F8200041EA8201414001F00C013F
:1035700003F58053196010BD04800340054B03EB35
:103580008000022319B100F500500360704700F578
:103590004050FAE704800340054A02EB800352F8EA
:1035A000202003F58053514001F00101196070475C
:1035B00004800340064B03EB800253F8203002F5F1
:1035C000805283EA011303F030031360704700BF99
:1035D00004800340C30800F00700034A80008140D4
:1035E0008C3342F82310704700800240F8B54FF04A
:1035F0005043064617460C4C1A680C4B0D46002AE1
:1036000018BF1C46FFF7E6FF06F007039B00F6080D
:1036100005FA03F304EB86001FB100F500500360C8
:10362000F8BD00F54050FAE748820240908202401F
:10363000054B03EB8000402319B100F500500360F7
:10364000704700F54050FAE7048003404FF0E02255
:10365000044BD2F8881D0B43C2F8883D10EE3004AD
:10366000704700BF0303300010B50446FEF780FA30
:1036700003480121034A01F0C1FE204602F02DFC5F
:1036800010660010BB7300102DE9F84304460D4688
:1036900000AFEFF31188102383F31288BFF36F8F0D
:1036A0000428294A98BF294BE9468AB09668117CBC
:1036B00098BF53F820306A4688BF254BC2E90731CE
:1036C00040F2013323489384234BC2E9050442F8B6
:1036D000103F00234FF431512048FEF719FBCD462F
:1036E00045B1EB69C3F3080323B101211C4A1B4810
:1036F00001F084FE2EB1304602F032FC08B10378AE
:1037000003B91848E9468AB06A46174BD061C2E946
:10371000053640F201331384144B42F8103F002366
:103720004FF411510D48FEF7F3FA2946CD462046D5
:10373000FFF79AFF88F31188BFF36F8F3046FFF7CA
:103740007DF8BD46BDE8F883D00700202068001052
:10375000CA730010E073001005000001106600102D
:1037600008740010D87300102974001004000001C0
:1037700038B50A4B53F82040013053F82050A54289
:1037800000D838BD606830B1037FDB0701D402F098
:10379000ACFB0834F3E723689847FAE73468001075
:1037A000012270B5294B032086B01A70FFF7E0FFA5
:1037B00000F00AFF0420FFF7DBFF254C254D2646CD
:1037C000AE4204F1300410D300F0D2FA204C224E65
:1037D000AC4226D300F0E0FAFDF7B4F91F4A137BA0
:1037E00023F00103137306B070BD54F80C3C05932D
:1037F00054F8103C049354F8143C039354F8183CC8
:10380000029354F81C3C019354F8203C009354E973
:103810000A2354E90C0100F01BF954F8303C5E65B2
:10382000CDE7D4E90A23B3F1FF3F08BFB2F1FF3F70
:1038300005D052EA0301206803D100F069FB30345F
:10384000C6E73146183000F0F9FCF8E7FF07002022
:103850004C6500104C6500105360001000060020FD
:1038600008B50348034A0021121A02F055FB08BDAF
:10387000D000002004080020702370B5134E0122F0
:1038800003FB0066002386B0CDE904230F220193D9
:10389000CDE9023214234FF4A0720D4D0D4903FB04
:1038A0000055044602FB00110B4B3046009500F01A
:1038B000CFF8737B2C7423F004037373074B01342C
:1038C00003EBC423EE606B6006B070BD9005002072
:1038D000D007002008130020215F0010080B0020F3
:1038E000BFB50020FFF744FF244B83F30888002472
:1038F000F023234D234F85F82230EC772C766C761D
:10390000AC766B6A43F4E0236B62FEF765FFFFF76A
:103910006DF84FF0FF33AB62EB62FEF78FF81A4899
:1039200000F0FAF802F0CDFA0120FFF721FF0220A3
:10393000164DFFF71DFF00F063FA154B15495D6149
:10394000154B4FF48062059301232846CDE90343CC
:10395000CDE901443B46009400F07AF806466A7BC4
:10396000284622F004026A7302F036FB2046FFF775
:1039700083FF3A4631462846FFF71CF8081300201B
:1039800000ED00E0A13700107006002000060020C6
:10399000D007002048140020D96B001070B5EFF359
:1039A0001186102383F31288BFF36F8F0468A0423F
:1039B0001AD0CCB1D4E90032002513605A60637B81
:1039C000C4E9005523F002036373A56004F11800F5
:1039D00002F098FB2046E56602F0FEFA3146BDE8AB
:1039E0007040074800F09EB9D0E902329A4218BFF1
:1039F0000133836086F31188BFF36F8F70BD00BF02
:103A00000008002013B5EFF31181102484F312880D
:103A1000BFF36F8F846844B1013C846081F31188E7
:103A2000BFF36F8F002002B010BD52EA030406D12D
:103A300081F31188BFF36F8F6FF00F00F3E7CDE9CB
:103A400000230246014800F04BF9ECE70008002093
:103A50002DE9FF41984600F15803C0E916330E9B4B
:103A6000002603730423D51D437325F007050D9B22
:103A70000D440F4683732946C0E906668660C67307
:103A80000446FEF763FC0C9B073002930B9B20F06F
:103A9000070001930A9B2D1A00932A464346394694
:103AA0002046FEF76BFF054B66659B6803B11B6EF6
:103AB0002846236604B0BDE8F08100BFD00700208F
:103AC000F0B5002587B00595109DDDE912760495C7
:103AD0000F9D044603950E9D02950D9D01950C9D2D
:103AE0000095FFF7B5FFB6F1FF3F08BFB7F1FF3F05
:103AF00005D056EA070305D1204600F009FA204612
:103B000007B0F0BD3A46334604F11800014900F011
:103B100095FBF4E75360001040F20113838100230A
:103B20000366014B98607047D00700206FF00A01D0
:103B3000084A9368D966084998664B6843F08053F1
:103B40004B60002383F31188BFF36F8F9368D86EA7
:103B5000704700BFD007002000ED00E070B590F97D
:103B60000D20437B002A36DBD90634D11B4C63F091
:103B70007F032246437352F8183FE169934207D10D
:103B8000C0E900210860E06111E09942F8D01B68AB
:103B9000002BF5D090F90E5093F90E60B542F4D099
:103BA000AE42F2DD5968C0E9003108605860A5698D
:103BB000954200D005B9E568A3685A7BD20604D1C6
:103BC000DA897F2A01D9AA6932B1AB4202D02846EC
:103BD00000F092FA656170BD6361FCE7D0070020D8
:103BE00038B590F90D200146002A437B04DA03F032
:103BF0007F03437302F0B6F90D4D2A4652F8184F71
:103C0000AB68944200D004B9EC688B4207D05A7B71
:103C1000D20604D1DA897F2A01D9A2692AB1A34246
:103C200002D0204600F068FA23466B6138BD00BF21
:103C3000D0070020B3F1FF3F08BFB2F1FF3F03D030
:103C40000249183000F0FABA704700BF5360001004
:103C500070B590F90D200146002A437B04DA03F089
:103C60007F03437302F07EF91C4C4B7B224663F0CA
:103C70007F034B7352F8183FE069934207D1C1E9C3
:103C800000200160E16111E09842F8D01B68002B30
:103C9000F5D091F90E5093F90E60B542F4D0AE42D2
:103CA000F2DD5868C1E9003001605960A569A36878
:103CB000954200D005B9E5688B4207D05A7BD20601
:103CC00004D1DA897F2A01D9AA692AB1AB4202D08C
:103CD000284600F011FA2B46636170BDD007002022
:103CE000F8B5DDE906670D4B0C46986811460C4A9D
:103CF0001060EFF31182102282F31288BFF36F8FEE
:103D00009D68284602F040F9284632463B46FFF7B8
:103D100091FF2046BDE8F840FFF708BFD00700201C
:103D2000F007002049B9EFF3058030B9054B5A6917
:103D30009B689A4201D0FFF7F9BE81F31188BFF367
:103D40006F8F7047D0070020034648B9EFF3058214
:103D500032B9064A51699268914201D0FFF7E6BE36
:103D600083F31188BFF36F8F704700BFD007002027
:103D7000EFF31181102383F31288BFF36F8F054B8C
:103D80009A68D37B013BD37381F31188BFF36F8FA4
:103D9000704700BFD007002070B5EFF311861023E5
:103DA00083F31288BFF36F8F144DAB68DA7B013257
:103DB000DA732A4652F8184F944200D004B9EC68DE
:103DC0005A7BD20604D1DA897F2A01D9A2692AB1A5
:103DD000A34202D0204600F08FF923466B6186F3A0
:103DE0001188BFF36F8FEFF31180102383F31288D4
:103DF000BFF36F8FBDE87040FFF7A6BFD00700206C
:103E0000024B03F11802C3E906227047D0070020D5
:103E100070B5EFF31186102383F31288BFF36F8F11
:103E20001B4CA168E0690B68814214BF1A4600224E
:103E300049680B605960A368E1692AB9154AC3E96A
:103E400000210B60E3610CE093F90E0092F90E5033
:103E5000A84218D0854216DD5168C3E900210B60E5
:103E60005360A5690B4B9D4200D005B9E568A36876
:103E70009D4202D0284600F03FF965613046BDE81A
:103E80007040FFF753BE8A42D8D01268D5E700BF12
:103E9000D0070020E8070020F8B550EA01030646E5
:103EA0000C4603D1FFF7B4FF0020F8BDEFF31187F4
:103EB000102383F31288BFF36F8F124D124BA86843
:103EC0001860FFF78DFEA868234632460F49183068
:103ED00000F0B4F9AA680446537B384643F0040363
:103EE0005373FFF723FEAB68D3E90A23B3F1004F06
:103EF00008BF002AD8D102F02DF9201A20EAE0707C
:103F0000D3E700BFD0070020F00700205360001067
:103F100038B50446EFF31185102383F31288BFF3FD
:103F20006F8F437B5B070FD5183002F0EBF8637B94
:103F3000204623F004036373FFF710FE2946BDE813
:103F400038400448FFF7EEBE85F31188BFF36F8F4A
:103F500038BD00BF00080020014B9868704700BFC3
:103F6000D00700202DE9F8430446077BEFF31185C5
:103F7000102383F31288BFF36F8F437B190705D596
:103F800085F31188BFF36F8FBDE8F883D90943F03B
:103F900008025AD14273A36813B1204601F0EAFF28
:103FA00004F1180002F0AEF8A66D04F15808B0450F
:103FB00011D04FF0000976B1304601F0DBFF06F179
:103FC000180002F09FF83046C6F86C90FFF7C6FD67
:103FD000A66DB045EFD1DFF8B880D8F808309C4224
:103FE0003BD1EFF30589B9F1000918BF4FF0010982
:103FF000D8F81860274A964200D00EB9D8F80C605D
:10400000B34202D0304600F077F8C8F81460B9F136
:10401000000F02D02048FFF77FFDD8F808309C42FF
:1040200031D1EFF3058373BB227BD20718D4284626
:10403000FFF77CFDFB07A7D5002383F31188BFF3AF
:104040006F8F0423184602DF9EE703F07F0343F0DF
:104050000803437301F086FF9DE74FF00009C7E7AF
:1040600085F31188BFF36F8F83F31188BFF36F8FD0
:104070000423184602DFEFF31180102383F3128824
:10408000BFF36F8FD4E785F31188BFF36F8FD1E74C
:10409000D0070020E8070020700600200122044B12
:1040A000C01A044BC0105843034B1A54704700BF4A
:1040B000E0060020ABAAAAAA00080020C3897F2B33
:1040C00012D80A4B1B6863B1094B90F90E201B688C
:1040D0009A4209DB437BDB0606D1064BC31A18BFA5
:1040E000012303F0010070470023FAE76C00002071
:1040F000F40700209005002070B50E4B0E4C1E7C7E
:10410000182303FB06440546204601F0FBFF00226E
:104110000A4B28469A55FFF7D1FF48B1084B204675
:10412000BDE870401A680749013AD31700F086B815
:1041300070BD00BFD0070020E0060020000800206E
:104140006C0000209D40001038B5EFF3118510235E
:1041500083F31288BFF36F8F104B114A9C6810686D
:10416000A04206D1FFF7C8FF85F31188BFF36F8F18
:1041700038BD00211B7C11600A4AD35C002BF3D0B0
:104180002046FFF79BFF0028EED0637BDB0602D1C1
:104190002046FFF75DFD2046E4E700BFD007002082
:1041A000F007002000080020074808B5074A084922
:1041B000121A01F0B3FEBDE808400648064A074956
:1041C000121A01F0ABBE00BF00000020D00000209A
:1041D000C87400100000002000000020C874001007
:1041E000024B1868984208BF0020704770000020FA
:1041F000034B1B680BB9FFF7B5B80020704700BF31
:10420000F807002030B570B10B4B5B6898420AD0BC
:10421000036843B1D3E90421D0E90445121941EB05
:104220000501C3E90421D0E9003213605A6000237C
:10423000C0E9003330BD00BF70000020B3F1FF3F84
:1042400008BFB2F1FF3F2DE9F84F044699461546E5
:104250001F467AD08160EFF31188102383F3128810
:10426000BFF36F8FB9F1000FDFF8E4A020DBFFF799
:10427000BFFFDAE90027013549F100092D1849EBA4
:10428000E07306464FF00109C4E90453AD1843EB4F
:104290000707FFF7A5FF0346DFF8B8E0DEF804A044
:1042A000EBB9C4E900EACAF80040CEF8044028E0BF
:1042B0006FF00103DAE900125B1A4FF0FF3161EB96
:1042C00002025B1B62EB0902012B72F10001BCBF11
:1042D000012300224FF00009C0E90432D9E7D3E9F5
:1042E000041CD4E904208A4270EB0C0B24DA891AEE
:1042F0005A686CEB0000C3E90410C4E90032146092
:104300005C60FFF76DFF84420ED1134B1B685BB9F5
:10431000B9F1000F02D1FFF76BFF0646304601F0FE
:10432000DAFE0021FEF7A0FF88F31188BFF36F8F3C
:1043300028463946BDE8F88F521A60EB0C009A45C2
:10434000C4E90420ADD01B68AAE700252F46EFE79B
:10435000F806002070000020F80700202DE9F04743
:10436000EFF31185102383F31288BFF36F8FDFF80B
:10437000A0900026C9F800000027FFF731FFDFF802
:104380009480D9F80030D8E900ECD91750B1D0E9C1
:104390000442A34271EB020A1BDAE41A62EB010247
:1043A000C0E90442002413EB0E034CEB010120464C
:1043B000C8E90031C9F8004001F08DFE2146FEF742
:1043C00053FF85F31188BFF36F8FBDE8F047FFF708
:1043D000BBBE14EB0E024CEBE473C0E90467C8E902
:1043E0000023FFF70FFF85F31188BFF36F8F8368FA
:1043F0009847EFF31185102383F31288BFF36F8F73
:10440000D9F800301B1BC9F80030FFF7E9FEB8E708
:10441000F8070020F806002010B5EFF311841023F0
:1044200083F31288BFF36F8FFFF7E2FE0346054A5E
:10443000D2E90001181841EBE37184F31188BFF34E
:104440006F8F10BDF8060020F8B50546EFF3118711
:10445000102383F31288BFF36F8F036823B187F3B0
:104460001188BFF36F8FF8BDD0E90A46611C46F191
:104470000002022972F1000236D3012C76F100020B
:10448000BCBF01241E46013C46F1FF3601F066FE2A
:10449000013041F10001001946EB0101012871F1E1
:1044A000000130DB01F05AFE6FF00203013041F1F0
:1044B0000001001946EB010183426FF000438B417C
:1044C00026DB01F04BFE013041F100016FF00102EB
:1044D000001946EB01034FF0FF31121A61EB0303A1
:1044E00028461C49FFF7AAFE2B6B01332B632B6A6E
:1044F00093B93C462B4653F8185F9D4200D0D5B97E
:1045000084F31188ADE76FF001024FF0FF33E7E766
:1045100000224FF00043E3E787F31188BFF36F8F6A
:1045200028462B6A9847EFF31184102383F31288EF
:10453000BFF36F8FDEE7284601F05DFD0023EB66D9
:1045400084F31188BFF36F8F2846BDE8F84001F06F
:1045500043BD00BF494400102DE9F04105461C460B
:1045600090461F46EFF31186102383F31288BFF3A2
:104570006F8FB4F1FF3F08BFB2F1FF3F05D186F363
:104580001188BFF36F8FBDE8F081002C09DB012A91
:1045900074F10003BCBF0122002412F1FF3844F182
:1045A000FF37284601F0AEFDDDE906010023C5E92D
:1045B0000A012B6342463B4628460249FFF73EFE6E
:1045C000DDE700BF49440010014800F0F7BB00BF21
:1045D0008E7400100CB430B589B005460C461C2210
:1045E000002101A801F0F1FD022305958DF80630A8
:1045F0000D4B029323462CB1B4F1004F28BF4FF06E
:104600000043013B1D440DAA0C9901A80695009298
:1046100000F00CF814B1059B00221A7009B0BDE837
:10462000304002B0704700BF9F6200102DE9F04F8C
:1046300043688DB015468046029383789A0740F10F
:104640000D8100240E78002E00F00A81252E0BD05B
:104650004B1C0393013441463046029B9847002887
:10466000C0F2F6800399EDE74E788B1C252E03935C
:10467000F0D00027B946BB46BBF11F0F38D8A6F1D2
:104680002003102B0AD8DFE803F02A0909300909B2
:10469000092109090928092D09091F00A6F130037C
:1046A000092B33D92A2E37D11BF0400F55F8043B84
:1046B00040F08280002BA7BF4BF0200B9946C3F13E
:1046C00000094BF0280B01E04BF0010B039B13F8A2
:1046D000016B0393002ECFD130E04BF0020B4BF077
:1046E000040BF3E74BF0080BF0E74BF0100BEDE792
:1046F000BBF17F0F19D8A6F13003092BD2D81BF0DC
:10470000400F03D00A2101FB0737DFE70A214BF0F6
:10471000200B01FB0939D9E72E2E06D11BF0400FE3
:1047200040F09E804BF0400BD0E76C2E31D02BD860
:10473000682E36D06A2E3CD04C2E3AD0002F46F050
:104740002003B8BF2BF04002A3F16501BCBF0027D6
:104750001FFA82FB022901D9612B2FD107350727C8
:10476000DFF8ACA225F0070508351BF0080F66D06E
:104770000AEB070B56465E4563D1A4EB0A0AA9EB88
:10478000070906EB0A026FE1742E9FD07A2E9DD0A6
:10479000D4E71BF0800F18BF4BF4007B4BF0800B6D
:1047A00094E71BF4807F18BF4BF4007B4BF4807BB5
:1047B0008CE74BF4207B89E71F4687E7A6F163016E
:1047C000122900F2F080DFE811F013004F00EE0034
:1047D000EE00EE00EE004F00EE00EE00EE00EE0008
:1047E000EE00FE00E900EE00EE001B00EE00AF0060
:1047F00055F8043B01270DF1180A8DF81830B4E77D
:1048000055F804AB834BBAF1000F08BF9A461BF072
:10481000400F504614BF39464FF0FF3101F0DDFC28
:104820000746A2E741462020029B984700280FDB5D
:10483000013EB742F6D34C44B146A41B98E74E461E
:10484000F7E7414616F8010B029B9847002892DAD9
:1048500098F8023043F0040388F802304FF0FF3438
:1048600020460DB0BDE8F08F1BF0800F34D01BF454
:10487000007F2CD0073525F00705AA4669685AF84D
:10488000080B2BF010050029ADB237DA404245F491
:10489000806561EB41010DF1180B0A235A4601F0C6
:1048A000A8FCA0EB0B0301936B0662D5019B25F0DE
:1048B00001019F4289B240F3A180002E00F099804F
:1048C00015F0100240F09C80BB460D4623E0AA463E
:1048D0005AF8040BC117D4E7AA461BF4807F5AF894
:1048E000041B01D10846F5E71BF4007F19BF48B24D
:1048F00041F3C01108B241F3C031C2E750EA0103ED
:10490000C9D11BF0400FC6D0002FC4D12BF011022B
:10491000BB46019795B240F2064115EA01021CBF61
:104920000BF1010B00222CE02BF010020A231FFADE
:1049300082FB1BF0800C49D01BF4007115BF0735BA
:10494000AA4625F007055AF8040B1EBFAA46696857
:104950005AF8080B50EA010545D12BF016051BF05B
:10496000400FADB242D0002F40D12BF0170201977B
:1049700095B215F0100248D0019B002E42D103F1F0
:10498000010B29075AD4EB0706D5D9456FDDA9EBF2
:104990000B030199CB465F185B4649E04BF0100BC7
:1049A00010237826C5E7782B04D1C6F1780343F0AD
:1049B0001003BEE741462520029B98470028FFF6DA
:1049C00047AF023447E608230026B2E7AA461BF4A5
:1049D00080715AF8040BBDD01BF400711ABFC0B22D
:1049E000614680B2B6E72BF0060295B20DF1180BC6
:1049F00054E725F01105BB46ADB28CE70D46B8E78C
:104A00003B460D4603F1020BBBE7DDF804B082E73D
:104A1000BD740010B6740010CDE904324146202068
:104A2000029B98470028FFF613AF049B059A0133B9
:104A30009945F1DCA4EB0B019B46CC180AB3414627
:104A40003020029B98470028FFF602AF8EB9013450
:104A50002744391B019B994224DC1D4655BB019A12
:104A6000A9EB0B09554622441446914433E0019FBB
:104A700092E7023441463046029B98470028E7DA25
:104A8000E6E640F206410D42E2D015F0020F04F1D5
:104A90000104414614BF2B20202015F4806F18BF5D
:104AA0002D20E9E741463020029B01349847002839
:104AB000CFDACDE606AB013D4146585D029B9847F3
:104AC0000028CBDAC4E641462020029B01349847F7
:104AD0000028FFF6BDAEA9EB0403002BF3DCC1E513
:104AE0007047012303FA01F103691B68194218BFDB
:104AF00082F0010212B18368DB68184783681B6982
:104B0000FBE70A2180FB010101F0BDBA10B5046981
:104B100044F62062002304F11C00FEF773FF002816
:104B200011DB0020238A5BBAA385638A5BBAE38525
:104B3000237D84F83030B4F815305BBA6386E37DAA
:104B400084F8343010BD6FF00A00FBE7836800EB97
:104B5000C101B3F5004F2CBF51F8220031F812000B
:104B6000704700EBC1018068B0F5004F2CBF41F8E1
:104B7000223021F812307047012208B5FFF7E6FF16
:104B8000D04008BD836800EBC101B3F5004F08D3E6
:104B90004B681AB143F001034B60704723F00103E7
:104BA000FAE74B881AB143F001034B80704723F0BA
:104BB0000103FAE753000122FFF7D3BFB0F5004F1E
:104BC00034BF04230823481C0833A0EBD300B0FAF9
:104BD00080F0C0F11F0070472DE9F0410D46866856
:104BE0000446FFF7C9FFB6F5004F014601D301287F
:104BF00032D03046FFF7E2FF04EB80010E6996B930
:104C00000122E36882401343E36002220D612B46D8
:104C100029462046FFF7A5FF032229462046BDE886
:104C2000F041FFF79EBF022231462046FFF78EFF7C
:104C30000746034629462046FFF793FF03223346E3
:104C400029462046FFF78DFF39462B462046FFF7C1
:104C500088FF02223146E1E7BDE8F081B2F5802FFE
:104C60002CBF082304232DE9F0410026D21A8C180A
:104C7000CD1D25F0070524F00704641BE40805603A
:104C800021462046AC60EE60FFF798FF421D92007F
:104C9000013002F107074FEAD7073146A2F11002AF
:104CA00005F11000B8BF324601F08FFA3A4631469E
:104CB0002846FFF77FFF3346324631462846FFF746
:104CC00050FFA4EB0708284631460122FFF75AFFA0
:104CD00042463946FFF76EFF3B4632463946284684
:104CE000FFF73FFF21462846FFF764FF4346324661
:104CF00021462846FFF735FF214628460122FFF7C7
:104D000041FF3946BDE8F041FFF766BF2DE9F047A6
:104D100006460D46174698462BB34FF0000A98F802
:104D2000004093F80190DB78A40004EB430498F86A
:104D300002301C444444CA4509D339463046AC4687
:104D4000D8F8042008F10803BDE8F047604714F8DC
:104D5000013B0AF1010A204648F82340FBF776FDA3
:104D600001300444E7E76FF01500BDE8F08770B547
:104D7000002502462846144614F8013B0BB9184694
:104D800009E098B18D4207D1702B04D0A3F1400205
:104D90003A2A0BD8002070BDA3F140063A2E05D860
:104DA00053780135941C002BE9D00020252B224696
:104DB00008BF80F00100DEE7002070470FB407B5A0
:104DC00004A951F8040B019100F095FA03B05DF8C5
:104DD00004EB04B0704710B50369024613F00800F5
:104DE00009D11368D4689C429BBF0120126AE31A60
:104DF000D31A0B6010BD00231846FAE713B501A9BA
:104E00000446FFF7E8FF20B1019BE268013B134431
:104E10000193206A019BC01A013802B010BD10B581
:104E2000044650182269236AD20702D5013B184074
:104E300010BD984228BFC01AFAE710B504460A46CA
:104E4000C168FFF7ECFF2369E06023F008032361EA
:104E500010BD38B50D46C2698B00016843F00203EE
:104E6000044642F8213001682A46FFF7D8FFE3687C
:104E70006168984208BF2369206008BF43F00803B7
:104E80002A46204608BF2361FFF7C9FF606038BD8E
:104E90002DE9F74FC768C6699B4606EB8703009369
:104EA00016F82730044603F00303022B8846914688
:104EB0004FF000030BD01360CBF8003023699B0741
:104EC00013D44FF0000A504603B0BDE8F08F56F8F7
:104ED000271013608908CBF80030EFD0FFF7ADFF43
:104EE000E368A3604FF0010AEDE7A36906EB8700D2
:104EF000984716F82720054612F0010AE1D012F073
:104F000002021FD0B8F1000F03D041462046FFF740
:104F1000A0FF61682A462046FFF781FFD4E90221FD
:104F20009142606006D12A462046FFF778FF4FF095
:104F3000000AA060A2682260E260226942F00802D2
:104F40002261C0E7014620460192FFF776FFE36841
:104F5000A360B8F1000F04D02168E369019A43F817
:104F6000212005EB0802CBF8002021682046FFF73E
:104F700056FF2369206043F00803236116F82730A9
:104F80006FF3000306F82730009BC9F80030A9E74B
:104F900070B504461546FFF742FF2368834205D1EA
:104FA0002369216023F00803236170BDE269AB002F
:104FB00043F0020342F8213061682A462046FFF799
:104FC0002EFF6060F1E738B5036904465B0706D53C
:104FD000456AFFF713FF85422CBF6562606238BDEA
:104FE00038B50D4604461C22002101F0EEF80022DF
:104FF000EB68A361AB6863612B68E3616B68626215
:1050000023622A6923B1591E194208BF42F00102E6
:105010002261012204F128000021BDE8384000F09F
:105020008ABF2DE9F04F002587B00093036A04463C
:105030008B420E469246A9460395059539D3EFF368
:10504000118B102383F31288BFF36F8F059AD84614
:105050002AB129462046FFF79BFF0023059304A9A8
:105060002046FFF7B8FE04990746B1422AD32268CA
:10507000E369204613F8221003EB820921F00301B3
:1050800003F8221021683246FFF7C9FEE36820606A
:10509000984212D0002788F31188BFF36F8F0399CD
:1050A00029B162690AB12046904700230393002F7B
:1050B000C5D1484607B0BDE8F08F236943F0080327
:1050C0002361E7E718B12046FFF7C3FEE3E7009B43
:1050D0005AEA03021CD0019100F039FF0199B8B9D6
:1050E000BBF1000F14D187F31188BFF36F8F5246C5
:1050F000009B04F12800FEF785FCEFF311881023D4
:1051000083F31288BFF36F8FB0FA80F77F09C2E78D
:10511000204605AB03AA2568FFF7BAFE0746BAE7A3
:1051200070B50446836908460D4698470246EFF37A
:105130001186102383F31288BFF36F8F2B782046DC
:1051400043F001032B706168FFF769FE6060204641
:10515000FFF739FF86F31188BFF36F8F70BD2DE91C
:10516000F04104461027EFF3118687F31288BFF34E
:105170006F8F236913F0080FA36802D1626893420E
:1051800000D9226AD21AE16932B986F31188BFF3D5
:105190006F8F4FF0000833E011F8232001EB8308F4
:1051A00012F00300F1D0022803D151F82350AD08CA
:1051B00005D1D00712D44046A36998470546A16897
:1051C0002A462046FFF72BFE2946A0602046FFF71F
:1051D00034FE86F31188BFF36F8FC4E742F00202FA
:1051E00001F82320A3694046A5689847294602464E
:1051F0002046FFF714FEA06086F31188BFF36F8F7F
:105200004046BDE8F081F8B50446836908460D467E
:1052100098470646EFF31187102383F31288BFF3F4
:105220006F8F2B786FF300032B7023699B0705D5D5
:10523000E268E36903EB82039D421AD12B786FF396
:1052400041032B70D4E90231994204D13246204601
:10525000FFF7E5FDA06031462046FFF7EEFD87F33E
:105260001188BFF36F8F04F12800BDE8F840FEF706
:1052700095BB2B6860F39F032B60F0E7EFF3118180
:10528000102383F31288BFF36F8F036913F0080FA5
:10529000836802D14268934200D9026AD31A81F32B
:1052A0001188BFF36F8F181E18BF01207047704719
:1052B00003785B075FBF03684288C3F34A2303EBAD
:1052C00012105DBF173020F00700800800207047E3
:1052D000002070470346D3E8EF0F421CC3E8E12FDC
:1052E0000029F8D1704708B500F038FF0A220023E2
:1052F000FBF792FA08BD1FB50023CDE902011A465B
:1053000019461846CDE90033FCF786FD05B05DF877
:1053100004FB0120FCF740BB002070474368DA71B2
:1053200001224368196043685A71FCF727BB70B5C6
:1053300015460C4669B1D2E901369B1B99420AD841
:1053400013680A460146981900F032FFAB682344FF
:10535000AB60204670BD6FF01B00FBE770B50E46DA
:1053600015461946044618B9BDE87040FCF714BB51
:1053700033B1C2F34A231030120D184400F018FF65
:10538000C4E900562046BDE87040FCF7A1BC2DE9F9
:10539000F3415F1C4FEA8708064608F1170020F02A
:1053A000070080080C461546FCF770FB00238DF8BB
:1053B0000470ADF805308DF8073068B10346019AE6
:1053C000A8F1040143F8102F2A46294452F8045B3F
:1053D0008A4243F8045FF9D100233146A20102F466
:1053E000E07242EA482222F07F4222F4700222F068
:1053F0003F0202B0BDE8F041FFF7B0BF07B501239F
:10540000019201AAFFF7C3FF03B05DF804FB07B5E3
:10541000CDE9002302236A46FFF7B9FF03B05DF828
:1054200004FBF8B506460D4614461F4604B9F8BD00
:10543000214628463A46B047241A0544F6E710B5F7
:1054400042680446D2E9002381680068FFF7E9FF5B
:10545000002263681A6010BD38B54B6805461A68AB
:10546000CB680C469A4202D10846FFF7E8FF636812
:10547000D3E8EF2F511CC3E8E01F0028F8D1A36840
:1054800000209D5438BD0A2838B504460D4602D187
:105490000D20FFF7E1FF29462046FFF7DDFF002042
:1054A00038BD2DE9F043054687B008460E8891F8CF
:1054B00000900C46D1F808801746FCF7FDFC011E51
:1054C000C6F38216C9F3C2091EDB4846FCF712FC7C
:1054D0000346214651F8102B6088C2F34A22002A65
:1054E00001EB020408BF00210022C0F30B10CDE93C
:1054F0000407CDE902142846414601960092FCF7C4
:1055000007FD07B0BDE8F0830023E2E74368002011
:105510001B685B681961704743681B681A685268AA
:105520005360704701212DE9F04143681B685A68B8
:1055300011751D682F68D5E90136D3E900481CB9FB
:105540006B681C60BDE8F081214630464246B84792
:10555000241A0644F3E743681B681868FCF742BE48
:1055600070B543680C461D686B681869FCF7F0F964
:10557000214603460F222868BDE8704018470146BF
:105580000068FCF783BE08B5FCF7DCFEBDE8084008
:10559000FCF7FCBE0A460121FFF730BF00210120C5
:1055A000FCF774BE61B662B680F31188BFF36F8FEB
:1055B000704772B6002383F31188BFF36F8FBFF378
:1055C0004F8F30BF62B6BFF36F8F704708B5FDF7DE
:1055D00061FA08B5D1E904319847002008BD08B543
:1055E000FDF744FA002008BDFEF730B849B2102993
:1055F000436816DC0A290BD00B2910D00C221B683B
:1056000002FB01334FF4006203F500531A6004E01B
:105610009B682D2203F540535A6000207047DB68D9
:10562000F7E76FF01500704749B21029436816DCA0
:105630000A290BD00B2910D00C221B6802FB013366
:105640004FF4006203F540531A6004E09B682D227A
:1056500003F500535A6000207047DB68F7E76FF0EE
:1056600015007047CBB20246181F01282ED90B290E
:105670000BDC092919DC092B2AD840F24F3020FA1B
:1056800003F313F0010009D170470C2919D0A3F1DD
:105690000D0001288CBF00200120704713680C22E8
:1056A00051435858C0F3C0207047D2E902030A2979
:1056B00008BF03465B6813F0290F0CBF01200020D0
:1056C000704753685868C0F3003070470120704736
:1056D0000020704749B2102908B505DC4068FFF783
:1056E000C1FF0130C0B208BDEA20FCE749B2102971
:1056F00010B5144606DCFDF74FFAFBF767F820609B
:10570000002010BD6FF01500FBE7F0B500254FF04D
:10571000FF362B468B421DD21A4600EB430494F908
:105720000170B7420DD100EB430710F913C097F990
:10573000017030F812E020F813E000F812C00133D5
:1057400067700132914204F10204E8D110F915604A
:105750000135DFE7F0BD10EE183000200B60704718
:105760000269D36821EA030040EE10001940136972
:1057700001EA030260EE142021EA030140EE141056
:10578000002070470269D36821EA030060EE100030
:105790001940136901EA030240EE142021EA0301D3
:1057A00060EE1410002070470369DB6821EA0302F1
:1057B00020EE10200B4020EE14300020704710B572
:1057C00003695868F8B1884219D19C680868A142F9
:1057D000586000D19860002008602AB15A680A60B9
:1057E0009A68596002B99960002010E0814206D1A0
:1057F0000868206098688142EDD19C60EBE7044620
:1058000000680028F2D1002AE8D16FF0150010BD21
:1058100008B543685B6803B19847002008BD70B5C0
:105820000D4616460F21002228461C46FDF7DEFED7
:10583000B6F5001F0DD0F20104F08063C4F340619F
:1058400009D589000BB141F0080101222846FDF776
:10585000CDFE002070BD002BF7D041F00201F4E72F
:1058600008B5152000220721FDF748F8BDE80840DB
:105870001520FDF735B830B50569EB6810EE10401E
:1058800021EA03005440204020EE100019402C690A
:1058900010EE1400504001EA040323EA000320EE56
:1058A000143010EE143021EA04015A40114020EE69
:1058B0001410002030BD30B503681360057904680A
:1058C00004EBC504A34202D36FF0010030BD5C7944
:1058D0008C4201D00833F0E70020F7E770B50446AA
:1058E00000EB8105AC4201D1002070BD264616F8C0
:1058F000040B00F01F0000F0DBFA21882078C1F3D0
:10590000441100F01F00FDF70BFEA27861782078AB
:1059100002F00102C90900F01F00FDF71DFE6178C9
:105920002078C1F3830100F01F00FDF743FE61788A
:105930002078C1F3801100F01F00FDF72DFEA17843
:105940002078C1F3800100F01F00FDF717FEA17859
:105950002078C1F3400100F01F00FDF769FEA17837
:105960002078C1F3C10100F01F0000F092FAA17885
:105970002078C1F3411100F01F0000F07BFA61882C
:105980002078C1F3C11100F01F0000F064FAE17843
:105990002078C1F3410100F01F0000F04DFA3446B9
:1059A000A0E70020704783680079022808D0042807
:1059B00009D0012809D1CB5CDBB20020136070470D
:1059C000CB5A9BB2F9E7CB58F7E76FF01500704759
:1059D0002DE9F74347680D463E7990464FEAC609E0
:1059E000B1FBF9F4384601AAA1B2FFF7DCFFA0B978
:1059F000012309FB14557A790199EDB2AB40424578
:105A000014BF19439943022EBB6809D0042E0BD052
:105A1000012E0CD1C9B2A4B2E15403B0BDE8F083A9
:105A200089B2A4B2E152F8E7A4B2E150F5E76FF011
:105A30001500F2E70122FFF7CBBF0022FFF7C8BF36
:105A400038B504460D46FFF7F5FF28B9294620462C
:105A5000BDE83840FFF7F1BF38BD2DE9F341466896
:105A60000C4637791546FF00B1FBF7F8304601AA1E
:105A70001FFA88F1FFF797FF68B907FB1844019BED
:105A8000E4B2E340DB43727903F00103002A08BF6C
:105A900083F001032B7002B0BDE8F0810269436816
:105AA000127A1B682AB91A6BD2070DD51A6B9205A8
:105AB0000AD59A69D20607D41B680B7043681B6825
:105AC000586800F00F0070474FF0FF307047436890
:105AD0001B689A699206FCD41960704743681B687A
:105AE00058685A68C0F3C00051075A685B6848BFDD
:105AF00040F00800920748BF40F00200DB0748BFB3
:105B000040F0040070470B46026992E8030083E806
:105B10000300002070470346002030B55C6824680D
:105B2000A569AD0602D4151A002D00DC30BD0D5C50
:105B300001302560F2E70346002030B5141A002C2E
:105B400004DD5C682468A569ED0600D530BD2468D5
:105B50000C540130F2E7F8B5436805691A68044649
:105B6000936B43F0200393632B7C4BB100232B7486
:105B70006B692BB1102663681B689B6B9B0600D476
:105B8000F8BDEFF3118786F31288BFF36F8F2046BD
:105B9000D5E90531984787F31188BFF36F8FEAE79E
:105BA000012203691A7443681A68936B23F0200377
:105BB0009363704743681B68986980F00800C0F3DE
