:020000041000EA
:10000000982E00200D3B0010917D0010F93A001051
:10001000F93A0010F93A0010F93A0010F93A0010D4
:10002000000000000000000000000000453B001040
:10003000F93A001000000000F53C0010714E00106D
:10004000613D0010613D0010613D0010613D0010F8
:10005000613D0010613D0010613D0010613D0010E8
:10006000613D0010613D0010613D0010613D0010D8
:10007000613D0010613D0010613D0010613D0010C8
:10008000613D0010613D0010613D0010613D0010B8
:10009000613D0010613D0010613D0010613D0010A8
:1000A000613D0010613D0010613D0010613D001098
:1000B000613D0010613D0010613D0010613D001088
:1000C000613D0010613D0010613D0010613D001078
:1000D000613D0010613D0010613D0010613D001068
:1000E000613D0010613D0010613D0010613D001058
:1000F000613D0010613D0010613D0010613D001048
:10010000613D0010613D0010613D0010613D001037
:10011000D3DEFFFF420121100302000000000010A7
:0C012000FF03000000000000793512AB66
:1001300080F0004002E000BF81F0004142001FBF9C
:100140005FEA410392EA030F7FEA226C7FEA236CA5
:100150006AD04FEA1262D2EB1363C1BFD21841409A
:1001600048404140B8BF5B42192B88BF704710F030
:10017000004F40F4000020F07F4018BF404211F0D3
:10018000004F41F4000121F07F4118BF494292EA3B
:10019000030F3FD0A2F1010241FA03FC10EB0C0067
:1001A000C3F1200301FA03F100F0004302D54942F4
:1001B00060EB4000B0F5000F13D3B0F1807F06D3A1
:1001C00040084FEA310102F10102FE2A51D2B1F199
:1001D000004F40EBC25008BF20F0010040EA03008E
:1001E0007047490040EB0000013A28BFB0F5000F0E
:1001F000EDD2B0FA80FCACF1080CB2EB0C0200FAC4
:100200000CF0AABF00EBC25052421843BCBFD04012
:100210001843704792F0000F81F4000106BF80F48C
:1002200000000132013BB5E74FEA41037FEA226C4F
:1002300018BF7FEA236C21D092EA030F04D092F01A
:10024000000F08BF0846704790EA010F1CBF00204E
:10025000704712F07F4F04D1400028BF40F00040AB
:10026000704712F100723CBF00F50000704700F0CB
:10027000004343F0FE4040F4000070477FEA2262F2
:1002800016BF08467FEA23630146420206BF5FEAC3
:10029000412390EA010F40F4800070474FF00003C3
:1002A00004E000BF10F0004348BF40425FEA000C8A
:1002B00008BF704743F0964301464FF000001CE032
:1002C00050EA010208BF70474FF000030AE000BF88
:1002D00050EA010208BF704711F0004302D54042C6
:1002E00061EB41015FEA010C02BF84460146002038
:1002F00043F0B64308BFA3F18053A3F50003BCFA53
:100300008CF2083AA3EBC25310DB01FA02FC6344FF
:1003100000FA02FCC2F12002BCF1004F20FA02F206
:1003200043EB020008BF20F00100704702F12002F9
:1003300001FA02FCC2F1200250EA4C0021FA02F25A
:1003400043EB020008BF20EADC7070474FF0FF0C5F
:100350001CEAD0521EBF1CEAD15392EA0C0F93EA5A
:100360000C0F6FD01A4480EA010C400218BF5FEAFC
:1003700041211ED04FF0006343EA501043EA51116F
:10038000A0FB01310CF00040B1F5000F3EBF490069
:1003900041EAD3715B0040EA010062F17F02FD2A6D
:1003A0001DD8B3F1004F40EBC25008BF20F0010050
:1003B000704790F0000F0CF0004C08BF49024CEA67
:1003C000502040EA51207F3AC2BFD2F1FF0340EAF9
:1003D000C250704740F400004FF00003013A5DDC6A
:1003E00012F1190FDCBF00F000407047C2F10002AB
:1003F000410021FA02F1C2F1200200FA02FC5FEA98
:10040000310040F1000053EA4C0308BF20EADC70E1
:10041000704792F0000F00F0004C02BF400010F453
:10042000000F013AF9D040EA0C0093F0000F01F000
:10043000004C02BF490011F4000F013BF9D041EA22
:100440000C018FE70CEAD15392EA0C0F18BF93EA24
:100450000C0F0AD030F0004C18BF31F0004CD8D14E
:1004600080EA010000F00040704790F0000F17BFD5
:1004700090F0004F084691F0000F91F0004F14D01B
:1004800092EA0C0F01D142020FD193EA0C0F03D173
:100490004B0218BF084608D180EA010000F0004076
:1004A00040F0FE4040F40000704740F0FE4040F451
:1004B000400070474FF0FF0C1CEAD0521EBF1CEAF0
:1004C000D15392EA0C0F93EA0C0F69D0A2EB03020E
:1004D00080EA010C49024FEA402037D04FF08053A8
:1004E00043EA111143EA10130CF000408B4238BF6D
:1004F0005B0042F17D024FF4000C8B4224BF5B1A7B
:1005000040EA0C00B3EB510F24BFA3EB510340EAC8
:100510005C00B3EB910F24BFA3EB910340EA9C0076
:10052000B3EBD10F24BFA3EBD10340EADC001B01E6
:1005300018BF5FEA1C1CE0D1FD2A3FF650AF8B428A
:1005400040EBC25008BF20F0010070470CF0004C97
:100550004CEA50207F32C2BFD2F1FF0340EAC250C2
:10056000704740F400004FF00003013A37E792F083
:10057000000F00F0004C02BF400010F4000F013AE1
:10058000F9D040EA0C0093F0000F01F0004C02BFDC
:10059000490011F4000F013BF9D041EA0C0195E745
:1005A0000CEAD15392EA0C0F08D142027FF47DAFDE
:1005B00093EA0C0F7FF470AF084676E793EA0C0FCE
:1005C00004D14B023FF44CAF08466EE730F0004CCC
:1005D00018BF31F0004CCAD130F000427FF45CAF5C
:1005E00031F000437FF43CAF5FE700BF4FEA4002C9
:1005F000B2F1FE4F0FD34FF09E03B3EB12620DD951
:100600004FEA002343F0004310F0004F23FA02F0BA
:1006100018BF404270474FF00000704712F1610F61
:1006200001D1420205D110F0004008BF6FF0004038
:1006300070474FF00000704753B94AB9002908BF0E
:1006400000281CBF4FF0FF314FF0FF3000F00CB816
:10065000ADF1080C6DE904CE00F010F8DDF804E00F
:10066000DDE9022304B07047704700BF034613F86A
:10067000012B002AFBD1181A013870472DE9F047E9
:100680008C468E46089E154604461946002B40F0BF
:10069000D080724547D9B2FA82F74FB1C7F1200333
:1006A0000EFA07FCBD40BC4020FA03F343EA0C0CF1
:1006B0004FEA154EA8B2230CBCFBFEF80EFB18CC7B
:1006C00008FB00F943EA0C43994528D9EB1808F1D7
:1006D000FF3204D2994502D9A8F102022B44A3EBC0
:1006E0000903A4B2B3FBFEFC0EFB1C330CFB00F0B1
:1006F00044EA0344A04214D92C190CF1FF3304D26C
:10070000A04202D9ACF102032C44241A43EA02406D
:100710001EB1FC40002334607360BDE8F0874246A0
:10072000DDE76346F1E7002A79D0B2FA82F3002BC5
:100730003FD01946C1F1200302FA01F500FA01F495
:100740002EFA03F20EFA01FE20FA03F3AFB243EAE7
:100750000E034FEA154EB2FBFEFC0EFB1C201A0CDA
:100760000CFB07F842EA004290455AD9AA180CF14E
:10077000FF3004D2904502D9ACF102002A44A2EB2A
:1007800008029BB2B2FBFEFC0EFB1C220CFB07F71F
:1007900043EA02439F4246D9EB180CF1FF3204D2E0
:1007A0009F4202D9ACF102022B44DB1B42EA004219
:1007B00002E0AEEB020301224FEA154EAFB2200C6D
:1007C000B3FBFEFC0EFB1C330CFB07F840EA0343B3
:1007D00098452AD9EB180CF1FF3004D2984502D97C
:1007E000ACF102002B44A3EB0803A4B2B3FBFEFC64
:1007F0000EFB1C330CFB07F744EA0344A74216D94F
:100800002C190CF1FF3304D2A74202D9ACF1020338
:100810002C44E41B43EA00400F46114678E71F21B1
:1008200088E76046ABE76246BFE76046DBE76346C2
:10083000EFE7734506D916B9002108466DE7C6E90A
:10084000000EF9E7B3FA83F787B9734501D3824203
:1008500007D8841A6EEB030301209C461EB90021C1
:100860005BE73846FAE7C6E9004CF8E7C7F1200C29
:10087000BB4000FA07F422FA0CF520FA0CF1BA405A
:100880001D432EFA0CF30EFA07FE4FEA154941EA12
:100890000E011FFA85FEB3FBF9F809FB18300B0CAB
:1008A00008FB0EFA43EA00439A4540D9EB1808F1D9
:1008B000FF3004D29A4502D9A8F102002B44A3EBE1
:1008C0000A0389B2B3FBF9F809FB183308FB0EFEE3
:1008D00041EA03418E452CD9691808F1FF3304D24F
:1008E0008E4502D9A8F10203294443EA0040A1EB56
:1008F0000E01A0FB02984145CE46434602D306D1E5
:100900004C4504D20138B9EB020E68EB0503002E0A
:10091000A5D0B4EB0E0261EB030101FA0CFC22FA44
:1009200007F3F9404CEA0303C6E9003197E7404674
:10093000C5E74346D9E70000014806F01EBC00BFEA
:10094000D893001010B403460A46034881680C6926
:100950001946234610BC18470C8E001070B58EB097
:10096000584807F03AFFB8B1002001F0EBFF002132
:1009700042F2107008F0B5F8002144F6206008F04B
:10098000B0F8514806F0F9FB504C204607F025FF1F
:1009900030B94F4806F0F1FB6FF012000EB070BD99
:1009A0004C4806F076FA4C4806F073FA4B4806F0CD
:1009B00070FA4B4806F06DFA4A4B0193A3689B68A6
:1009C000002B6FD001A92046474A9847011E6CDAD8
:1009D000464806F0D2FB1E220023CDE90223A3687D
:1009E0001D6825B113222421384802ABA84740488E
:1009F00006F0C3FBA3684C21DB68344898470146E6
:100A0000002856D142F210760D2004A9FFF79AFF74
:100A1000102006A9FFF796FF4D2008A9FFF792FFC7
:100A200024200AA9FFF78EFF4E200CA9FFF78AFFAA
:100A3000059A049992FBF6F22E480C9D06F09DFB58
:100A4000079A069992FBF6F22B4806F096FB089956
:100A50002A4806F092FBEEB20A99294806F08DFB6F
:100A60003146284806F089FB1A4805F0010106F0D6
:100A7000FCF91948C5F3400106F0F7F91748C5F32A
:100A8000800106F0F2F91648C5F3001106F0EDF901
:100A900016B11D4806F071FB002140F6B83008F091
:100AA00020F8A7E76FF0570192E7184806F065FBBA
:100AB00091E710F10B0F01D11548EBE7154806F04F
:100AC0005CFBE9E7B88D0010069400100C8E001056
:100AD00028940010D8910010D0910010C8910010F7
:100AE000C091001004004E00390900103F9400101E
:100AF0009C940010CA940010E4940010FC94001020
:100B0000099500101C9500102B9500106F94001093
:100B10003995001066950010034610B40C46DA882B
:100B2000006802F040021979224383689C6934B15D
:100B3000044BA446134010BC02F0B072604710BCD6
:100B4000704700BF400000062DE9FF41A2F11301EC
:100B50000569042958D8DFE801F003253439480035
:100B600001261C88BB238DF8083063BAADF80A3023
:100B7000662300278DF809608DF80C300DF1080808
:100B8000286818F8011B836801375B689847052FB0
:100B9000F6D1234833460321224A009406F0B1FEE1
:100BA000002039E01A685C6842F2107394FBF3F499
:100BB00002EB820202EB820204EB82040226A4B260
:100BC000D0E71C68032604F03F04CBE71A685C6892
:100BD00042F2107394FBF3F402EB820202EB820206
:100BE00004EB82040426A4B2BCE71A685C6842F2F3
:100BF000107394FBF3F402EB820202EB820204EB2B
:100C000082040526A4B2ADE7054813460121064A31
:100C100006F06DFE6FF0850004B0BDE8F08100BF06
:100C20004C910010B79500109395001008B50B4635
:100C3000242B016937D00BD80D2B10D0102B21D0CD
:100C40001A4801211A4A06F052FE6FF0850018E09A
:100C50004D2B23D04E2BF3D191F8343020E064207B
:100C6000B1F92C3093FBF0F31360B1F92C3093FB06
:100C7000F0F100FB113342F2107113FB01F300207D
:100C8000536008BD6420CB8DB3FBF0F31360CB8DB4
:100C9000B3FBF0F100FB11339BB2ECE791F830307D
:100CA00013600023EBE74B8EFAE700BF4C91001076
:100CB000E495001037B5836805465B6C0C6903B199
:100CC0009847AB685B6B23B12846984708B903B0D7
:100CD00030BDAB689B69002BF3D0012228460DF193
:100CE000070198470128ECD1A27B9DF8073022B973
:100CF000AA2BE6D12371A073E3E7511CC9B22244A9
:100D00000A29A1731371DCD1552B0FD16368C4F884
:100D10000F30A368C4F81330A389A4F8173004F186
:100D20001C0004F0F7FD0023A373CAE70221024A66
:100D3000024806F0DCFDF6E7FC9500104C9100102F
:100D400038B50346056944680888042807D0174861
:100D50000121174A06F0C2FD6FF0850038BD6068BA
:100D600038B912480121134A06F0B8FD6FF012009D
:100D7000F4E708686A64C5E91230201D5AB14FF0E3
:100D8000A861FFF7C9FE237A03210B4A074806F042
:100D9000AEFD0020E2E74FF40011FFF7BDFE032196
:100DA000064A024806F09AFDF3E700BF4C91001096
:100DB0001E960010549600108D960010C1960010DB
:100DC0002DE9F84F82460469456800AF4FF0000BEB
:100DD0000321584A584806F081FD2B6884F80EB06C
:100DE00023602BB9554A0121534806F077FD31E0C5
:100DF0006E4688B06A461B684FF400795049DFF8A8
:100E00004481CDE90513ADF81C9042F8108F4FF4E2
:100E1000E6515B46484800F0E5FEB54601225946DA
:100E200004F11C0007F013FD206807F0D6FC034610
:100E3000A8B9226888B011686A464348ADF81C908A
:100E4000CDE9050142F8108F4FF4E2513A4800F025
:100E5000C9FEB5466FF01200BD46BDE8F88F3648B2
:100E600003213A4A06F03AFD2068836823B19B6C5F
:100E700013B1524636499847206883689B6A03B18C
:100E800098472D480321334A06F028FD686800285A
:100E900037D007F0A2FC08B92F4AA4E7B5F80AE05A
:100EA0006868297A05F104084EF480320126D0F8EA
:100EB00010C08E40DCF800301EF0010FD0F8089012
:100EC00014BF3343B343CCF80030D9F8003098470F
:100ED00001222B7A214902FA03F3C4E90F1368684F
:100EE00004F138018368DB6903B198474FF40011BE
:100EF0004046FFF711FE2B7A0321194A0E4806F0EF
:100F0000F6FC23686C4688B06A461B681549CDE933
:100F100005134FF40073ADF81C300A4B42F8103F34
:100F2000054800234FF4E65100F05CFE0020A54682
:100F300092E700BFEA9600104C910010089700104D
:100F400033970010030000015A9700108297001099
:100F5000B50C0010A2970010D3970010C76E0010B8
:100F6000FF9700103098001008B5024806F005F908
:100F7000002008BD709800102DE9F04F91B000934B
:100F800002F004030293C2F3C2030133840705464F
:100F90000E46DDF868A00392059340F09C81041D85
:100FA000002849D101F00706341DC6F10806009B50
:100FB00000274FF004085A1E4FF0FF33B946019343
:100FC000BB46434604970DB100992160059800285F
:100FD00000F3D6808F480099814203D38E48814226
:100FE000C0F0CE800399601B11F0020C40F0D68057
:100FF000B9F10F0F00F2CF80002D00F0D68009F17B
:1010000040010DEB010E0199C0F387000EF8200C92
:101010000EF8101CBCF1000F00F0C38060F07F00E0
:101020000EF8200C013709F10109C5F108014FF64E
:10103000DA7E043406918CE00729B8D86FF01B00E3
:1010400011B0BDE8F08F7A285BD84B280FD847281D
:1010500057D829282ED8252850D052D8202818BF54
:1010600023280CBF4FF0010B4FF0000B71E04C3800
:101070002E2846D8DFE800F06D45454545454545F5
:1010800045454545484545454545454545564548F9
:10109000485656566D486A456D4518481845457F6F
:1010A0007C48454548457C0000204FF0000B4FF040
:1010B000040835E001212A38C0B201FA00F010EA34
:1010C0000E0F46D110F0625C2CD110EA010B40D01B
:1010D0006046013C4444B4FBF8F408FB04F425B139
:1010E000A3EB050CA444B445A8D8002870D00599FA
:1010F000013905915AF8041B009164E701990139FF
:1011000001914FF0000B24E012F8010C6C2834D14F
:10111000002012F8023C83466C2BC8D14FF008081F
:101120004346D6E70AF1070A2AF0070A073424F0F3
:101130000704FAE802BC35B106982044B0423FF6F5
:101140007DAFC4E900BC4FF0000B08344FF0080835
:10115000434612F8010F002853D0BBF1000F7FF473
:1011600072AF2528F5D14FF0010B019B013301939C
:101170004FF00408ECE7584697E700208346A8E7BD
:10118000039988077FF551AF4FF0010C601BB0F554
:10119000007FFFF42DAF6FF0150051E74FF0000C0A
:1011A000F5E70498013004903DE7BCF1000F01D051
:1011B000013638E70298023600287FF434AF0098F1
:1011C000CDE90632FFF752FADDE9063206442AE796
:1011D000042B08D10AF1040015B1DAF800102160DF
:1011E00082460434B5E70AF1070323F0070303F14D
:1011F000080A1DB1D3E90001C4E90001082308343D
:10120000A7E7631BB3F5806FC5D23DB9A6F108040B
:10121000E01815E7088D001090A50010029A9B08B1
:1012200028602B709DF81030AAB1EB70AF702FB111
:10123000002208A8C5F1010C91450ED14FF0000A1B
:10124000C5F101030DF1200801930DF1300BD145DB
:1012500012D1601BF4E66B70E8E710F8013B190649
:1012600008D50CEB040EB64503F07F033FF6E6AE5F
:1012700004F8013B0132DFE71FB198F90020002A92
:1012800017DB029BD3B11AF80B2004F8012B0022C4
:10129000019B18191044B0423FF6D0AE98F80000F8
:1012A000009904F8010B2046039207F0A5FC039A6D
:1012B00014440AF1010A08F10108C8E798F800206F
:1012C00055F822300093029B009845F82230FFF732
:1012D000CDF9421CDCE76FF00D00B1E62DE9F04FCF
:1012E00097B000AF04468946C7E90A3249B9037886
:1012F0004678807800EB830020444E4525D8A0EB4B
:101300000409D7F88030A67803F00103D7F880A04D
:10131000FB61E378002E0CBF4FF0000A0AF0010ACF
:101320007B621BB1D7F880309D0717D4BAF1000F4C
:1013300014D1FB6A1BB149462046BA6A98474D460C
:1013400028465C37BD46BDE8F08F451C2846FFF7B0
:101350008DF90130284409F10109CEE7D7F8803032
:10136000C3F3C0033B622378BB619B003B616368AE
:101370007B61BB6904EB830BFB6A002B40F082802E
:101380004D465E44BAF1000F1CD09A46DFF89082B9
:101390001BF8013B54F82300002808BF4046FFF724
:1013A00065F9D7F8843001304BB1D7F88830534510
:1013B00082BFD7F8843023F81A000AF1010A5E458B
:1013C0000544E5D1D7F880304FF0000813F0050F41
:1013D0000CBF4FF0020B4FF0010B7B6A9845AFD268
:1013E0007378023654F823908E4B9945C0F05A8199
:1013F0008D4B3A6A99452CBF002301230AB316F896
:10140000021C7869FB6205F099FEFB6AC8B1E946E7
:101410008AB06A46854B05937B69CDE906314FF466
:101420000073ADF82030824B42F8103F00234FF498
:101430001251804800F0D6FBCD46023D08F101086C
:10144000CBE723B1FB6933B9A5EB0B05F6E7D7F87A
:1014500080309807F2D57248B9F1000F18BF48469E
:10146000FFF704F9D7F8843053B1D7F888309A459C
:101470003FBFD7F88420431C22F81A300AF1010A32
:101480000544DBE7BAF1000F69D1002E6DD0D7F823
:10149000803059076CD5B04607F1480032465946AE
:1014A00007F0AAFB0BEB0603FB6003F1020B002322
:1014B0007A6A93425ED3D7F8802094F801B0F96934
:1014C00092070AEB0B0348BF0022DBB258BF4FEA7A
:1014D0005802002940F0A280D7F8801011F0040FC4
:1014E00014BF414600216370A170E2702046BA6AC1
:1014F0003969FB6A9847051EFFF622AFBB69414672
:1015000023707B6ABA6AE37084F801B0FB6AA67044
:1015100007F148009847B0F10008C0F2BF803B696E
:101520007A6A786A03EB4201FB68314403EB4000BE
:10153000BA6AFB6AA9EB010198470028C0F2B080A3
:10154000A84408EB00054FF0000807F13809D04522
:1015500072D30021BA6A0846FB6A9847F0E6B246A1
:101560004FF0000807F1380098E7B246B04699E717
:10157000D04697E71BF8015C2A4854F825201BF851
:10158000021C8242C0F0948027488242386A2CBFF5
:101590000022012238B17869C7E9012305F0CEFDA8
:1015A000D7E90123F0B90AB3FA695AB10AF128025E
:1015B00007F130000AF10101101800F8205C5FFA11
:1015C00081FA0FE0D7F8802052070BD508F12802E6
:1015D00007F1300008F1010102EB000808F8105C87
:1015E0005FFA81F801330BF1020B61E7D7F8802035
:1015F0009007DBD408F1280207F1300C08F1010054
:10160000944407F1580208F1020852FA80F00CF8ED
:10161000101C5FFA88F800F8105CE3E7002162E72D
:10162000AB980010088D001090A50010B298001023
:10163000040000011491001018F8093054F823B088
:1016400087F83730D7F8843033B3D7F888309845E7
:1016500022D2D7F8843033F818600121BA6AFB6AC5
:1016600007F13700984700281ADB144B0544BBF1FB
:10167000000F08BF9B4626B95846FEF7F7FF461CE9
:10168000B6B231465846BA6AFB6A9847002807DB6B
:10169000054408F101085AE70026DEE745464FE613
:1016A00005464DE63B6A002B3FF4D1AE0023A6E68B
:1016B0003A6A002A9AD000226DE700BFAB9800106A
:1016C000014B1860704700BFB00000202DE9F047C3
:1016D000044607464FF00109DFF84C8094FAA4F560
:1016E000B5FA85F509FA05F32E0108EB05156FEA41
:1016F000030A24EA03042B7B63B158F806301B6904
:101700006BB94644736804222846196807EA0A0739
:1017100006F074F8002CE1D13846BDE8F087284681
:1017200098470028F6D1ECE78491001010B500220C
:1017300088B00E490E4807F046FA00220023002424
:10174000CDE906230E234FF44072CDE90334CDE9F1
:101750000144084B08490094084804F003FB084979
:10176000064807F0F7F8204608B010BD85170010AE
:10177000700900208D1A001058160020F80400206F
:1017800075990010014804F0C5B800BF1C04002082
:101790002DE9F047804620480F4606F00BF8064634
:1017A000002832D000252846BDE8F087237B83B18E
:1017B0002368DB680BB120469847636883F806907E
:1017C00023681B69CBB9636804222046196806F0B8
:1017D00015F8013610345445E8D3B8F1000FE2D0C3
:1017E000002DDFD02846FFF771FF0546002FF7D008
:1017F0000021642007F075F9F2E720469847002899
:10180000E1D009FA06F31D43E3E705464FF001096D
:10181000024CDFF80CA0DEE7180D002084910010C8
:1018200094910010014B53F8200070471C92001057
:1018300008B5034608462BB1044A136000F044FC87
:10184000002008BD6FF01500FBE700BFB4000020CA
:1018500010B5044C237813B9034804F05BF8012356
:10186000237010BD3C1600201C04002010B5044657
:10187000094805F09FFF3CB1084BD3E8EF1F013941
:10188000C3E8E21F002AF8D1054805F029F8BDE8B1
:101890001040044804F03EB8100D0020140D002044
:1018A000700900201C0400200022044BD3E8EF0F35
:1018B000C3E8E12F0029F9D1704700BF100D0020C7
:1018C00070B5FFF7F1FF0546074C084EB44200D350
:1018D00070BD63685B792BB123685B6813B12946DF
:1018E000204698471034F1E784910010949100103D
:1018F00010B5044C0449204605F04DFD034B1C6017
:1019000010BD00BFA403002008920010080D0020A5
:1019100000230D4A10B513700C4A4FF47A7113600E
:101920000B4A0C481360FFF783FFFFF7E1FF0A4BF8
:101930000A4918468B4200D310BD1A1A5C6812116E
:10194000013222711033F5E73D160020100D002002
:10195000140D0020C777001084910010949100109E
:10196000014600220023014805F036BDA4030020F3
:10197000014805F0CDBD00BFA4030020024B014685
:10198000186805F020BE00BF080D0020014805F0D2
:1019900055BE00BFA403002070B5254B1B78002B5B
:1019A00043D0FFF7E5FF044600283BD1214B224DF1
:1019B0001B68002B12DD07F004F90A220023FEF752
:1019C0003BFED5E90032C01A40F2E93361EB020177
:1019D000984271F1000101D3FFF772FFD5E900329F
:1019E00013F57A7342F10002C5E90032ECB1BDE8AB
:1019F0007040FFF7CBBF6B685B7923B12B68214642
:101A000028461B6898471035B542F4D32046FFF7A7
:101A1000B5FF0A4BD3E8EF1F0139C3E8E21F002AE4
:101A2000C4D0F7E7064D074EEEE7002070BD00BFBB
:101A30003C160020100D002068090020140D002025
:101A4000849100109491001070B50D4D297861B902
:101A50000120FFF79DFE0B4C0B4EB44206D3FFF75F
:101A60009BFF0028FBD101232B7070BD63685B795D
:101A70001BB1236820469B6898471034EDE700BFF0
:101A80003D160020849100109491001000212DE952
:101A9000F8430846FFF77CFE044648B34FF4FA7853
:101AA0004FF0000902F06EF91A4B1B4A1B581360E5
:101AB00033B11A4B1B68092B02DD194803F02AFFCA
:101AC0000025184F44B12046FFF700FE044618B920
:101AD0004FF0FF384FF0FF39FFF75EFF064628B999
:101AE000B5B90F4842464B4603F048FF3546E9E793
:101AF0004FF0FF384FF0FF39D4E72B689B691BB1DB
:101B000000222846114698471035BD42F5D3E8E734
:101B1000054DFAE7080000000C0D0020140D002010
:101B20001C040020949100108491001013B51848F3
:101B300005F040FE174B1B7873B1EFF311841023AF
:101B400083F31288BFF36F8FFFF726FF84F31188AA
:101B5000BFF36F8F02B010BD0F4B1B68002BF9D085
:101B600050B9002200230D48CDE9002342F2107243
:101B7000002304F08DFEEDE70928EBD1074804F0BF
:101B8000AFFE074802B0BDE8104003F0C3BE00BF7F
:101B9000140D00203D1600200C0D002070090020BF
:101BA0001C04002010B5064B04461B6898472146CC
:101BB000A060044805F08DFCBDE81040FFF7B6BFFB
:101BC000B4000020A4030020044A054B9B1AB1EB8B
:101BD000D30F34BF52F83100002070471491001029
:101BE000849100102DE9F04F8FB0C1F34A2604AF65
:101BF0000D469046B8607B600C0D002E61D04FF012
:101C000000090A234FF0040B07F1140AFE60C7E92C
:101C10000799C7F824900093CDF808B0CDF804A038
:101C200007F11C034A464046F968FFF757FBB0F539
:101C3000006F03461CD36C468AB0D8F8041004AB7E
:101C400024481A46C3E9050140F2FF71D9614FF4F7
:101C500000711984204B42F8103F4FF412514B464B
:101C60001E48FFF7BFFFA5462C37BD46BDE8F08FE5
:101C7000C0F30A0604F11700184420F0070080089A
:101C80003B60FFF76DFE66F35325044680B13B6869
:101C900000F11001C7E908390A23F961CDE901AB68
:101CA000009340460E4AF96807F11C03FFF716FB44
:101CB00066F353252A4620467B68B96805F0BEFDC9
:101CC000D2E704F1170020F007008008FFF748FE74
:101CD0000446EDE78A990010040000011C910010F1
:101CE0000F7800102DE9F04F87B00546DDE9106B45
:101CF000DDE9127A884614469946BFB110213B4669
:101D00005A460020CDF800A0CDF814A0FFF734F912
:101D1000B0F5006F01460BD340F2FF730221184A61
:101D2000184807B0BDE8F04F05F0E1BD3946384628
:101D300004F0070305F00704E40044EA831444EACE
:101D4000402444EA065406F11700084420F0070036
:101D500080080391FFF704FE054640B13FB13B46C2
:101D60005A460399CDF800A01030FFF705F94B460D
:101D700022464146284607B0BDE8F04F05F05EBD5B
:101D8000C99900101C910010406820B1034BC01A83
:101D900040F3CF0070474FF0FF30704714910010B0
:101DA0000EB403B503AB53F8042B0146044801936A
:101DB00001F0EEFF02B05DF804EB03B0704700BF26
:101DC00051790010CA0605D48B064CBF024903495D
:101DD000FFF7E6BF704700BF029A0010019A00109B
:101DE0002DE9F04F8BB099469DF85880179B04461B
:101DF00007930D46DDE918A31A9F06920593B8F1E3
:101E0000000F00F0BF80844B07F0020B13F808307E
:101E1000089307F48073099305F0EEFC024600284E
:101E20007DD020467D49FFF7BBFF0646BBF1000F82
:101E300008D017F0440F74D12A4620467849FFF79E
:101E4000AFFF064407F0010353B1764B204653F829
:101E50002820754B7549002A08BF1A46FFF7A0FFD6
:101E600007F48073002B07F0080318BF4FF0000938
:101E7000002B00F082806E4B204653F828206D49DD
:101E8000FFF78EFF0546069B2BB11A4620466A498E
:101E9000FFF786FF0544B9F1000F0DD0089B002B1A
:101EA0006ED06649664BB8F1040F18BF19464A4612
:101EB0002046FFF775FF054462483544079B1BB178
:101EC0002246614905F009F9059B002B00F090803E
:101ED000DDF814903946B9F1100F204628BF4FF0B5
:101EE00010090026FFF76EFFB54252DC002633468C
:101EF00020461AF803205549FFF752FF0136102EED
:101F00004DD0710703D120465149FFF749FF4E4597
:101F10003346EDD320464F49FFF742FFEEE7064632
:101F200084E74D4B186800288BD04C4B4FF47A7BDC
:101F30001B684FF03C0CB5FBF3F5B5FBF0F14FF42B
:101F4000616300FB11550BFB05F5B1FBF3F2B5FB2B
:101F5000F0FE03FB121100FB1E55B1FBFCF30BFB63
:101F600005F5B5FBF0F50CFB131120460091CDE90A
:101F700001E53B49FFF714FF63E707F0080582E737
:101F80002F4994E7B9F1010F45460CBF2D4835485C
:101F900094E720462E49FFF703FF0136A4E7002609
:101FA00020463149FFF7FCFE33461AF8032020464D
:101FB000A2F120035F2B28BF2E222C49FFF7F0FE51
:101FC0000136102E0DD0720703D120462049FFF7AD
:101FD000E7FEB1453346E8D820461D49FFF7E0FE4D
:101FE000EEE7059BCA44B3EB090305937FF470AF9A
:101FF000B8F1000F0AD0FB0704D520460A4A0B4966
:10200000FFF7CEFE39462046FFF7DCFE20460BB038
:10201000BDE8F04F05F08FBC69A50010129A0010C2
:10202000169A00102C920010049A00105797001076
:10203000409200103B9A0010419A0010099A00103B
:102040000D9A001051790010913D0010459A001032
:102050004D9A00104B9A0010200D00201C0D0020FE
:102060001F9A00107F7900104F9A0010519A0010AB
:1020700042F20F7373B58B4228BF0B4605680446C6
:10208000052168460D4A04F083FC0646636828462D
:102090000B225B680A4905F040FC636832466946DA
:1020A00028465B6805F039FC63681B2228465B689C
:1020B000044905F032FC02B070BD00BFB4950010B9
:1020C0005DA5001041A5001000210123064A9042A1
:1020D00006D8064A01B901231360054B1860704702
:1020E000012140085B00F2E740420F001C0D002078
:1020F000200D0020F8B50D460446064F4618B442A0
:1021000001D12846F8BD14F8011BBB6801485B6883
:102110009847F4E7B88D0010F0B40D4B0D4E5F6A90
:102120000D4BB34203D36FF08500F0BC70475C6881
:10213000BC420AD31D6945B194F802C08488E4B258
:10214000A44502D12B46F0BC18472433E9E700BF71
:10215000480D0020F4040020D00400202DE9F047B1
:1021600005460E461746134CDFF84C80DFF84C90BE
:10217000444503D36FF08500BDE8F0876268D9F865
:1021800024309A4213D3A3698BB1A9889078C9B23D
:10219000884205D13A4631462846BDE8F0471847FF
:1021A0005279012A03D13A463146284698472434C9
:1021B000DEE700BFD0040020F4040020480D00201A
:1021C0002DE9F04105460E4617460A4CDFF82880F7
:1021D000444502D36FF0850009E063690BB92434EC
:1021E000F6E73A463146284698470028F7D1BDE839
:1021F000F08100BFD0040020F40400200022024B34
:102200001A605A60704700BF030E002070B50B4B78
:102210000B4CA34201D3002070BD0022196A1E7F1F
:102220000439D5B2AE4201D82433F2E7013211F8B5
:1022300032508542F5D10120EEE700BFD0040020E6
:10224000F404002073B584880D46E4B263068DF86B
:10225000074007D02046FFF7D9FFB0B1144B93F8E1
:10226000BA0090B1124E95B103212346114A12488B
:1022700005F002FC9DF8070002F00CF9F3691BB1B0
:1022800008200DF107019847012002B070BD03211D
:1022900023460A4A084805F0EFFB9DF8070005F0C1
:1022A000DAFDF369002BEFD009200DF10701EAE711
:1022B000480D00208E9A001074910010A19A001011
:1022C00008B503460121034A034805F0D5FB002069
:1022D00008BD00BFB69A00107491001038B50546CD
:1022E00005F0FFFD10F1780F044611D102212B46B5
:1022F0000C4A0D4805F0C0FB284605F0BFFB0B4A11
:102300000024D2F8C43023EA0003C2F8C43007E046
:102310000028F1D001212B46054A034805F0ACFB0B
:10232000204638BDD19A001074910010480D00204D
:10233000F29A001008B509480378C3F341130A3331
:1023400050F823303BB100F1080200F1100198472A
:10235000C043C00F08BD1846FCE700BF480D002071
:1023600004282DE9F74F04460F46DFF8989015D062
:1023700001282FD1DFF8908098F8B93053B300F0DE
:1023800081FE224D4D4522D24FF0000A2A6A2B7F52
:102390005FFA8AF6B34204D82435F3E7FFF72EFF3D
:1023A000E8E702EBC6063079019205F09AFD834614
:1023B000307905F063FBD8F8C430BBF1000F23EA95
:1023C0000003019AC8F8C4300AF1010ADFDA0023D9
:1023D00088F8B9300D4D4D4508D30B4B1B6A6BB1D6
:1023E0003946204603B0BDE8F04F1847EB681BB1F3
:1023F0003A462146284698472435ECE703B0BDE825
:10240000F08F00BFF4040020480D0020D00400200D
:1024100073B5044680782B4D8DF8000023796279DE
:1024200043EA0223ADF80230E37803F003038DF8AA
:10243000043005F023FBD5F8C430064618420CD012
:10244000A478204600F000FE2046FFF747FF06F084
:102450007BFA10B9962006F05DFB684605F0ECFCAF
:1024600010F1780F9DF800301BD10221164A174851
:1024700005F002FB9DF8000005F00EFD10F1780F4D
:1024800019D19DF800300221114A104805F0F4FAE4
:102490000120D5F8C43085F8B9003343C5F8C430FD
:1024A00007E00028E6D00B4A0848012105F0E4FACD
:1024B000002002B070BD0028EAD09DF80030064A26
:1024C000F2E700BF480D0020149B0010749100102B
:1024D0005B9B0010379B00107B9B00102DE9F047A1
:1024E000A54D0446AB690E46174663B9207800F047
:1024F0001F00012877D0022800F0DE8040B16FF085
:102500001500BDE8F08798470028EFD10020F8E7D4
:1025100094F900206378002A27DA062B08D0082BCC
:102520003A681DD0002BEAD1137053700223FEE0ED
:102530006388190A0A1F012A8C46E0D90729DED8C8
:10254000DAB26B6A1C78002CD9D05D78654503D16E
:10255000824200F0E78001302344F3E71B78E6E095
:1025600095F8BA3013700123E1E0052B16D0092B42
:10257000C5D1638833B1FF27B8466E6A3378A3B9F3
:102580000028BCD0FFF73AFE638885F8BA30EB69C3
:10259000002BBBD0032079499847B7E76088C0B2C9
:1025A00001F054FF0028B1D0A9E77378042B0DD0B7
:1025B000052B0ED0022B06D177796388BB4208BF6A
:1025C00040F00100C0B233781E44D7E796F803808C
:1025D000F9E76388BB42F6D1B8F1000FF3D130467A
:1025E000FFF716FFEFE795F8BA30002B87D0D5F844
:1025F0002480A18843465FFA81FC1A78002A3FF4C0
:102600007EAF5878022804D193F804E0E64500F242
:1026100090801344F1E713705370306076E798446C
:1026200094E00B2B7FF46BAF0026FF27B246B94630
:1026300008E098F80130042B11D0052B21D098F830
:102640000030984498F80030002BF2D1EB6913B1B8
:10265000514607209847002E7FF458AF4FE798F86F
:102660000270A38898F803909F42E8D16388994547
:10267000E5D1072F1DD8EB19C246012683F8BB9080
:10268000DDE7A388BB42DAD16388DBB24B450BD0D0
:1026900098F80260304600F0D7FC3046FFF71EFE87
:1026A000B0FA80F67609CAE74046FFF7B1FE064663
:1026B000C5E7C2460026C2E794F900206378002AE5
:1026C0001ADA002B7FF41BAFA3885FFA83F85B064E
:1026D0000AD04046FFF79AFD00283FF410AF95F866
:1026E000BA30002B3FF40BAF3C684046214605F062
:1026F000C6FB0023637019E7012B08D0032B7FF47E
:10270000FEAE6388002B7FF4FAAE012103E06188FE
:1027100000297FF4F4AE2046FFF794FD00287FF4F3
:10272000F5AEECE602293B607FF418AF5B883360BE
:10273000ECE694F900206378002ABFF672AF3A689D
:10274000002B3FF468AF0A2B7FF4D9AE98F8003025
:10275000002B3FF4D4AE98F8010004287FF45FAF5B
:1027600098F8020081427FF45AAF072996BF4919B1
:10277000002391F8BB30F5E6480D0020020E002042
:102780002DE9F84305460F469046994604264B46E8
:1027900042463946284601F09DFE10F10B0F0446D3
:1027A00009D102212B46054A054805F065F906F0D6
:1027B000F5F8013EEBD12046BDE8F8839C9B001064
:1027C0007491001013B5164C237DF3B9E26801AB88
:1027D0008020A1680192FFF7D3FF019AA3681344F8
:1027E000A360E3689B1AE3606BB962B12369E28876
:1027F0009A4208DD94F8C82093FBF2F102FB1133F2
:102800000BB90123237502B010BD002380201A46A6
:102810001946237502B0BDE8104001F05BBE00BF51
:10282000480D00207FB500230D4606460193002881
:1028300062D100293AD108220B460DEB020105F0C6
:102840006CFB002804DA802001F024FE04B070BD87
:102850002E4C029AC4E903552260039ABDF80E304B
:10286000626004F13802A2609DF908202575002AF3
:102870000FDB802B09D90121254A264805F02EF8C7
:10288000802001F007FE2846DEE713B1C4E90333D8
:10289000DCE7FFF74FFD0028D5D0E28823699A4294
:1028A000D4BFE260E360FFF78DFFCFE7174C01ABC9
:1028B000D4E90212002A05DC024605F02EFB0028AE
:1028C000C4DAC0E705F029FB002804DA802001F013
:1028D000E1FD3046B8E7019AA3681344A360E368BA
:1028E0009B1AE360002BB1D104F13803A360FFF71A
:1028F00021FD0028D7D1A6E78028A7D1034BDA68AD
:10290000002AD0D11B7D002BCDD19FE7480D0020A0
:10291000C39B001074910010054B064A58629A62DE
:10292000054A0020DA62054A1A63054A9A6170472F
:10293000480D0020DD24001019210010C1210010D5
:102940005D2100102DE9F34104464C4D4FF0FF335B
:102950004FF0FF324A4802F01BFF95F8B8306BB1D8
:102960000221484A484804F0B9FF6FF07704444810
:1029700002F080FF204602B0BDE8F0816E6A6EB9B9
:1029800000F0D4F8FFF7C8FF6E6A3EB901213F4A54
:102990003D4804F0A3FF4FF0FF34E8E73C482C62C9
:1029A000E86101F04DFD01F0ABFC041EDFDB00F03F
:1029B0008BFB041EDBDB7378012B01D1F3793BB970
:1029C0000121344A304804F089FF6FF01504CEE746
:1029D0000026684685F8C830ADF802308DF80460EE
:1029E0008DF8006005F028FA041EC0DB80276846D9
:1029F0008DF8007005F020FA041EB8DB3046264939
:102A000005F0FEF9041EB2DB3846234905F0F8F95B
:102A1000041EACDB214CDFF8888044451AD300202B
:102A200005F03AFA041EA2DBD5F8C430802043F04A
:102A30000103C5F8C43005F02FFA041E97DBD5F862
:102A4000C430002443F48033C5F8C430012385F832
:102A5000B8308CE70026276A227FF3B29A4201D869
:102A60002434DAE707EBC30257F83310107905F086
:102A7000C7F901360028EFD08DE700BF480D0020D0
:102A8000E0030020DC9B001074910010FF9B0010FD
:102A900061230010249C001025280010D004002081
:102AA000F404002030B51F4B8BB005AA03F11005CC
:102AB000144618685968083303C4AB422246F7D15C
:102AC0001B781022237001AC0021204606F0A1F8EB
:102AD00012220021144806F09CF81021204605F02F
:102AE0008EFB00281ADD0828B8BF0820002109380D
:102AF0000D4A044414F8013F0AA800EB131003F038
:102B00000F0328336B4410F8140C13F8143C0131F4
:102B100008291070537002F10202EBD102480BB089
:102B200030BD00BF5E9C0010401600202DE9F04F24
:102B300087B0874B00AF93F800A0BAF1000F04D024
:102B400084481C37BD46BDE8F08F824C00264FF00C
:102B500001193546B046FE6023783BB97E4B0234FE
:102B60009C42F3D101237A4A1370E9E76378052B7D
:102B700005D8DFE803F0AC0703AC1E4FA04623786E
:102B80001C44E9E7402307F1100087F810A07B827E
:102B900087F814A001F064FC40B1082307F110008D
:102BA0007B8201F05DFC08B1A7F812A07B8AE3717B
:102BB000E5E7E378002BE2D1A37813B3FB68013398
:102BC000DBB2FB60DBE76B689C421CD02435634BB7
:102BD0009D42F8D36D4688B06A46614BCDE9053415
:102BE000032342F8103F00234FF4C2515D48FEF723
:102BF000F9FFAD465B4801215B4A04F06FFE0020FF
:102C00009FE75A4DE3E7AB68002BD7D02046F96821
:102C10009847D3E7002D58D1554A0121514804F077
:102C20005DFEE7E72B6AA07803EBC2010B799842BF
:102C300045D14FF0010BE07894F805C000F0030097
:102C4000387520795FFA8BF340EA0C20788294F98A
:102C50000200002826DA4FF0010C0BF110000CFAEC
:102C600000F010EA090F25D143F08000387407F115
:102C70001000C7E90031BA6001F0F2FBD7E9011298
:102C80003B68B8B93A7C12F0800FA2700A714FF01D
:102C900001021DBF1033DBB29A4002FA0BF249EA7F
:102CA00002096CE7012000FA0BF010EA090F01D1CC
:102CB0001846DBE70BF1010BBBF1100FBBD1013262
:102CC0002B7F9A42AED32B4AA7E70022F8E7032EC8
:102CD00024D1FFF7E7FE8346A0B1FDF7C7FC03460A
:102CE00080B1102806D0B8600221234A1D4804F0A4
:102CF000F5FDBB68102BA8BF102359461A46A01C2F
:102D000005F07AFF6FF002012378091B1A1904EB12
:102D10005303D14209D50136F6B230E7002EF1D186
:102D2000B8F1000F08D1154A77E702F801AC13F8A3
:102D3000010902F8020DECE7A4EB080388F8023061
:102D4000C3F3072388F80330FB6888F80430E2E710
:102D50003F1600202C040020CF040020F4040020A3
:102D60006F9C00106C910010559D0010D004002045
:102D70008F9C0010D09C0010ED9C0010389D00101E
:102D8000094B00211A4610B51C78844204D15C68B6
:102D900014B102EB811010BD0131042903F140038D
:102DA000F2D10020F7E700BF140E00202DE9FF410B
:102DB00050F8283C0446103310F82C6C0AD10369F3
:102DC00050F8202C98073DD5D2B9590715D50023C6
:102DD00044F8283C54F8283C10330BD054E90775CC
:102DE00054F8148C05F0B0FD002857D02146324825
:102DF00005F08EFD04B0BDE8F08143F004032361CB
:102E000003AB304654F8241CFFF7BAFC034640B12C
:102E100001212A4A2A48009604F073FD6FF0150339
:102E2000D6E7039A54F8243C134444F8243C54F85D
:102E3000203C9B1A44F8203C54F81C3C134444F8B2
:102E40001C3CC7E703AB304654F8241C01F09AFB46
:102E500003460028DCD1039D54F8243C2B4444F85D
:102E6000243C54F8203C5B1B44F8203C54F81C3CA8
:102E70002B4444F81C3C002DA9D0304605F060F8E6
:102E8000B5FBF0F303FB1055002DA0D154F8203C06
:102E9000002B9CD0304601F0DBFB9BE744F8180C7C
:102EA000A4F1100002F036FD002DA3D042463946B1
:102EB0003046A8479EE700BFA8090020839D001068
:102EC0007C9100104B1E012B73B506460D4614D89D
:102ED000FFF756FF044690B9012D0ED101AB012238
:102EE00030460DF1030101F04DFB019B002BF5D1A4
:102EF00001210C4A0C4804F0F1FC02B070BD05F051
:102F000023FD04F12C0108B1012D05D1084602B0C2
:102F1000BDE87040FFF74ABF044802B0BDE870400A
:102F200005F0F6BCA09D00107C910010A8090020BF
:102F30002DE9F74F054616469846019104F0DEFD4F
:102F4000002871D1EFF311831022009382F31288CD
:102F5000BFF36F8F8346DFF8D890002200234846E6
:102F600002F00CFDA0B9DFF8CCA04FEA8B170AEBFA
:102F70008B1BDBF8044014F1100F20D101212B46EC
:102F80002D4A2E4804F0B3FC484602F0C3FC0DE085
:102F90000BF1010BBBF1040F09F14009DDD1012157
:102FA000274A264804F09AFC6FF00B04009B83F339
:102FB0001188BFF36F8F204603B0BDE8F08F0C99E6
:102FC000019BCBF814100D99CBF81000CBF818101A
:102FD0006FF00F012846CBE902360AF80750CBF80C
:102FE0003C80CBF8041004F0ABFF68B1284604F035
:102FF000A7FFB6FBF0F101FB10662EB1DBF83C1029
:1030000041F00401CBF83C1018F0020F07D007F193
:103010002C010C48514405F07BFC0024C6E72846EF
:1030200001F016FB0446C1E76FF00F04C3E700BFD1
:10303000300E0020140E0020D59D00107C91001051
:10304000BA9D0010A809002010B5EFF311841023D9
:1030500083F31288BFF36F8FFFF792FE50B143687E
:10306000103307D16FF08B0300F12C01436004484B
:1030700005F04EFC84F31188BFF36F8F10BD00BFC5
:10308000A8090020F8B5042510270D4CEFF3118690
:1030900087F31288BFF36F8F6368103307D16FF027
:1030A0008B030848636004F12C0105F031FC86F3C2
:1030B0001188BFF36F8F013D04F14004E6D1F8BDE4
:1030C000140E0020A809002038B50025084C204621
:1030D000084905F001FC0122A4F110001146013558
:1030E00005F0B5FB042D04F14004F0D1002038BDFB
:1030F000400E0020AD2D00100123016981F84B30F6
:103100000B6833B191F849301BB10248083105F022
:10311000FFBB7047A80900200123016981F84A30EC
:103120000B6833B191F848301BB10248083105F003
:10313000EFBB7047A809002070B50569EFF3118651
:10314000102383F31288BFF36F8FD5F8900004F03B
:10315000DCFA044686F31188BFF36F8F30B100228A
:103160000023034805F1180102F066FD204670BDFA
:10317000A8090020012370B582F8483013680D4675
:1031800014463BB192F84A3023B10E4802F10801CF
:1031900005F0BEFBD4F89030DA885B899A4205D1FD
:1031A0007DB904F118014FF47A7204E004F11801BA
:1031B000002DF8D00022BDE870400023014802F045
:1031C0003BBD70BDA809002070B50E46818804463D
:1031D000C9B21548154604F06EFC10B394F90020EE
:1031E0006378002A16DB202B04D0222B0ED06FF040
:1031F00085000AE02B681A6840F8102C9A8820F89D
:103200000C2C9B7900F80A3C002070BD638800F804
:10321000093CF9E7212BEAD10723103828603360F5
:10322000F2E76FF01200F0E7180F0020014608B532
:10323000034804F04DFC10B1012300F8073C08BD21
:10324000180F0020002103460C4AA0F8481010680F
:1032500083F89C10C3F8940090889279A3F89800A2
:1032600083F89A2083F89B104022A3F89E1083F8DD
:10327000A01003F14C0005F0CCBC00BF94910010ED
:10328000002310B50469C4F8A8300C4BC4F8A4009E
:10329000596804F1A80269B9C3E9002204F10800E1
:1032A000074905F019FB04F11800064905F040FB39
:1032B000002010BD0A605A60F0E700BF180F002020
:1032C000277B00108933001030B54FF4003342687B
:1032D000056942F2A10085B0CDE90103002385F81C
:1032E0009D30106AADF80C100A22007901A9FFF791
:1032F00047FA054C95F89D3023B9012005F047FAAF
:10330000013CF7D105B030BDA1860100002373B5A3
:10331000102504698DF8071084F84830EFF3118602
:1033200085F31288BFF36F8F0122D4F890000DF15E
:10333000070104F0EAF986F31188BFF36F8F0128C3
:103340000CD005F001FB90B101220D4BD3E8EF1F2B
:10335000002903D1C3E8E02F0028F7D10A22002377
:1033600004F11801074802F067FC02B070BD94F840
:10337000A130002BE8D000210A2005F0B2FBCDE7F8
:10338000140F0020A8090020F0B5D0F88C300546B5
:103390005B6885B01B6A1F7D384604F0AFFB0646AC
:1033A00050BB95F886303BB3A86F0146C38831F80F
:1033B0000A2F9B1A9BB2B3F5806F28BF4FF480632E
:1033C00003AA04F053F90446B0B18306A5F118032B
:1033D00085F830600193094B08BF00F1FF342246A5
:1033E0000399009338460223FFF7A2FDA86F2246F7
:1033F00000F10A0104F070F905B0F0BD753100105C
:1034000037B514460A1E054621DDD4F88C0004F1B8
:103410004C0104F07AF9012384F8493023683BB168
:1034200094F84B3023B1114804F1080105F070FA0B
:10343000D4F88C209388918912695B1A9BB2D31AB5
:103440003F2B04D8012384F8A03003B030BD94F89A
:103450009E30002BF9D0064B4022009328460123D2
:10346000019404F14C01FFF763FDEEE7A809002089
:103470000134001073B50D4601461D4804F010FBE1
:10348000044610B3691EA0F1A40605291DD8DFE883
:1034900001F01E1C031E242810F8061CA9B903689D
:1034A00032465D68012300F8063C2B6A187BFFF763
:1034B000A7FF14F85C2C42B92B6A1146187D0D4BFE
:1034C000019600930223FFF733FD02B070BD304632
:1034D00002B0BDE87040FFF7B5BE012304F8053C1B
:1034E000F3E710F8053C002BEFD00023F6E700BF10
:1034F000180F00207531001013B500244FF0FF3372
:103500004FF4806205490648009402F057FB0549D4
:10351000034805F01FFA204602B010BD58190020DC
:10352000A8090020199E001080B505460E461746D2
:10353000984602F029FF034600F024FC0446DFF819
:103540001890424649F8003039463046A84754F8AA
:10355000090000F0B9FB00BF0800000008B50348EF
:10356000034A0021121A04F00BFC08BDF8040020E5
:1035700058160020074808B5074A0849121A04F0EF
:1035800001FCBDE808400648064A0749121A04F043
:10359000F9BB00BF00000020F404002090A500103B
:1035A000000000200000002090A500102DE9F04749
:1035B00006460C4600AF002936D0D1E90012E94694
:1035C0008AB06D46A3684FF0050AE8461F48CDE96A
:1035D0000723CDE9050148F810AF002342464FF418
:1035E00021511B48FEF7FEFAD4E90312CD46636968
:1035F000AD461848C5E90723C5E90501C5F810A07F
:10360000002342464FF421511148FEF7EBFACD4614
:10361000E3690121104A0E4804F069F9A369012108
:103620000E4A0B4804F063F9012E07D1EFF305832E
:103630000B4A31460648103B04F059F92146304602
:1036400001F064FEBD46BDE8F08700BF229E001079
:103650003C910010519E0010809E00108F9E001023
:10366000BD9E001030BFFFF7FDBF00BF2DE9F04148
:1036700005460B4EDFF82C80324606EB0807CC1BC4
:103680002046094905F0B8FAA01942460021083C35
:1036900005F0BFFA6C6607F10800BDE8F08100BFD5
:1036A00000000000040000009491001010B5244CAC
:1036B0002449254804F073FBA36A99013ED52248AA
:1036C000224904F06CFB1E20A36ADA0104D51E48CF
:1036D0001F4904F064FB1F20194CA36ADB0204D5C8
:1036E00019481C4904F05BFB2020A36A1C0304D585
:1036F0001548194904F053FB2120114CA36A5903C2
:1037000004D51148154904F04AFB2220A36A9A0304
:1037100004D50D48124904F042FB2320084CA36A4B
:10372000DB0304D508480F4904F039FB2420A36AC1
:103730006FEA03436FEA1343A36210BD1D20C3E782
:1037400000ED00E0D09E00103C910010E89E0010BB
:10375000FB9E0010159F00103F9F00105D9F001002
:10376000829F00109C9F001070B506460D46294CA4
:1037700029492A4804F013FBA36ADB0647D52748EA
:10378000274904F00CFB1120A36A1C0704D5234829
:10379000244904F004FB12201E4CA36A990712D599
:1037A00021491E4804F0FBFA636BA26A120609D590
:1037B00001211E4A194804F09AF81EB1A36A23F0A9
:1037C0008003A3621320134CA36ADE0704D51348B9
:1037D000174904F0E4FA1420A36A9C0604D50F48A4
:1037E000144904F0DCFA15200A4B9A6AD10658BF36
:1037F0009A6A9A6A920642BF5A6A22F400525A6240
:103800009A6A42F0FF029A6200232B7070BD10206A
:10381000BAE700BF00ED00E0C79F00103C91001028
:10382000DD9F001010A0001023A000103BA000108E
:1038300051A0001070A0001070B506460D46284C2F
:103840002849294804F0ABFAA36AD9043CD5264894
:10385000264904F0A4FA1720A36A1A0504D52248C1
:10386000234904F09CFA18201D4CA36A9B0512D52D
:103870001D48204904F093FAA36BA26A100409D5ED
:1038800001211D4A184804F032F81EB1A36A23F43E
:103890000043A3621920124CA36A590504D51248AB
:1038A000164904F07CFA1A20A36ADA050ED50E48F0
:1038B000134904F074FA1B20094A936A43F47F43C6
:1038C000936200232B7070BD1620C5E7A36A9B048A
:1038D000F2D505480B4904F062FA1C20ECE700BF62
:1038E00000ED00E09FA000103C910010B5A000107A
:1038F00010A00010C6A00010DFA00010F4A000105F
:103900000FA1001070A000102DE9F0418AB0674BA4
:103910000446D3F80480002500AFC8F3080685F3F9
:103920001188BFF36F8F02F07F43B3F17F4F07D150
:1039300002F00C03082B12D15D495E4804F02FFA07
:1039400000252C460023FB71F31E092B00F28E800C
:10395000DFE803F00A8487808C8C8C8C8C8A1007BB
:103960004CBF0C460125EDE75349524804F017FAC5
:1039700000234E4EFB71F36A9A0705D54F494D4817
:1039800004F00DFA00232DE0F36A002B01DA4C4914
:10399000F5E7F36A5B00F5D54A49464804F0FFF9BC
:1039A0007369A26943F480737361BFF34F8FBFF3F0
:1039B0006F8F32F8023C726922F480727261BFF339
:1039C0004F8FBFF36F8F03F47F42B2F55F4F2BD160
:1039D000DBB2022B28D1236801213B4A354803F092
:1039E00086FF2368FA79DAB907F1080604F1200C9A
:1039F000324620686168083403C264451646F7D130
:103A00007A6A002D4FD0C2F3080121B96FEA522221
:103A10006FEA42227A62184607F10801FFF7C6FDF5
:103A20002837BD46BDE8F081204B9A6AD2B222B158
:103A30000120F91DFFF798FE0EE09A6A12F47F4FFD
:103A400004D00120F91DFFF7F7FE05E09B6AB3F5EE
:103A5000803F97D3FFF72AFE0346C3E70020F91DF6
:103A6000E8E70020F91DEEE7184988E7184A18F43E
:103A7000F87FE8468AB0174B08BF13466A461649D6
:103A8000103ECDE905134FF40073ADF82030134B11
:103A9000079642F8103F00234FF411510548FEF7F6
:103AA000A1F8C5466EE76FF30802B3E700ED00E04A
:103AB00055A100103C91001080A1001097A10010AA
:103AC000B8A10010C6A10010E5A1001001A20010CD
:103AD00027A100103CA1001025A200100400000145
:103AE000044B5A6942F010025A615A6922F00802E6
:103AF0005A61704700ED00E0EFF30880EFF30981B1
:103B000001B57246FFF700FF01BD00BF0B4880F30F
:103B1000088804F071F9102080F3118808484FF4E8
:103B20000061401880F30988EFF3148002210843F4
:103B300080F31488BFF36F8F00F05CF8982E00209C
:103B4000582100201EF0040F0CBFEFF30880EFF3A4
:103B50000980816911F8021C0229FFD001B5724663
:103B600004F012F901BD00BF40B2002807DB0123B9
:103B70004109034A00F01F00834042F8213070479A
:103B800000E100E040B200280CDB012206494309B5
:103B900000F01F008240203341F82320BFF34F8FF5
:103BA000BFF36F8F704700BF00E100E040B2002814
:103BB00001F10101ACBF00F16040064B4FEA011179
:103BC000C9B2ABBF00F5614000F00F0080F80013F0
:103BD0001954704714ED00E0044B054A23F07F03AD
:103BE0009360BFF34F8FBFF36F8F704700000010DB
:103BF00000ED00E008B5FFF7EFFF0B4AD2F8883080
:103C000023F47003C2F88830EFF3148323F0040325
:103C100083F31488BFF36F8FFFF7A0FCFFF7AAFCB4
:103C200000F092F801F092FC00ED00E042F8203C38
:103C3000009B0B4942F81C3C019B21F0010142F81A
:103C4000183C029B42F8081C42F8143C4FF0807369
:103C500042F8043C0023203A02658366704700BFA7
:103C60002935001000B50B4B15469860426E0A4B83
:103C70000E461A602C4686F309880020034B9847AD
:103C80002046002100220023014C2047B57D001072
:103C90002935001008160020200F00201022014BAB
:103CA0001A61704700ED00E0054B5A699B689A4223
:103CB0001FBF044A536843F080535360704700BFEE
:103CC0000816002000ED00E0084B9B6883420BD1F2
:103CD000EFF3058343B1064B5A6842F080525A60B5
:103CE0005A6A22F400425A6204F039BE08160020D3
:103CF00000ED00E011498A684FF030001044EFF306
:103D0000098C80E8F01F102080F31288BFF36F8FBA
:103D10000B4F4FF000664A698A603E60506E094C56
:103D20002060906E0023936680F3118802F13000CA
:103D300090E8F01F8CF309887047000008160020F7
:103D400004ED00E0200F0020002310210348C218DA
:103D50000133342B82F80013F9D1704700E100E001
:103D600008B5EFF30583064A103B02EBC30152F896
:103D7000330049688847BDE80840FFF795BF00BF9A
:103D8000288E00100148006870470000200F0020B6
:103D9000F0B587B007460E4614460021102268464B
:103DA0001D4604F036FF02238DF80230054B2A46EB
:103DB00021466846CDE90476019302F013FE07B070
:103DC000F0BD00BFE37D001008B5024B1B689847AB
:103DD000002008BD240F0020034B044A186093788C
:103DE00043F0020393707047240F0020000100206D
:103DF00008B5054803F0C1F9002383F31188BFF328
:103E00006F8F0423184602DF38A2001008B5064958
:103E1000064821F00701C1F1202202F5002203F03B
:103E20000AF9002008BD00BF173B0020280F002022
:103E300020F080020F2A0BDC064B10F0800FA3F558
:103E4000307114BF184608462C2303FB020070474C
:103E500000207047F811002010B50446FFF7E8FF76
:103E6000036A1B685B051ED50F4A61B202EA440271
:103E70000029A8BF42F00102012393400B4A0C4CD9
:103E80001366626E33EA0202FBD1046A00292268DB
:103E900022F480622260074A136604DABDE810400B
:103EA0000C3001F037BD10BDFEFEFFFF00201150A9
:103EB000000011500030115000B589B000220023DD
:103EC000CDE9062300236FF00D02CDE90133CDE9E2
:103ED000032300934FF480620B4B0C490C4801F014
:103EE00041FF0C490A4804F035FD0B4883681B6804
:103EF00033B10821984700EAE07009B05DF804FB8F
:103F00006FF05700F7E700BF513F0010581D002029
:103F1000380A002041A20010808D0010014601489F
:103F200004F086BCF40300201FB50623002402938E
:103F30000022002301A88DF804408DF80C40FFF703
:103F4000EDFF024B83F88B4504B010BD340F002009
:103F500030B5134C85B04FF0FF3201A94FF0FF335D
:103F6000104801F0B3FB9DF8041089B19DF80C5086
:103F70002846FFF75DFF029919B94FF48073A4F842
:103F800084354368002BE6D02846C9B29847E2E75B
:103F90002368002BDFD09DF808009847DBE700BFBF
:103FA000340F0020F403002008B503460121034A22
:103FB000034803F09CFC6FF0150008BD49A20010F7
:103FC00064910010F8B5144607460E46FFF730FF1F
:103FD000036A05461B685A0505D502213B46164A69
:103FE000164803F084FC3B0620D5402C21D8BEB9EE
:103FF00044F4004495F828301A1E18BF012283F0BB
:10400000010385F828302B6A44EA42341C6000BF63
:1040100000BF00BF00202B6A44F480641C60F8BD20
:1040200022463146686A04F0E7FDE1E70023AB6011
:10403000E0E76FF00B00F2E75BA200106491001064
:104040002DE9F04F9F4BA04CD3F8985087B02C40EF
:10405000002C3ED09D4E96F88B350BB1FFF764FFD8
:1040600015F010040CD001270024BB46954BDFF857
:1040700060A2D3F85880B8F1000F40F0F28010240D
:10408000EB0326D54FF40032914B80201A65FFF7E1
:10409000E3FE736A44F480341B685F0507D5002093
:1040A000FFF7DAFE02218B4A8B4803F0A7FE0123BB
:1040B000002286F8843586F8EC3286F82C308DF8AC
:1040C000142004928DF80C300022002303A8FFF77F
:1040D00025FFAE0420D500214FF480327C4B7F4E6B
:1040E0001A658DF808108DF8001076493668086D4D
:1040F00044F4005410F4803F0CBF042002200190CF
:104100002EB1042803D1096DC80758BFDA64002214
:1041100000236846FFF702FF290511D501226C4BE9
:104120001A656E4A12684AB1664A126D12F0010FA2
:104130004FF4803218BFA3F58053DA6444F400646E
:10414000EA0422D5664A0221634803F057FE4FF481
:10415000002200265E4B634F1A65A3F5405344F4DA
:1041600080541E60B8192C3601F0D4FBB6F5307FB0
:10417000F8D1002301228DF8083001928DF800302B
:10418000002200236846FFF7C9FE6B0410D51022F9
:104190004F4B03A81A65002305228DF80C300492BA
:1041A0008DF814300022002344F48044FFF7B6FE5B
:1041B0002F0407D54FF40062454B44F400441A65C0
:1041C000FFF7B2FEAE060AD5474A0221424803F085
:1041D00015FE4FF000423E4B44F020041A6568067D
:1041E0000AD5424A02213C4803F008FE4FF0006223
:1041F000374B44F040041A6529060AD53C4A02218F
:10420000354803F0FBFD4FF08062314B44F08004F1
:104210001A65EA050AD5374A02212F4803F0EEFD58
:104220004FF000722A4B44F480741A65AB050AD52E
:10423000314A0121284803F0E1FD4FF08072244B00
:1042400044F400741A65A54206D001212B4A224885
:1042500085EA040303F04BFB07B0BDE8F08F0123B0
:1042600021E0202C3FF40BAF17EA080F27D0E343DF
:10427000C4F3470903F00103CAF8587049EAC319A7
:10428000002BECD044B996F886352BB196F88A25E8
:104290000C4B86F886451A604846FFF7C9FD0C307E
:1042A00001F038FB022304930022002303A88DF8B9
:1042B00014908DF80CB0FFF731FE28EA07087F0054
:1042C0000134D8E60000115010000100340F002026
:1042D0000030115077A2001064910010C01400202B
:1042E000A4A2001004120020AEA20010B7A2001079
:1042F000C2A20010CEA20010DEA20010E8A20010A0
:104300002DE9F743414D2868B8B1002101AA03F017
:1043100092FF041E07DB019B00221979186803F045
:104320009CFF044648B101212346394A394803F02D
:10433000DEFA204603B0BDE8F0834FF08053364AE2
:10434000136002F580521360344B9C68E44314F010
:104350008054FAD14FF48C722146314804F059FC54
:104360004FF4805221462F4804F053FC09232C4A75
:1043700053672B680BB90C2393670123284A2A4CF7
:1043800013644FF000530026A046D364274B284FF8
:10439000284DDFF8A490C2F890302B1F6562C4F856
:1043A000E43276B3A5F180032362A5F18403C4F857
:1043B000E032A7F14003A762C4F8E832012204F515
:1043C00034701146013604F042FA102E05F108054A
:1043D00004F12C0407F18007DFD1114B07211B6D7D
:1043E0000E20DB0744BF4FF48032144B4FF0000423
:1043F00048BFDA640022FFF7D9FB0E20FFF7B4FBB9
:1044000097E7C8F82890C8F8E892D7E7C0140020CA
:10441000FCA2001064910010002002400000024045
:104420000000115000001050340F0020F0FB01007C
:104430004001105084001050000110500020115015
:10444000014B1860704700BF340F00200122034B5E
:1044500083F88A0583F8862500207047340F0020F2
:1044600008B50279037852B913F07F0006D0064AE6
:104470000648012103F0C2FC4FF0FF3008BD13F0E5
:104480007000FBD0024AF3E717A3001064910010FC
:1044900036A3001038B50546FFF7CAFC0446A0B1A4
:1044A0006B0605D1002D14BF01220222084B9A662B
:1044B0004FF40062236A802D1A6002D10020FFF7BA
:1044C000CBFC01230020E37038BD6FF01500FBE743
:1044D000002011502DE9F0410446884615461E463D
:1044E000FFF7A6FC08B1230609D42348234601217F
:1044F000224A03F0FCF96FF01500BDE8F081802C32
:1045000009D11F4B93F884351BB106B135600020EB
:10451000F3E7402D28D80788AF4228BF2F4600F187
:104520000C0500220023284601F028FAF0B904F017
:104530000BFA10B90E20FFF725FB20463A464146FC
:10454000FFF740FD044620B1284601F0E3F96FF083
:10455000040404F0F9F910B90E20FFF705FB44B983
:10456000002ED4D03760D2E74027D8E76FF00A009A
:10457000C3E76FF00400C0E76491001049A2001087
:10458000340F00202DE9F743064688461746994622
:10459000FFF74EFC054650B93346264A264801210E
:1045A00003F0A5F96FF0150003B0BDE8F083330602
:1045B00002D5224A3346F1E72EBB214B93F88535CD
:1045C0000BB3082F06D0082302211E4A1A48009771
:1045D00003F097F90824B8F1000F1FD0BC4228BFA0
:1045E0003C46B6B9164B93F8853593B12246164929
:1045F000404604F001FBAB682344AB60B9F1000F07
:1046000014D10020D0E7304603F07FFCAB68C41A19
:10461000E1E7696AAB6822461944E9E7002FEDD06B
:1046200001210A4A044803F0E9FBE7E7C9F8004022
:10463000E7E700BF5AA30010649100106EA30010BA
:10464000340F00208FA3001000001050DEA30010D4
:10465000F8B50446FFF7ECFB064608B1230608D57B
:104660001C48234601211C4A03F041F96FF0150054
:10467000F8BD3CBB194D1A4F95F885357BB1FB88C9
:104680004BB1A5F8884585F885452046BDE8F8403A
:10469000402103F0C0BB85F885350020E8E72046BF
:1046A00003F033FC97F90030002BF6DBB5F88835C2
:1046B000B268F98813448B42EFD29042EDD1A5F84D
:1046C0008835E2E7204603F020FCB3688342E4D15A
:1046D000DBE700BF64910010EEA30010340F002050
:1046E000000010500B2936D8DFE801F00606060658
:1046F0000F1B24352A2A3A3A0C22514303681A4ADE
:104700005B58C3F34313D0567047184B1A6B1B6B9F
:1047100013F0030322D0022B22D0C2F34313144A16
:10472000F1E7124AD36BD26B92071BD0114AC3F345
:104730004313E8E70D4B104A9B6CC3F34313E2E7C6
:104740000C23594301F1804101F580310B680B4A7C
:10475000C3F34313D7E74FF0FF3070470E20704785
:104760000C2070470420704784A500100000014011
:1047700081A500107BA5001074A500106EA5001087
:104780002DE9F04107460C467D68214628463E69E2
:1047900003F01BFC00286ED00E2C6CD8DFE804F070
:1047A0000B0B0B0B0B0B2D6B0B0B333308656900DD
:1047B0003248BDE8F081214628462E68FFF792FF77
:1047C00001463846FFF7DCFF0C2303FB0463054674
:1047D0005E68586880B2FBF761FD2949FBF76AFE05
:1047E0000446300CFBF75AFD01462046FBF7A6FCB9
:1047F00001462846FBF75EFEDBE706212846FFF769
:1048000071FF0446C0E72146D5E9023628460A2C46
:1048100008BF1E46FFF766FF01463846FFF7B0FFA8
:104820000446B068FBF73AFD2146FBF78FFDD6F84A
:104830000080044608F03F00FBF730FD01462046AB
:10484000FBF738FEF7680446C7F30240FBF726FD86
:1048500001462046FBF72EFEF5680446C5F30230FC
:10486000FBF71CFD01462046C4E73068FBF716FD48
:104870009FE77068FAE700209BE700BF001B374BFB
:1048800000FF7F474FF08072074BDA61A3F540537A
:10489000DA69D20102D56FF0150070470160D8695E
:1048A00010F08070F7D1704700B00E402DE9F04352
:1048B0008FB005AA90464468A36825680393E3680F
:1048C00027690493674B03F1200C16461868596852
:1048D000083303C663453246F7D11B88624A3380EA
:1048E000624B1A60624A634B1360A2F540529668AD
:1048F00033EA0606FBD1B1465FFA89F00C2109F1D3
:10490000010903F0D8FEB9F1060FF5D10023C5F86F
:10491000843000F037FC584BDA6B22F00302DA6384
:104920005A6C012AFCD11A6B22F003021A639A6BAB
:10493000012AFCD1636AE269DFF84091009309FB28
:1049400002F2236AA169039800F0C2FB636BE26A7A
:104950000093A16A049809FB02F2236B00F0B8FBF4
:104960001121404603F074FB18F8160018F91610D0
:1049700009285DD90136112EF6D14FF4006305F5F3
:1049800040521360D36005F5405205F540559361E0
:104990006B62D4F8D81007F1180041F42A61FFF7D0
:1049A00071FF00284FD1D4F8DC10384641F47A0169
:1049B00041F43041FFF766FF002844D1D4F8E010FD
:1049C000002945D01F2946D801F52A4107F11400D6
:1049D000FFF758FF002836D1B4F8E410284D381DF1
:1049E0002943FFF74FFF70BBB4F8E61007F108004A
:1049F0002943FFF747FF30BB6FF060421C4B1A6042
:104A0000A3F540539D68ED4335F06045FAD1294642
:104A1000606902AA03F00FFC00281FDB029B2A46F4
:104A20001979186803F019FC002817DB00200CE046
:104A300004EB01110B6C00934B6CD1E90E1203F0E7
:104A400011FE002896D16FF015000FB0BDE8F0837D
:104A50004AF60121BAE74FF42A41B7E7831CE5D0B3
:104A6000F3E700BF9B9100107F3BEFEF0020024077
:104A700000300240F6FFF30300000140001BB700C6
:104A80000000969608B5074803F0A7FE38B106481F
:104A9000FFF7A2F90448FCF713FE002008BD6FF0F1
:104AA0001200FBE7B88D0010AD4A00100A2838B597
:104AB0000446074D04D1AB680D2128465B68984732
:104AC000AB6803485B68E1B29847204638BD00BF39
:104AD000B88D00104FF05043084A1968084B002960
:104AE00018BF134630331A46106820B90432D11A61
:104AF0001429F9D970470120704700BF9082024005
:104B00004882024070B50D461446B2B91146284697
:104B100000F080FB2C4B03EB850253F8253002F5A7
:104B2000805183F0800303F0C0030B604FF4807367
:104B300002F500521360002070BD0669C2F34012F6
:104B40002846C4F3001100F065FB0521284600F05B
:104B500045FB14F480311BD04FF0000343EC44506C
:104B6000A303E8D50123A007F26803FA05F11BD5DA
:104B70000A436007F26032690ED50A4332614FF092
:104B8000000343EC4050C4F3804444EC4450D2E76B
:104B9000284600F08FFBE3E722EA0102326143EC92
:104BA0004050C4F3C044F0E722EA0102F26014F47A
:104BB000002204D043EC405043EC4450BBE7610377
:104BC000FAD542EC4050F7E7048003404FF05043E1
:104BD0002DE9F0471C4A19681C4B064600290CBFFA
:104BE000904698460024D0F81090DFF864A0E308BF
:104BF00003F10C0258F8221004F007029200D14091
:104C0000090704D10134302CF1D1BDE8F0870F2120
:104C10008C3301FA02F24AF82320D9F80410002953
:104C2000F0D001270D68A7400029EBD08A683A40F0
:104C300002D030464B6898471DB12B6829461D4667
:104C4000F2E72B46FAE700BF48820240908202401A
:104C500000800240054B186801238B400340003B55
:104C600018BF012300201370704700BF00000240EE
:104C70000123024A8B40002013607047002002404D
:104C8000012303FA01F1044B1960A3F5405398681E
:104C900031EA0000FBD1704700300240012303FAE3
:104CA00001F1064B196003F580531960A3F54053D9
:104CB000986831EA0000FBD1704700BF0020024035
:104CC0002DE9F84FD0F81090D0F804A099F80830EA
:104CD00006460F469046DAF800B0002B40F086807A
:104CE0005AB1DBF8303023F00103CBF830304368A1
:104CF0001A68D36A23F01003D3623B79DBF82C40A7
:104D0000012B24F0EE0405D0022B13D023B16FF059
:104D1000850054E044F002047B79012B03D0032B7F
:104D2000F5D144F00804BB79032BF0D8DFE803F099
:104D30000705111444F00604EEE744F02004FB7963
:104D40006BB1012BE3D173681A68136B43F44043D2
:104D50000AE044F04004F2E744F06004EFE77368CF
:104D60001A68136B23F4404300251363D9F80C1021
:104D70003A682B4612018801890EFBF75DFC034659
:104D8000DFF870E0403B61F1000C72689E4575EB06
:104D90000C0C126827D3830943EA816300F03F00BB
:104DA00053629062BFF35F8F2846D36AD362CBF819
:104DB0002C403B68C9F800307B68C9F80430B8F172
:104DC000000F0ED09AF81C302BB973681A68D36A9A
:104DD00043F01003D36273681A68136B43F0010346
:104DE0001363BDE8F88F6FF01500E8E76FF08500FA
:104DF000F7E700BF80FF3F004FF0E0230D4A9969BD
:104E0000126818699B69002908BF1146002B08BF6A
:104E1000134610F4803F084801D1994205D2016839
:104E2000114401604FF0E021096900681044C01A84
:104E3000704700BFDC140020D81400201022094B5A
:104E4000002083F8232043F69822074B1A60074B73
:104E500043F6972218604FF0E0235A6107229861C9
:104E60001A61704700ED00E0DC140020D814002027
:104E7000684620F007018D4619B5FFF7BDFF1449BC
:104E8000144B0868D3E90042001942F10002C3E95B
:104E9000000200230B6043F698230F4AD2E9004139
:104EA000001BB0FBF3F043431B1941F10001C2E9C1
:104EB0000031EFF31181102383F31288BFF36F8F5A
:104EC00001F0F0FBFEF7F0FEBDE8194085467047A3
:104ED000D8140020B00A0020A80A00202DE9F041D3
:104EE000374E89B1421C0AD14FF0E022136923F0FA
:104EF000010313614FF07F433360BDE8F0813568F3
:104F0000012806DC00240AE0431C3568F8D140F291
:104F10005D4040F25E439842A8BF1846441EEFF33E
:104F20001187102383F31288BFF36F8FFFF764FF9D
:104F30004FF0E0232349D3F818C0D1E900238018AB
:104F40004FF0000243F10003C1E900031E4B1A6059
:104F50001E4B1A68831A2DD443F6982E43F69728D1
:104F600014FB0E841C44B4FBFEF4131A0EFB043332
:104F7000B3F5806F38BF4FF48063154A934228BF62
:104F800013464FF0E0223360013B946953610023E4
:104F9000A4459361ACEB0400D1E900320DD2054485
:104FA000EB1842F10002C1E9003287F31188BFF328
:104FB0006F8FA2E74FF48063E3E7C318F1E700BF08
:104FC000DC140020B00A0020D8140020A80A002019
:104FD00038A9FF0038B5EFF31185102383F3128849
:104FE000BFF36F8F084B1C68084B1B68E41AFFF770
:104FF00003FF85F31188BFF36F8F43F69823204496
:10500000B0FBF3F038BD00BFB00A0020A80A0020B2
:1050100038B5EFF31185102383F31288BFF36F8F38
:10502000044B1C68FFF7E8FE85F31188BFF36F8F10
:10503000204438BDB00A0020F0B50C24444304F1EC
:10504000804404F58034059E94466268071FB2428E
:10505000FFB238BF6660012F04F5405224D8012901
:1050600022D103251560A268D207FCD5226804F579
:10507000805582EA4C1202F0E002012F2A6009D822
:1050800022684A4002F003022A6001228A40A16895
:105090001142FCD04FF4006104F5005211600B4A3C
:1050A000666042F82030F0BD4FF400651560074D92
:1050B00055F82020002AD9D06D69B5FBF2F50135ED
:1050C00005EB4505033DFDD2D0E700BFE01400200D
:1050D000F8B5264E264F274D1644BE42B5FBF1F5D6
:1050E000069C01D902F07AFEB2FBF5F2A2F110059E
:1050F000B5F5987FF6D85D1E062DF3D8651E062DF2
:10510000F0D8240344EA03430468002C0EDA046850
:1051100004F03F048C4209D18468C4F30B04944228
:1051200004D1C46804F4EE249C421DD0124D012425
:10513000A84214BF0E250F25AC40104D104E2C6018
:1051400005F580552C60B56834EA0505FBD1016092
:105150002121826000F5405204321160016800296B
:10516000FCDAC36008231360F8BD00BF80E84BD3AE
:1051700080F8A932001BB7000080054000200240E3
:10518000000002404FF42A62054B06491A604FF4B2
:105190008D72DA60044A11605A68002AFCDA70479E
:1051A0000080044000B0FA0000A0044030B5C408FC
:1051B00000F0070080008140074804F18C0540F8AA
:1051C000251003EB84031AB103F50053196030BDB9
:1051D00003F54053FAE700BF0080024010B50C4BC6
:1051E00003EB800253F8203002F5805483F0400333
:1051F00003F0C00323604FF48073C00000F18040CF
:1052000000F5203002F540524160136010BD00BF30
:105210000480034010B5074CC90004EB800354F828
:10522000200041EA8201414001F00C0103F5805366
:10523000196010BD04800340054B03EB800002237E
:1052400019B100F500500360704700F54050FAE7CF
:1052500004800340054A02EB800352F8202003F546
:105260008053514001F001011960704704800340F0
:10527000064B03EB800253F8203002F5805283EA9C
:10528000011303F030031360704700BF0480034034
:105290004FF0504310B4DFF814C01C68044B002CCE
:1052A00008BF634610BCFFF781BF00BF48820240C1
:1052B00090820240054B03EB8000402319B100F5BA
:1052C00000500360704700F54050FAE70480034047
:1052D0004FF0E022044BD2F8881D0B43C2F8883D02
:1052E00010EE3004704700BF0303300010B50446D1
:1052F000FCF7AAFB03480121034A02F0EFFA20461B
:1053000003F076FA3C9100105DA400102DE9F843FB
:1053100004460D4600AFEFF31188102383F3128883
:10532000BFF36F8F04282A4A98BF2A4BE9468AB0F8
:105330009668117C98BF53F820306A4688BF264B88
:10534000CDE9073140F201332448ADF82430244B35
:10535000CDE9050442F8103F00234FF431512148B4
:10536000FCF740FCCD4645B1EB69C3F3080323B11C
:1053700001211D4A1B4802F0B1FA2EB1304603F05C
:10538000ECFA08B1037803B91848E9468AB06A46CE
:10539000174B0790CDE9053640F20133ADF82030C8
:1053A000144B42F8103F00234FF411510D48FCF705
:1053B00019FC2946CD462046FFF798FF88F311884F
:1053C000BFF36F8F3046FEF77FFCBD46BDE8F88324
:1053D00008160020A09300106CA4001082A40010F6
:1053E000050000013C910010AAA400107AA400104E
:1053F000CBA400100400000138B50A4B53F820403C
:10540000013053F82050A54200D838BD606830B153
:10541000037EDB0701D403F0C8F90834F3E72368FF
:105420009847FAE7B4930010012270B5284B86B074
:1054300003201A70FFF7E0FF0420FFF7DDFF254C83
:10544000254D2646AE4204F130040FD300F078FF1C
:10545000204CAC4226D300F087FFFBF77FFA1F4AAF
:10546000938923F00103938106B070BD54F80C3C7E
:10547000059354F8103C049354F8143C039354F8E7
:10548000183C029354F81C3C019354F8203C0093C0
:1054900054E90A2354E90C0100F0F8FB54F8303CBD
:1054A0005E65CEE7D4E90A23B3F1FF3F08BFB2F14E
:1054B000FF3F05D052EA0301206803D100F02EFC23
:1054C0003034C6E70649183001F00CF8F8E700BFA1
:1054D00053160020C88F0010C88F0010280B002022
:1054E000818A0010702370B5134E012203FB006601
:1054F000002386B0CDE904230F220193CDE90232C7
:1055000014234FF4A0720D4D0D4903FB00550446C2
:1055100002FB00110B4B3046009500F0B7FB337CCB
:105520002C7423F004033374074B013403EBC423BE
:10553000EE606B6006B070BDB80A0020081600204F
:105540005829002001880010582100207FB5002034
:10555000FFF752FF234B83F308880024F023224DEA
:1055600085F82230EC772C766C76AC766B6A43F457
:10557000E0236B62FEF7B4FAFEF790FB4FF0FF33C7
:10558000AB62EB62FCF7C4F9184800F0BDFB0120E8
:10559000FFF732FF0220164DFFF72EFF00F0C8FE86
:1055A000144B4FF480625D61134B14490593012342
:1055B0002846CDE90343CDE90144114B009400F0A6
:1055C00065FB06462B7C284623F004032B7403F06E
:1055D0001FFA2046FFF786FF31462846084AFEF7A5
:1055E00041FB00BF5829002000ED00E0980B00208F
:1055F000280B0020081600208E950010982A002005
:1056000029540010F7B50D4604469DF82010EFF31D
:105610001187102080F31288BFF36F8F266AE0682D
:1056200086423FD22668B44219D0C6B1304603F054
:10563000F2F806F1180000F0EDFF2946002554F8B5
:10564000082F706903F0D8FA3046F56603F0E0F9E8
:105650002046394603F042FA284603B0F0BDA2685E
:10566000A9B12946E06903F0C7FAE369A2681344C7
:105670006269E361934201D12369E3610020236AF7
:105680000133236287F31188BFF36F8FE5E7A069C9
:1056900023692946984208BF6069801AA06103F017
:1056A000ABFAEBE752EA03010BD0074904F108001B
:1056B00089684D61CDE900233946224600F044FD5A
:1056C000CBE76FF02200DDE708160020F7B50446AF
:1056D0000846EFF31186102181F31288BFF36F8F14
:1056E000216A00293AD0A268A16903F085FAA3696A
:1056F000A268256813446269A361934204BF2369C9
:10570000A361236AAC4203F1FF33236235D02846FC
:10571000002D33D0002703F07EF805F1180000F0CB
:1057200079FF6969A268E06903F066FAE369A26833
:10573000284613446269E361934204BF2369E3612D
:10574000236A01332362EF6603F062F904F1080073
:10575000314603F0C3F9384603B0F0BD52EA030105
:1057600011D00A4989684861CDE9002331462246B3
:1057700004F1080000F0E8FCEEE7002086F3118851
:10578000BFF36F8FE8E76FF02200F7E708160020FD
:105790002DE9F341044617461E46EFF31188102306
:1057A00083F31288BFF36F8F304BC2689B6872B16E
:1057B0008068984217D057EA060216D188F31188FC
:1057C000BFF36F8F6FF00F0002B0BDE8F08193F967
:1057D0000E1001322161C4E9023288F31188BFF34F
:1057E0006F8F0020F0E72169F3E793F90E1090F92D
:1057F0000E30994230DA9942A8BF194603F01FF8DB
:10580000054622464146CDE90076194800F09CFC49
:105810000028E6D0EFF31186102383F31288BFF33C
:105820006F8FA068D0B1236821699C420AD04BB128
:1058300093F90E309942A8BF19466FF07F03994241
:10584000B8BF194602F0FBFF40B13146084803F0EB
:1058500045F96FF00A00B7E70025D2E7002DF4D133
:1058600086F31188BFF36F8FF3E700BF081600209F
:1058700054160020F8B583680546002B3FD0234A14
:10588000926893423ED1C368012B03D9013BC360A8
:105890000020F8BDEFF31187102383F31288BFF3C4
:1058A0006F8F0169806802F0CAFF2C68A54207D19A
:1058B0000023C5E9023387F31188BFF36F8FE7E751
:1058C000002CF5D0D4E90032002613605A60237C06
:1058D000C4E9006623F002032374A66004F11800F3
:1058E00000F098FEAC6094F90E3020462B61E6661D
:1058F00003F08EF83946064803F0F0F8C8E76FF079
:105900001500C6E74FF0FF30C3E700BF08160020C0
:105910005416002070B5EFF31186102383F312881C
:10592000BFF36F8F0468A0421AD0CCB1D4E9003223
:10593000002513605A60237CC4E9005523F002035C
:105940002374A56004F1180000F064FE2046E566AB
:1059500003F05EF83146BDE87040074803F0BEB87A
:10596000D0E902329A4218BF0133836086F311886E
:10597000BFF36F8F70BD00BF5416002013B5EFF357
:105980001181102484F31288BFF36F8F846844B1AF
:10599000013C846081F31188BFF36F8F002002B057
:1059A00010BD52EA030406D181F31188BFF36F8F53
:1059B0006FF00F00F3E7CDE900230246014800F045
:1059C000C3FBECE7541600202DE9FF4104461027E5
:1059D000504EEFF3118887F31288BFF36F8F656F16
:1059E000F5B9022104F18C0002F03DFF00286CD0D3
:1059F00004F1840500220121284603F09CF80028C8
:105A0000F8D100234FF0FF3202934FF0FF334146AD
:105A1000CDE90023404804F17C0200F0BBFCD8E74C
:105A2000A26F2B689542636708BFA367D4F88C30D8
:105A300043F00203C4F88C30EB6823F0040343F016
:105A40000103EB606B6888F31188BFF36F8F284602
:105A50009847EFF3118887F31288BFF36F8FEB68D5
:105A6000D80623F001023DD4EA60EB689A0717D507
:105A7000306823F00203EB6090B10021036878B135
:105A8000426895423CD10368002933D17268336083
:105A9000904200D17360002340F8083BFFF73AFFC3
:105AA000D4F88C3023F00203C4F88C30DB052FD4FB
:105AB000636F003B18BF012388F31188BFF36F8F1A
:105AC000002B86D002F06AFF83E7D4F88C30D90629
:105AD00097D5C4F88C0088F31188BFF36F8F04B09A
